S01500004C504544545F4932435F44656D6F2E73333765
S3150800000000100020490A00082F9B00082F9B0008B3
S315080000102F9B00082F9B00082F9B00082F9B00088A
S315080000202F9B00082F9B00082F9B00082F9B00087A
S315080000302F9B00082F9B00082F9B00082F9B00086A
S315080000402F9B00082F9B00082F9B00082F9B00085A
S31508000050598400082F9B00082F9B00082F9B000837
S315080000602F9B0008E9060008D90600082F9B000800
S315080000702F9B00082F9B00082F9B00082F9B00082A
S315080000802F9B00082F9B00082F9B00082F9B00081A
S315080000902F9B0008311400082F9B00082F9B00088F
S315080000A02F9B0008559C00082D9C00082F9B0008D4
S315080000B02F9B00082F9B00082F9B00082F9B0008EA
S315080000C02F9B00082F9B00082F9B00082F9B0008DA
S315080000D02F9B00082F9B00082F9B00082F9B0008CA
S315080000E02F9B00082F9B00082F9B00082F9B0008BA
S315080000F053A000082F9B00082F9B00082F9B000881
S315080001002F9B00082F9B00082F9B00082F9B000899
S315080001102F9B00082F9B00082F9B00082F9B000889
S315080001202F9B00082F9B00082F9B00082F9B000879
S315080001302F9B00082F9B00082F9B00082F9B000869
S315080001402F9B00082F9B00082F9B00088BA80008F0
S315080001502F9B00082F9B00082F9B00082F9B000849
S315080001602F9B00082F9B00082F9B00082F9B000839
S31508000170013800D0FCE7704710B5054C237833B931
S31508000180044B13B1044800E000BF0123237010BDDF
S315080001909410002000000000BCB8000808B5034B06
S315080001A01BB10349034800E000BF08BD000000007A
S315080001B098100020BCB80008A3F5803A704700BF25
S315080001C0174B002B08BF134B9D46FFF7F5FF002181
S315080001D08B460F461348144A121A0AF09CFC0E4B1B
S315080001E0002B00D098470D4B002B00D098470020D5
S315080001F0002104000D000D48002802D00C4800E03C
S3150800020000BF08F03FFC2000290009F07DFB08F03C
S3150800021025FC00BF000008000000000000000000E8
S315080002200010002094100020A415002000000000F3
S315080002300000000008B508F049FA08F0C5F80AF009
S3150800024087FB024B00221A7000BF08BD86150020E6
S3150800025010B588B000238DF81F3000230693724B23
S315080002601B78002B00F0DC8004AB062219463220EE
S315080002700AF07DFB03468DF81F309DF81F30002BD2
S3150800028000F0828009F00FFC09F00FFC674B1C6830
S315080002900AF019FC0246664B0093664B66492046EF
S315080002A009F056FF09F0FFFB09F0FFFB5F4B1C68DE
S315080002B00AF009FC02469DF8103001935C4B009346
S315080002C05C4B5E49204609F043FF09F0ECFB09F058
S315080002D0ECFB564B1C680AF0F6FB02469DF81130FB
S315080002E00193534B0093534B5549204609F030FF71
S315080002F009F0D9FB09F0D9FB4C4B1C680AF0E3FB63
S3150800030002469DF812300193494B0093494B4D49DB
S31508000310204609F01DFF09F0C6FB09F0C6FB434B52
S315080003201C680AF0D0FB02469DF813300193404B37
S315080003300093404B4449204609F00AFF09F0B3FBF5
S3150800034009F0B3FB394B1C680AF0BDFB02469DF861
S3150800035014300193364B0093364B3C49204609F03E
S31508000360F7FE09F0A0FB09F0A0FB304B1C680AF069
S31508000370AAFB02469DF8153001932D4B00932D4B91
S315080003803349204609F0E4FE0DF10F030122194610
S315080003902D200AF0ECFA03468DF81F309DF81F3021
S315080003A0002B12D009F07FFB09F07FFB1F4B1C685E
S315080003B00AF089FB02469DF80F3001931C4B009307
S315080003C01C4B2449204609F0C3FE0DF10E030122F9
S315080003D019462C200AF0CBFA03468DF81F309DF8F3
S315080003E01F30002B12D009F05EFB09F05EFB0F4BA5
S315080003F01C680AF068FB02469DF80E3001930C4B08
S3150800040000930C4B1449204609F0A2FE9DF81F30B4
S31508000410002B02D0069B01330693034B00221A7069
S3150800042000BF08B010BD00BF86150020501100207F
S31508000430D8AE0008CCAD0008D4AD0008FCAD000865
S3150800044014AE00082CAE000844AE00085CAE0008E6
S3150800045074AE00088CAE0008B4AE000808B502F009
S3150800046035F909F038FC304B1B6F23F007032E4A89
S3150800047043F00303136709F03BFC2C4B9B6A03F01C
S315080004808073002B06D1294B03F500531A464FF407
S3150800049080339362244BD3F8203123F00703224A92
S315080004A043F00203C2F820311F4BD3F8283123F05A
S315080004B007031D4A43F00203C2F828311A4BD3F842
S315080004C0403123F00303184A43F00203C2F84031CF
S315080004D0154BD3F8603123F00303134A43F00203A4
S315080004E0C2F86031104BD3F8403223F003030E4AAA
S315080004F043F00203C2F840320B4BD3F8003223F024
S315080005000703094A43F00203C2F80032064BD3F840
S31508000510083223F00703044A43F00203C2F80832FC
S315080005200023184608BD00BF008000500040005A4E
S3150800053000B583B0034600918DF807309DF8073063
S31508000540002B14D09DF80730012B0ED09DF80730EC
S31508000550022B07D09DF80730032B01D13F2308E073
S31508000560002306E040F2FF3303E03F2301E040F2B8
S31508000570FF33009AD34003F00103002B04D14FF454
S3150800058083610B4809F0DFFA9DF8072013465B00E4
S3150800059013441B0103F11002064B13440099184635
S315080005A009F008FA0346184603B05DF804FB00BFD5
S315080005B0ECAE000830C0035030B599B0324B10ACE1
S315080005C01D460FCD0FC495E8070084E807004FF4D1
S315080005D0E13312930023ADF84E304FF48053ADF853
S315080005E0503000238DF859300BAB00221A605A6040
S315080005F09A60DA601A61254B0B9329230C9308231A
S315080006008DF8353009238DF8373001238DF83830C9
S3150800061005238DF839301E4A09AB92E8030083E8B2
S31508000620030003AB00221A605A609A60DA601A6106
S315080006305A6103AB09AA92E8030083E80300092379
S315080006408DF814300A238DF81530124B06932023A3
S31508000650079301238DF8213000238DF822300BAB48
S3150800066010AA03A90C4800900C4806F033F9179015
S31508000670179B002B03D08521094809F064FA179BBC
S31508000680184619B030BD00BF70AF000800C005504D
S315080006908CAF000830110020DC100020B8100020B4
S315080006A040AF000800B583B00849094806F0CCFCFD
S315080006B0FFF782FF0190019B002B03D09721054885
S315080006C009F041FA00BF03B05DF804FB00100020F2
S315080006D0B010002040AF000808B5024806F03AFA04
S315080006E000BF08BDB810002008B5024806F032FA67
S315080006F000BF08BDB810002008B5034809F067F91F
S315080007000346184608BD00BFB810002000B585B0DE
S3150800071003460A468DF8073013468DF806309DF8CD
S315080007200730022B03D09DF80730032B13D19DF811
S315080007300630012B03D09DF80630002B0BD108217B
S315080007400020FFF7F5FE0390039B042208210020F2
S3150800075003F0AAFD1AE09DF80630022B03D09DF897
S315080007600630032B12D19DF80730012B03D09DF8D4
S315080007700730002B0AD108210020FFF7D9FE039085
S31508000780039B00220821002003F08EFD9DF8063009
S31508000790012B07D8054B5B6A054A126812680121C6
S315080007A01046984700BF05B05DF804FBDC10002032
S315080007B00810002008B5094B01221A70084B0022C0
S315080007C01A70084B04221A70074B1F221A7005F07C
S315080007D0DDFB0346054A136000BF08BD86100020EE
S315080007E0871500208710002088100020501100204F
S315080007F000B583B0034600918DF807309DF80730A1
S31508000800002B14D09DF80730012B0ED09DF8073029
S31508000810022B07D09DF80730032B01D13F2308E0B0
S31508000820002306E040F2FF3303E03F2301E040F2F5
S31508000830FF33009AD34003F00103002B04D140F2A2
S31508000840FE310A4809F07FF909489DF80720012179
S31508000850009B994013465B0013441B01034403F5B0
S315080008600153196000BF03B05DF804FB94AF00089C
S3150800087000C0035000B583B0034600918DF80730D9
S315080008809DF80730002B14D09DF80730012B0ED0A9
S315080008909DF80730022B07D09DF80730032B01D1AE
S315080008A03F2308E0002306E040F2FF3303E03F233E
S315080008B001E040F2FF33009AD34003F00103002B16
S315080008C004D140F22D410A4809F03DF909489DF83E
S315080008D007200121009B994013465B0013441B0126
S315080008E0034403F58253196000BF03B05DF804FBA7
S315080008F094AF000800C0035030B58FB04B4B09AC1D
S315080009001D460FCD0FC42B682360494B01AC1D460D
S315080009100FCD0FC495E80F0084E80F0001213A2097
S3150800092001F054F90121572001F050F901238DF8FF
S31508000930093000238DF808303E4B0B9301AB0D931D
S3150800094009AB19463C4803F07BF801230422012130
S31508000950022003F0A9FC002301220221022003F051
S31508000960A3FC012304220321022003F09DFC01239A
S3150800097004220421022003F097FC304B304AC3F8C6
S31508000980C8242E4B4FF00212C3F8C4242B4B2D4A11
S31508000990C3F8CC24294B1C22C3F8B4244FF448705E
S315080009A007F0D2FC09F0B5F8142007F0CDFC09F0E1
S315080009B0B7F8232007F0C8FC09F0ABF8B9211E48A0
S315080009C009F04AFA09F0ACF80023002201210220B6
S315080009D003F06AFC002300220221022003F064FCD3
S315080009E0012300220321022003F05EFC01230022DA
S315080009F00421022003F058FC0F4803F095F80F4B2A
S31508000A000022C3F8C8240D4B0022C3F8C4240B4B9C
S31508000A100022C3F8CC24094B0022C3F8B4240021D1
S31508000A20572001F0D3F800BF0FB030BDE0AF000883
S31508000A30F4AF0008E070720000000A5000C00350CE
S31508000A40020003000200010000B585B000F07EF840
S31508000A501F4B039319E0002302930EE0039B1A68C9
S31508000A60029B9B001A44039B5968029B9B000B44FC
S31508000A7012681A60029B01330293039B9B68029AD1
S31508000A809A42EBD3039B0C330393039B114A93427D
S31508000A90E1D3114B019314E00023009309E0019B75
S31508000AA01A68009B9B00134400221A60009B0133BE
S31508000AB00093019B5B68009A9A42F0D3019B083326
S31508000AC00193019B054A9342E6D3FFF779FB00BFE2
S31508000AD0C4B80008D0B80008D0B80008D0B80008D4
S31508000AE082B003468DF807309DF90730002B0CDBE2
S31508000AF09DF8073003F01F0205499DF907305B0989
S31508000B00012000FA02F241F8232000BF02B0704724
S31508000B1000E100E082B003468DF807309DF9073002
S31508000B20002B0DDB9DF8073003F01F0206499DF9DF
S31508000B3007305B09012000FA02F2603341F82320EE
S31508000B4000BF02B0704700BF00E100E008B51D4BCA
S31508000B501D4A9A601B4BD3F888301A4A43F470032F
S31508000B60C2F88830194B03F580531A464FF4804370
S31508000B709366174B03F500531A464FF0FF33136677
S31508000B80134B03F500531A46124B5366124B0222B7
S31508000B901A60BFF34F8F00BFBFF36F8F00BF0020EF
S31508000BA0FFF7B8FF0A4B03F500531A464FF44033D4
S31508000BB0D3600020FFF794FF054B4FF440321A61CB
S31508000BC000BF08BD00ED00E00000000800800050EE
S31508000BD000800044F7FF3700D0ED00E0014B1B68AA
S31508000BE0184670471410002000B583B000230193FF
S31508000BF00E4B1B6F03F00703032B09D0032B0ED8EC
S31508000C00012B09D0022B0AD1FFF7E8FF019007E074
S31508000C10074B1B68019303E0064B019300E0FEE7D0
S31508000C20019B184603B05DF804FB00BF0080005026
S31508000C300C100020002D310100B583B0FFF7D4FF5A
S31508000C4001900A4B1B6F1B0B03F00F030093009BCD
S31508000C500133019AB2FBF3F30193054A019B136032
S31508000C60019B184603B05DF804FB00BF00800050E6
S31508000C7018100020014B1846704700BF00B4C40482
S31508000C80014B1B68184670470C10002000B583B04E
S31508000C900190074A019B1360064B1B6F03F007037D
S31508000CA0032B01D1FFF7C8FF00BF03B05DF804FBB3
S31508000CB00C10002000800050014B1846704700BFFA
S31508000CC0002D310182B0002301934FF0B4439B6895
S31508000CD01B0C03F01F030C2B4CD801A252F823F06F
S31508000CE0150D0008750D0008750D0008750D00082E
S31508000CF0750D0008750D0008510D0008570D000800
S31508000D005D0D0008750D0008630D0008690D0008E3
S31508000D106F0D00084FF0B4439B6803F04073B3F1BE
S31508000D20007F0ED0B3F1007F0ED8002B03D0B3F1AD
S31508000D30807F03D008E0124B019308E0114B019322
S31508000D4005E0114B019302E00023019300BF12E076
S31508000D500E4B01930FE00E4B01930CE00D4B0193E4
S31508000D6009E00D4B019306E00C4B019303E00C4B95
S31508000D70019300E000BF019B184602B0704700BF10
S31508000D8000093D0080841E0040420F00405DC600F9
S31508000D900024F400C0EA210180BA8C010048E80169
S31508000DA0005A6202014B1B68184670471010002053
S31508000DB000B583B001900091009B002B02D0019BE7
S31508000DC0002B03D13721074808F0BDFE019B1A689E
S31508000DD0009B1A60019B009A1A6000BF03B05DF879
S31508000DE004FB00BF14B0000884B001900B4B1A68CE
S31508000DF0019B13440A4A934202D94FF0FF3309E094
S31508000E00064B1B680393054B1A68019B1344034A58
S31508000E101360039B184604B0704700BF1C100020DF
S31508000E200000042000B587B0039002910192029B4E
S31508000E301F2B03D991210C4808F085FE019B002B36
S31508000E4004D0039B03F58053059303E0039B03F546
S31508000E5000530593059B0121029A01FA02F21A60D2
S31508000E6000BF07B05DF804FB64B0000800B585B0A4
S31508000E7003468DF807309DF80730002B01D0012373
S31508000E8000E000230393039A00210348FFF7CAFFF3
S31508000E9000BF05B05DF804FB44C4035000B585B037
S31508000EA00023039301213A2000F090FE0123042237
S31508000EB00321002003F0F8F9039809F038F8012017
S31508000EC0FFF7D4FF474B03F580531A464FF4002328
S31508000ED05366454BDB6803F08073002B14BF012370
S31508000EE000238DF80B309DF80B30002B05D03E4BB8
S31508000EF0DB683D4A23F08073D3603A4BD3F88030E1
S31508000F0023F00303374A43F00203C2F880309DF802
S31508000F100B30002B05D0344BDB68334A43F0807323
S31508000F20D3604FF4607000F08BFE01902E4B1B6867
S31508000F302D4A43F0010313602B4BDB682A4A43F022
S31508000F408073D3600123ADF802300F23ADF800306B
S31508000F50BDF802305B021A46BDF800305B001A4342
S31508000F602249234B13430B60019B03F5D52303F258
S31508000F70FC43DB081F4AA2FB03239B0A1E4A013BCC
S31508000F8013611D4B0222C3F8F0201B4B4FF48072ED
S31508000F90C3F804234FF06043184AC3F8B02F4FF044
S31508000FA06043174AC3F8802E4FF06043D3F8003EDB
S31508000FB04FF0604243F48073C2F8003E4FF060433E
S31508000FC0FF2283F820204FF06043D3F8003E4FF00D
S31508000FD0604223F48073C2F8003E0023184605B029
S31508000FE05DF804FB00800050F0ED00E0001000E022
S31508000FF0E101004017916502000004E055CEACC53A
S315080010000900010000B585B001900091204B1B78BE
S3150800101083F00103DBB2002B01D01E4B34E0019BA9
S31508001020002B01D11C4B2FE008F0B5FE02900023DF
S31508001030039322E0194A039B1B0113440C331B78C4
S3150800104083F00103DBB2002B14D0039A019B1A60CC
S31508001050124A039B1B0113440C3301221A700F4AD0
S31508001060039B1B01134400221A60029808F0A3FE92
S31508001070002309E0039B01330393039B072BD9DD68
S31508001080029808F098FE064B184605B05DF804FB72
S3150800109088150020028000F0018000F0541100201D
S315080010A0048000F000B585B000238DF80B3008F0F9
S315080010B072FE0190002303930EE0154A039B1B0161
S315080010C013440C331B78002B03D001238DF80B3007
S315080010D005E0039B01330393039B072BEDDD9DF886
S315080010E00B3083F00103DBB2002B09D003F04CFE72
S315080010F0084B00221A70019808F05DFE002303E0F1
S31508001100019808F058FE044B184605B05DF804FB34
S315080011105411002088150020058000F000B585B020
S315080011200190164B1B7883F00103DBB2002B01D02C
S31508001130134B1FE0019B072B01D9124B1AE008F04D
S315080011402AFE0390104A019B1B0113440C331B789B
S31508001150002B0BD00C4A019B1B0113440C330022B5
S315080011601A70039808F027FE002303E0039808F096
S3150800117022FE064B184605B05DF804FB88150020CC
S31508001180028000F0018000F054110020068000F073
S3150800119000B585B0194B1B68019300238DF8043000
S315080011A008F0F9FD0290164B1B78002B04D0029824
S315080011B008F001FE134B1DE0114B01221A7002982C
S315080011C008F0F9FD0023039309E00F4A039B1B016E
S315080011D013440C3300221A70039B01330393039BB9
S315080011E0072BF2DD08238DF8073001AB184603F00C
S315080011F005FE0023184605B05DF804FBB0B00008EC
S3150800120088150020038000F05411002000B583B033
S315080012100190124B1B7883F00103DBB2002B01D03F
S315080012200F4B17E0019B072B01D90E4B12E00E4A14
S31508001230019B1B0113440C331B7883F00103DBB2BB
S31508001240002B01D0094B05E0019B0021184603F04D
S31508001250B5FD0023184603B05DF804FB8815002089
S31508001260028000F0018000F054110020078000F091
S3150800127000B583B00190124B1B7883F00103DBB2F3
S31508001280002B01D00F4B17E0019B072B01D90E4B02
S3150800129012E00E4A019B1B0113440C331B7883F0A2
S315080012A00103DBB2002B01D0094B05E0019B0121AC
S315080012B0184603F083FD0023184603B05DF804FBC7
S315080012C088150020028000F0018000F054110020EB
S315080012D0078000F000B583B00190124B1B7883F0AD
S315080012E00103DBB2002B01D00F4B16E0019B072B45
S315080012F001D90E4B11E00E4A019B1B0113440C3316
S315080013001B7883F00103DBB2002B01D0094B04E004
S31508001310019B184603F0ECFE0023184603B05DF85F
S3150800132004FB00BF88150020028000F0018000F051
S3150800133054110020078000F082B001900091194BEB
S315080013401B7883F00103DBB2002B01D0164B25E096
S31508001350019B072B02D8009B002B01D1134B1DE0E4
S31508001360134A019B1B0113440C331B7883F00103BA
S31508001370DBB2002B01D00F4B10E00F4B1B6D012188
S31508001380019A01FA02F21340002B03D0009B0122B6
S315080013901A7002E0009B00221A700023184602B059
S315080013A0704700BF88150020028000F0018000F019
S315080013B054110020078000F00000045000B583B0E7
S315080013C001900091154B1B7883F00103DBB2002BCB
S315080013D001D0134B1DE0019B072B02D8009B002B65
S315080013E001D1104B15E0104A019B1B0113440C3325
S315080013F01B7883F00103DBB2002B01D00B4B08E00E
S31508001400019B184603F09EFE03461A46009B1A7077
S315080014100023184603B05DF804FB00BF88150020BA
S31508001420028000F0018000F054110020078000F0CF
S3150800143000B587B0364B1B6D0393354B5B6D039A2E
S3150800144013400393039B002B00DAFEE70023059362
S315080014500123049353E0039A049B1340002B48D0BE
S315080014602B4B03F500531A46049B1365059B1B017A
S31508001470284A13440293029B1B68002B39D0029B0F
S315080014809B685A1C029B9A60029B1B68029A916889
S31508001490029A5268059898470346002B14BF012301
S315080014A00023DBB283F00103DBB28DF807309DF829
S315080014B0073003F001038DF80730029B5B7B012B95
S315080014C017D19DF80730002B13D0134A059B5B01F3
S315080014D0134403F1080213796FF3410313710E4A9B
S315080014E0059B5B01134403F1180213796FF341035B
S315080014F01371059B01330593049B5B000493059BBD
S31508001500072BA8D900BF00BF07B05DF804FB00BFD2
S315080015100000045054110020D411002010B58AB0E0
S315080015200292019303468DF80F300B468DF80E3064
S315080015307B4B1B7883F00103DBB2002B01D0794B80
S31508001540EBE0029B072B10D80C9B002B0DD00D9BB4
S31508001550002B0AD0109BB3F5006F06DC9DF80F3000
S31508001560012B04D10E9B002B01D16F4BD5E0029BBA
S315080015701B016E4A13440993099B1B7B83F00103E5
S31508001580DBB2002B01D06A4BC7E004AB00221A601D
S315080015905A609A60DA60029B5B01664A13440893B4
S315080015A09DF80E30002B1DD1089B1A4600231360A8
S315080015B053609360D360089A937843F0100393704E
S315080015C0089AD37843F03003D3709DF83C3083F003
S315080015D00103DBB2002B22D0089AD37843F0030329
S315080015E0D3701CE0089B1A4600231360536093606F
S315080015F0D360089A937843F010039370089AD378C7
S3150800160043F00303D3709DF83C3083F00103DBB24B
S31508001610002B04D0089AD37843F03003D370019B8B
S315080016200493109B9BB2013B9BB2C3F30A0399B286
S31508001630089A138861F30E1313800C9A089B9A6014
S315080016400D9A089B5A609DF8443003F00303D9B2FB
S31508001650089AD37861F38303D3709DF80F30012B72
S315080016603BD1089A137B43F001031373089A137B43
S3150800167043F002031373089AD368042161F39F03A6
S31508001680D3602C4A029B5B01134403F11002089BAA
S3150800169014460FCB84E80F00264A029B5B011344CD
S315080016A003F1180253686FF0030161F39F03536057
S315080016B00E9A2049029B5B010B4414331A609DF86D
S315080016C00E30012B09D10D9A1A49029B5B010B4476
S315080016D018331A600E9A089B5A60129B002B08D181
S315080016E09DF80F30002B04D1089A93786FF30413F2
S315080016F09370099B129A1A60099B139A5A60099B60
S3150800170000229A60099B9DF80F205A73029B04A930
S31508001710089A184603F0E8FB002318460AB010BDDD
S3150800172088150020028000F0018000F05411002086
S31508001730078000F0D411002082B003468DF80730E8
S315080017409DF90730002B0CDB9DF8073003F01F02CC
S3150800175005499DF907305B09012000FA02F241F8B4
S31508001760232000BF02B0704700E100E082B00346C4
S315080017708DF807309DF90730002B0DDB9DF80730F3
S3150800178003F01F0206499DF907305B09012000FA9C
S3150800179002F2603341F8232000BF02B0704700BF51
S315080017A000E100E082B00190044B03F500531A46AD
S315080017B0019BC2F8203400BF02B0704700C0035036
S315080017C082B0064BD3F824340193044BD3F8202473
S315080017D0019B1340184602B0704700BF00C0035073
S315080017E000B587B001902BE0019808F0EEF9059056
S315080017F00122059B02FA03F3DB43019A1340019386
S31508001800059B1B01124A13440493049B5B68002B37
S3150800181016D0049B1B7B002B0AD0049B5B680293A3
S31508001820059BDAB2049B9968029B1046984707E025
S31508001830049B5B680393059BDAB2039B10469847A3
S31508001840019B002BD0D100BF00BF07B05DF804FB99
S31508001850D412002000B587B0039002910192029B32
S315080018601F2B03D991210C4808F06DF9019B002B19
S3150800187004D0039B03F58053059303E0039B03F50C
S3150800188000530593059B0121029A01FA02F21A6098
S3150800189000BF07B05DF804FBB4B0000808B500BF88
S315080018A00421044808F0F0F90346002BF8D100BFDC
S315080018B000BF08BD8440005008B5FFF7EFFF044B92
S315080018C0D3F884309B0903F00303DBB2184608BD3E
S315080018D000400050054BDB6903F48033002B14BF2E
S315080018E001230023DBB21846704700BF00000350EF
S315080018F0024B0022DA6300BF704700BF00000350A6
S31508001900024B41F67132DA6300BF7047000003509C
S31508001910014B5B68184670470000035082B001907F
S31508001920024A019B536000BF02B070470000035093
S3150800193000B585B0019000230393019BB3F5607F42
S3150800194035D0019BB3F5607F59D8019BB3F5207F4D
S315080019504ED0019BB3F5207F51D8019BB3F5007F8C
S315080019603ED0019BB3F5007F49D8019B002B03D0DD
S31508001970019BB3F5C07F42D1264B1B6F1B0B03F0AF
S315080019800F030393039B002B3BD0039B012B38D0FB
S31508001990039B032B35D0039B072B32D0039B0F2BBE
S315080019A02FD04FF41D711C4808F0CDF829E0194BCB
S315080019B0D3F880301B0903F003030393039B002B22
S315080019C021D0039B012B1ED0039B022B1BD0039B0C
S315080019D0032B18D04FF421710F4808F0B4F812E021
S315080019E00C4BD3F890301B0E03F01F0303930BE048
S315080019F0084B1B6F9B0A03F00103039304E000BF27
S31508001A0002E000BF00E000BF039B0133184605B0A3
S31508001A105DF804FB0080005000B1000810B584B0E2
S31508001A2001900091019BB3F5607F54D0019BB3F5FB
S31508001A30607F00F2BA80019BB3F5207F00F09F809B
S31508001A40019BB3F5207F00F2B080019BB3F5007FC0
S31508001A507DD0019BB3F5007F00F2A780019B002B88
S31508001A6004D0019BB3F5C07F40F09F80009B012BFB
S31508001A7010D0009B022B0DD0009B042B0AD0009B94
S31508001A80082B07D0009B102B04D040F2B5214C48F8
S31508001A9008F059F808F05FF908F055F901F0DEF991
S31508001AA0484B1B6F23F47042009B013B1B034549BF
S31508001AB013430B6708F0E2F80446FFF7FDFE0346FA
S31508001AC0C3F102031946204608F029F901F0FEFB86
S31508001AD001F0D0F970E03C4BDB6803F08073002B13
S31508001AE014BF012300238DF80F309DF80F30002B0B
S31508001AF005D0354BDB68344A23F08073D360009BEE
S31508001B00012B0DD0009B022B0AD0009B032B07D07C
S31508001B10009B042B04D040F2DF21294808F013F873
S31508001B20284BD3F8803023F03002009B013B1B0181
S31508001B3024491343C1F880309DF80F30002B3AD062
S31508001B40214BDB68204A43F08073D36033E0009B67
S31508001B50002B02D0009B202B04D940F2F221184812
S31508001B6007F0F1FF174BD3F8903023F0F852009B9B
S31508001B70013B1B0613491343C1F890301CE0009B38
S31508001B80012B07D0009B022B04D04FF43E710C4862
S31508001B9007F0D9FF0B4B1B6F23F48062009B013BB8
S31508001BA09B02084913430B6706E040F2FE210448EE
S31508001BB007F0C9FF00E000BF00BF04B010BD00BFBA
S31508001BC000B1000800800050F0ED00E000B585B0D7
S31508001BD001900B468DF8033000230393019B5B09A4
S31508001BE0002B05D140F21B31124807F0ACFF12E07A
S31508001BF0019B5B09012B02D10F4B03930BE0019B61
S31508001C005B09022B02D10D4B039304E040F2253108
S31508001C10084807F098FF019B03F01F0302939DF8FD
S31508001C2003301A4602990398FFF714FE00BF05B061
S31508001C305DF804FB00B1000864800050688000501D
S31508001C4010B584B001900023039300230293019BEF
S31508001C50B3F5486F00F02983019BB3F5486F00F28E
S31508001C603683019BB3F5406F00F0EF82019BB3F515
S31508001C70406F00F22C83019BB3F5286F00F01B839D
S31508001C80019BB3F5286F00F22283019BB3F5206F01
S31508001C9000F00583019BB3F5206F00F21883019BC2
S31508001CA0B3F5106F00F0EF82019BB3F5106F00F2E9
S31508001CB00E83019BB3F5F06F00F00383019BB3F528
S31508001CC0F06F00F20483019BB3F5E06F00F0E18248
S31508001CD0019BB3F5E06F00F2FA82019BB3F5D06F72
S31508001CE000F0CB82019BB3F5D06F00F2F082019B26
S31508001CF0B3F5C06F00F0BB82019BB3F5C06F00F26D
S31508001D00E682019BB3F5B06F00F0A582019BB3F59F
S31508001D10B06F00F2DC82019BB3F5A06F00F08F82F2
S31508001D20019BB3F5A06F00F2D282019BB3F5806FD9
S31508001D3000F07F82019BB3F5806F00F2C882019B99
S31508001D40B3F5607F00F06682019BB3F5607F00F211
S31508001D50BE82019BB3F5407F00F04F82019BB3F52D
S31508001D60407F00F2B482019BB3F5207F00F03982F0
S31508001D70019BB3F5207F00F2AA82019BB3F5007F91
S31508001D8000F02382019BB3F5007F00F2A082019B3D
S31508001D90B3F5807F00F20A82019BB3F5807F00F2DB
S31508001DA0968201A252F823F0C1210008CF2200082A
S31508001DB0CF220008CF220008CF220008CF22000831
S31508001DC0CF220008CF220008CF220008CF22000821
S31508001DD0CF220008CF220008CF220008CF22000811
S31508001DE0CF220008CF220008CF220008CF22000801
S31508001DF0CF220008CF220008CF220008CF220008F1
S31508001E00CF220008CF220008CF220008CF220008E0
S31508001E10CF220008CF220008CF220008CF220008D0
S31508001E20CF220008CF220008C1210008E3210008BC
S31508001E30C1210008E32100083322000833220008E4
S31508001E40332200083322000833220008E321000861
S31508001E5057220008FB2100086F2200087B22000891
S31508001E60FB210008E3210008E3210008E32100081C
S31508001E70CF220008CF220008CF220008CF22000870
S31508001E80CF220008CF220008CF220008CF22000860
S31508001E90E3210008E3210008E3210008C322000823
S31508001EA093220008E3210008CF220008CF22000869
S31508001EB0CF220008CF220008CF220008CF22000830
S31508001EC0CF220008CF220008CF220008CF22000820
S31508001ED0CF220008CF220008CF22000833220008AC
S31508001EE0C1210008C1210008C12100088722000875
S31508001EF0FB210008FB2100089F220008B7220008E2
S31508001F003F2200084B220008CF220008CF220008F3
S31508001F10CF220008CF220008CF220008AB220008F3
S31508001F20C1210008CF220008CF220008CF220008CE
S31508001F30CF220008CF220008CF220008CF220008AF
S31508001F40CF220008CF220008CF220008CF2200089F
S31508001F50CF220008CF220008CF220008CF2200088F
S31508001F60CF220008CF220008CF220008CF2200087F
S31508001F70CF220008CF220008CF220008CF2200086F
S31508001F80CF220008CF220008CF220008CF2200085F
S31508001F90CF220008CF220008CF220008CF2200084F
S31508001FA0CF220008CF220008B7210008CF22000858
S31508001FB0CF220008CF220008CF220008CF2200082F
S31508001FC0CF220008CF220008CF220008CF2200081F
S31508001FD0CF220008CF220008CF220008CF2200080F
S31508001FE0CF220008CF220008CF220008CF220008FF
S31508001FF0CF220008CF220008CF220008CF220008EF
S31508002000CF220008CF220008CF220008CF220008DE
S31508002010CF220008CF220008CF220008CF220008CE
S31508002020CF220008CF220008CF220008CF220008BE
S31508002030CF220008CF220008CF220008CF220008AE
S31508002040CF220008CF220008CF220008CF2200089E
S31508002050CF220008CF220008CF220008CF2200088E
S31508002060CF220008CF220008CF220008CF2200087E
S31508002070CF220008CF220008CF220008CF2200086E
S31508002080CF220008CF220008CF220008CF2200085E
S31508002090CF220008CF220008CF220008CF2200084E
S315080020A0CF220008CF220008CF220008CF2200083E
S315080020B0CF220008CF220008CF220008CF2200082E
S315080020C0CF220008CF220008CF220008CF2200081E
S315080020D0CF220008CF220008CF220008CF2200080E
S315080020E0CF220008CF220008CF220008CF220008FE
S315080020F0CF220008CF220008CF220008CF220008EE
S31508002100CF220008CF220008CF220008CF220008DD
S31508002110CF220008CF220008CF220008CF220008CD
S31508002120CF220008CF220008CF220008CF220008BD
S31508002130CF220008CF220008CF220008CF220008AD
S31508002140CF220008CF220008CF220008CF2200089D
S31508002150CF220008CF220008CF220008CF2200088D
S31508002160CF220008CF220008CF220008CF2200087D
S31508002170CF220008CF220008CF220008CF2200086D
S31508002180CF220008CF220008CF220008CF2200085D
S31508002190CF220008CF220008CF220008CF2200084D
S315080021A0CF220008CF22000863220008019BB3F55E
S315080021B0C07F05D08BE0FEF717FD034603938CE03E
S315080021C0FEF73AFD0346039387E0FEF70DFD044646
S315080021D04FF40070FFF7ACFB0346B4FBF3F303932D
S315080021E07BE0FEF729FD04464FF42070FFF7A0FBBD
S315080021F00346B4FBF3F303936FE0FEF71DFD0446B5
S315080022004FF42070FFF794FB0346B4FBF3F35B0827
S31508002210039362E002AB0021184600F041FE029CDF
S315080022204FF46070FFF784FB0346B4FBF3F30393A4
S3150800223053E003AB0021184600F0BEFE4DE003ABA9
S315080022400021184600F076FC47E003AB002118464B
S3150800225000F0C4FC41E003AB0021184600F0F0FF93
S315080022603BE003AB0021184601F02CF935E003AB3F
S315080022700021184600F0FEFE2FE003AB00211846A9
S3150800228001F080F829E003AB0021184601F0CAF8EE
S3150800229023E003AB0021184601F032F81DE003AB3A
S315080022A00021184600F0F8FC17E003AB0021184699
S315080022B000F046FD11E003AB0021184600F094FD3E
S315080022C00BE003AB0021184600F016FF05E04FF4BB
S315080022D08F61044807F037FC00BF039B184604B01B
S315080022E010BD00BF00B1000800B585B001900023FD
S315080022F00393019BB3F5486F00F0CD81019BB3F5BD
S31508002300486F00F2D481019BB3F5406F00F0B181AC
S31508002310019BB3F5406F00F2CA81019BB3F5286FA4
S3150800232000F0BF81019BB3F5286F00F2C081019BC5
S31508002330B3F5206F00F0A981019BB3F5206F00F279
S31508002340B681019BB3F5106F00F07B81019BB3F555
S31508002350106F00F2AC81019BB3F5086F00F077812E
S31508002360019BB3F5086F00F2A281019BB3F5F06FEC
S3150800237000F05B81019BB3F5F06F00F29881019B39
S31508002380B3F5E06F00F07B81019BB3F5E06F00F2D7
S315080023908E81019BB3F5D06F00F04D81019BB3F59B
S315080023A0D06F00F28481019BB3F5C06F00F03781CE
S315080023B0019BB3F5C06F00F27A81019BB3F5B06F4C
S315080023C000F01B81019BB3F5B06F00F27081019B91
S315080023D0B3F5A06F00F04781019BB3F5A06F00F23B
S315080023E06681019BB3F5806F00F00D81019BB3F503
S315080023F0806F00F25C81019BB3F5607F00F02D8150
S31508002400019BB3F5607F00F25281019B802B00F29D
S31508002410C780019B242BC0F04A81019B243B5C2B7F
S3150800242000F2458101A252F823F000BF07260008F2
S3150800243007260008072600080726000807260008BA
S31508002440AF260008FB250008AF2600081F2600084F
S3150800245037260008AF260008AF260008AF26000872
S31508002460AF260008AF260008AF260008AF260008EA
S31508002470AF260008AF260008AF260008AF260008DA
S31508002480AF260008AF260008AF260008AF260008CA
S315080024902B2600087F260008AF260008AF2600086E
S315080024A0AF260008AF260008AF260008AF260008AA
S315080024B0AF260008AF260008AF260008AF2600089A
S315080024C0AF260008AF260008AF260008AF2600088A
S315080024D007260008AF260008AF260008AF26000822
S315080024E043260008AF260008AF2600088B260008FA
S315080024F0A32600086726000873260008AF260008EA
S31508002500AF260008AF260008AF260008AF26000849
S3150800251097260008AF260008AF260008AF26000851
S31508002520AF260008AF260008AF260008AF26000829
S31508002530AF260008AF260008AF260008AF26000819
S31508002540AF260008AF260008AF260008AF26000809
S31508002550AF260008AF260008AF260008AF260008F9
S31508002560AF260008AF260008AF260008AF260008E9
S31508002570AF260008AF260008AF260008AF260008D9
S31508002580AF260008AF260008AF260008AF260008C9
S31508002590AF260008AF260008AF260008AB250008BE
S315080025A0019BB3F5807F34D081E0464B1B6F03F067
S315080025B00703013B032B17D801A252F823F000BFEB
S315080025C0E3250008D1250008D7250008DD250008E1
S315080025D00523039310E0032303930DE008230393D5
S315080025E00AE00223039307E00023039340F2AA417B
S315080025F0354807F0A8FA00BF5FE003AB194600208C
S3150800260000F01EFE59E003AB1946002000F0D4FC8A
S3150800261053E003AB1946002000F054FF4DE003AB2E
S315080026201946002000F026FD47E003AB19460020B6
S3150800263000F062FD41E003AB1946002000F0A2FE5F
S315080026403BE003AB1946002000F0ECFE35E003AB97
S315080026501946002000F066FC2FE003AB194600205F
S3150800266000F01EFC29E003AB1946002000F062FAD0
S3150800267023E003AB1946002000F0B0FA1DE003ABD7
S315080026801946002000F03CFE17E003AB194600206F
S3150800269000F002FB11E003AB1946002000F050FBE6
S315080026A00BE003AB1946002000F09EFB05E040F264
S315080026B05951054807F047FA00BF039B184605B06D
S315080026C05DF804FB0080005000B10008074B03F5D5
S315080026D080531A464FF480135366054B03F580530F
S315080026E01A464FF48033936200BF7047008000504B
S315080026F00040005A00B585B00190019B1B680F2B5E
S3150800270004D940F6F2218F4807F01DFA019B5B6851
S315080027100F2B04D940F6F5218A4807F014FA019BD5
S315080027209B680F2B04D940F6F821864807F00BFA68
S31508002730019B1B7B0F2B04D940F6FB21814807F030
S3150800274002FA019B5B7B0F2B04D940F6FE217D48DC
S3150800275007F0F9F9019B9B7B3F2B04D940F6013121
S31508002760784807F0F0F9019BDB7B3F2B04D940F64C
S315080027700431744807F0E7F9019B1B69032B04D958
S3150800278040F607316F4807F0DEF9019B5B69032BBA
S3150800279004D940F60A316B4807F0D5F9019BDB6985
S315080027A0032B04D940F60D31664807F0CCF9802092
S315080027B0FFF79AFD0346032B00F00A81624B03F5E7
S315080027C080531A464FF480135366604B45F60E0243
S315080027D0C3F880205D4B03F580531A464FF0A0637B
S315080027E093625A4B03F500531A464FF480339362AB
S315080027F000BF564B9B6D03F48033002BF9D1019B28
S315080028001B681A06019B5B681B051343019A127B1A
S3150800281012041343019A527B12031343019A927BC3
S3150800282092011343019AD27B1146484A0B4313611E
S31508002830464B9B6903F00042019B1B699B061A43A2
S31508002840019B5B691B061343019A127E120413430C
S31508002850019A527E12021343019A927E11463B4A0E
S315080028600B439361394B1B6A23F00F03019AD26914
S31508002870002A01D1002200E008221343019AD27EE1
S3150800288092001A43019BDB69304913430B62019B93
S31508002890DB69002B60D12D4B9A6A2D4B1340019AA8
S315080028A092F8202052011343019A92F8212012012E
S315080028B01343019A92F82420D2001343234A43F47F
S315080028C08033936200BF214B9A6D224B1340214AF5
S315080028D09342F8D11D4B03F580531A464FF0807387
S315080028E093621A4B1B6923F47002019B9B681B05B4
S315080028F0164913430B61154B03F580531A464FF0DF
S3150800290000439361019B93F8223083F00103DBB205
S31508002910002B06D00D4B03F500531A464FF0807373
S315080029209362019B93F8233083F00103DBB2002BFB
S3150800293044D0064B03F500531A464FF4803393628E
S315080029403CE000BF00B10008008000500040005A7B
S31508002950C7FFFEFE03000100019BDB69022B12D1B3
S315080029601D4B00221A611C4B00229A610223039315
S31508002970039B1A03039B1B0213431A464FF47F411A
S31508002980164807F08EF9144B9A6A154B1340019AAC
S3150800299092F8202052011343019A92F82220120637
S315080029A01343019A92F82420D2001343019A92F80D
S315080029B0232012041146084A0B439362019B93F89D
S315080029C02530002B05D0044B064AC3F8802000E0CA
S315080029D000BF05B05DF804FB0040005A3440005AB9
S315080029E0C7FFFEFEF1A7FFFF024B93F9003018461A
S315080029F0704700BF8910002000B585B00190019B83
S31508002A005B68072B04D940F6BD41404807F09BF8A0
S31508002A10019B9B68032B04D940F6BF413B4807F04E
S31508002A2092F8019B1B78032B04D940F6C14137481D
S31508002A3007F089F8019B5B785BB2002B04DA40F655
S31508002A40C341324807F07FF84F230393019B5B7815
S31508002A508DF80B309DF80B20039B934228BF134635
S31508002A608DF80A302A4B03F580531A464FF40003B3
S31508002A705366284B4FF4D1525A62264B03F58053BE
S31508002A801A4602235360234B03F500531A460123C3
S31508002A90536000BF1F4B1B6903F48033002BF9D129
S31508002AA0019B1B781A029DF80A301A4913434B6199
S31508002AB0019B5B681A02019B9B681B011343019AE1
S31508002AC0127B52001343019A527B1146114A0B435B
S31508002AD09360019B9B7B5A01019BDB7B1B011A437D
S31508002AE0019B1B7C5B001343019A527C1A43094BDA
S31508002AF05A60019B9B7C002B03D0064B6FF4D15286
S31508002B005A6200BF05B05DF804FB00BF00B10008BB
S31508002B10008000500000025082B00346ADF806302F
S31508002B20034ABDF80630138000BF02B0704700BFE5
S31508002B308410002000B585B001900091002302930F
S31508002B40244BD3F8203203F00703013B032B28D884
S31508002B5001A252F823F000BF692B0008792B000860
S31508002B60872B0008952B000802AB0021184600F0B9
S31508002B7035F8122303931CE0FEF7A4F803460293E4
S31508002B800723039315E006F0D6FF034602930A23AC
S31508002B9003930EE0FEF706F903460293092303930F
S31508002BA007E00023039340F6E5610B4806F0CBFFE8
S31508002BB000BF019B002B02D0029A019B1A60009B62
S31508002BC0002B02D0009B039A1A6000BF05B05DF87F
S31508002BD004FB00BF0080005000B1000800B585B0B6
S31508002BE00190009100230393294BD3F8283103F071
S31508002BF00703013B052B33D801A252F823F000BF87
S31508002C00192C00083D2C0008552C0008312C00080A
S31508002C10252C0008492C0008FDF7E0FF0390052342
S31508002C20029325E0FDF7DAFF0390062302931FE0DF
S31508002C30FEF748F803900723029319E0FEF720F8F9
S31508002C4003900323029313E0FEF71AF80390042374
S31508002C5002930DE0FEF730F803900223029307E093
S31508002C600023029340F626710A4806F06CFF00BF5F
S31508002C70019B002B02D0019B039A1A60009B002B34
S31508002C8002D0009B029A1A6000BF05B05DF804FBEB
S31508002C900080005000B1000800B585B00190009191
S31508002CA000230293244BD3F8603203F00703013B59
S31508002CB0032B29D801A252F823F000BFCD2C000817
S31508002CC0DD2C0008FB2C0008ED2C000802AB0021C7
S31508002CD0184600F071F9102303931DE002AB00219A
S31508002CE0184600F0C7F91123039315E0FDF7EAFF2C
S31508002CF003460293072303930EE0FDF7DDFF034621
S31508002D0002930223039307E00023039340F68A7194
S31508002D100A4806F018FF00BF019B002B02D0029A52
S31508002D20019B1A60009B002B02D0009B039A1A6035
S31508002D3000BF05B05DF804FB0080005000B1000834
S31508002D4000B585B00190009100230293244BD3F877
S31508002D50943203F00703013B032B29D801A252F84A
S31508002D6023F000BF752D0008852D0008A32D000847
S31508002D70952D000802AB0021184600F01DF9102316
S31508002D8003931DE002AB0021184600F073F91123E6
S31508002D90039315E0FDF796FF034602930723039373
S31508002DA00EE0FDF789FF034602930223039307E02B
S31508002DB00023039340F6BD710A4806F0C4FE00BF1F
S31508002DC0019B002B02D0029A019B1A60009B002BE4
S31508002DD002D0009B039A1A6000BF05B05DF804FB99
S31508002DE00080005000B1000800B585B00190009140
S31508002DF000230293174BD3F8703203F00303012B19
S31508002E0002D0022B08D00CE002AB0021184600F0D5
S31508002E1031F9112303930CE000230293152303933E
S31508002E2007E00023039340F6E8710B4806F08BFE93
S31508002E3000BF019B002B02D0029A019B1A60009BDF
S31508002E40002B02D0009B039A1A6000BF05B05DF8FC
S31508002E5004FB00BF0080005000B10008044B03F5D6
S31508002E6080531A464FF48033136700BF704700BF7C
S31508002E700080005008B58020FEF7E2FE0346064AA9
S31508002E80934206D8054B03F500531A464FF4803390
S31508002E90136700BF08BD00BF005A620200800050D9
S31508002EA000B585B001900091002303931B4BD3F81E
S31508002EB0803003F00303032B12D0032B16D8012B03
S31508002EC002D0022B06D011E0FDF78EFE03900E23EA
S31508002ED0029313E0FDF7F6FE0390072302930DE035
S31508002EE0FDF77CFE03900623029307E00023029376
S31508002EF041F2A1010A4806F026FE00BF019B002BFD
S31508002F0002D0019B039A1A60009B002B02D0009BFB
S31508002F10029A1A6000BF05B05DF804FB00800050F5
S31508002F2000B1000800B585B0019000910023039315
S31508002F301F4BD3F8003103F00303032B1FD801A25C
S31508002F4052F823F0792F0008552F0008612F000842
S31508002F506D2F0008FDF794FE03900323029316E0F5
S31508002F60FDF720FF03900923029310E006F0E0FD29
S31508002F700390082302930AE00123029307E0002343
S31508002F80029341F2D7010B4806F0DDFD00BF019B15
S31508002F90002B02D0019B039A1A60009B002B02D0DB
S31508002FA0009B029A1A6000BF05B05DF804FB00BFDB
S31508002FB00080005000B1000800B585B0019000916E
S31508002FC000230393294BD3F8203103F00703013B71
S31508002FD0052B33D801A252F823F000BFF52F0008BD
S31508002FE001300008193000080D30000825300008A7
S31508002FF031300008FDF7F2FD03900523029325E022
S31508003000FDF73EFE0390032302931FE0FDF75AFEE9
S3150800301003900723029319E0FDF74EFE039002235F
S31508003020029313E0FDF7DAFD0390062302930DE001
S31508003030FDF726FE03900423029307E0002302937C
S3150800304041F21A110A4806F07EFD00BF019B002BCB
S3150800305002D0019B039A1A60009B002B02D0009BAA
S31508003060029A1A6000BF05B05DF804FB00800050A4
S3150800307000B1000800B585B00190009100230393C4
S315080030801B4BD3F8403103F00303032B12D0032B59
S3150800309016D8012B02D0022B06D011E006F04BFD04
S315080030A003900A23029313E0FDF77CFE039009239D
S315080030B002930DE006F043FD03900C23029307E00C
S315080030C00023029341F248110A4806F03CFD00BF6E
S315080030D0019B002B02D0019B039A1A60009B002BD0
S315080030E002D0009B029A1A6000BF05B05DF804FB87
S315080030F00080005000B1000800B585B0019000912D
S31508003100002303931B4BD3F8603103F00303032B0F
S3150800311012D0032B16D8012B02D0022B06D011E0B1
S3150800312006F009FD03900A23029313E0FDF73AFE21
S315080031300390092302930DE006F001FD03900C238A
S31508003140029307E00023029341F276110A4806F03B
S31508003150FAFC00BF019B002B02D0019B039A1A6060
S31508003160009B002B02D0009B029A1A6000BF05B094
S315080031705DF804FB0080005000B1000884B001909F
S3150800318000914FF440130393009B002B0AD1019B37
S315080031900D4A934203D94FF4801303930FE000239B
S315080031A003930CE0009B002B09DD019B074A934221
S315080031B003D94FF48013039301E000230393039B81
S315080031C0184604B0704700BF005A6202002D31014C
S315080031D000B585B001900091184B03F580531A4647
S315080031E04FF4803393660020FEF7A2FB0246019B4C
S315080031F002FB03F30193FEF76DFB03468DF80F30D0
S31508003200FEF77EFBFEF784FB034623F44013029386
S3150800321000990198FFF7B2FF0246029B13430293F7
S315080032200298FEF77BFB9DF80F30002B01D0FEF7C6
S315080032305FFB00BF05B05DF804FB00BF00800050CF
S3150800324000B585B001900091002302931D4BD3F879
S31508003250803103F00303032B0ED0032B1AD8012B5E
S3150800326002D0022B0FD015E002AB00211846FFF75B
S31508003270A3FE1023039315E0FDF724FD03460293EE
S31508003280072303930EE0FDF717FD03460293022377
S31508003290039307E00023039341F267210A4806F0E7
S315080032A052FC00BF019B002B02D0029A019B1A60B8
S315080032B0009B002B02D0009B039A1A6000BF05B042
S315080032C05DF804FB0080005000B1000800B583B02B
S315080032D0022301934FF4C070FEF7B2FC0346074A77
S315080032E0934201D80123019301994FF42070FEF708
S315080032F095FB00BF03B05DF804FB00BF80F0FA023F
S3150800330000B585B001900091002303931B4BD3F8B9
S31508003310403203F00303032B12D0032B16D8012BDC
S3150800332002D0022B06D011E006F005FC03900A2312
S31508003330029313E0FDF736FD0390092302930DE08F
S3150800334006F0FDFB03900C23029307E0002302938B
S315080033504FF497510A4806F0F6FB00BF019B002B75
S3150800336002D0019B039A1A60009B002B02D0009B97
S31508003370029A1A6000BF05B05DF804FB0080005091
S3150800338000B1000800B585B00190009100230393B1
S31508003390224BD3F8003203F00703013B032B25D851
S315080033A001A252F823F000BFB9330008C53300085C
S315080033B0D1330008DD33000806F0BDFB03900A236D
S315080033C002931BE0FDF7EEFC03900923029315E038
S315080033D006F0B5FB03900C2302930FE0FDF72CFCD7
S315080033E003469B0A03930F23029307E000230293E5
S315080033F041F21D310A4806F0A6FB00BF019B002BCF
S3150800340002D0019B039A1A60009B002B02D0009BF6
S31508003410029A1A6000BF05B05DF804FB00800050F0
S3150800342000B1000800B585B0019000910023039310
S31508003430224BD3F8083203F00703013B032B25D8A8
S3150800344001A252F823F000BF593400086534000879
S31508003450713400087D34000806F06DFB03900A23DA
S3150800346002931BE0FDF79EFC03900923029315E0E7
S3150800347006F065FB03900C2302930FE0FDF7DCFBD7
S3150800348003469B0A03930F23029307E00023029344
S3150800349041F251310A4806F056FB00BF019B002B4A
S315080034A002D0019B039A1A60009B002B02D0009B56
S315080034B0029A1A6000BF05B05DF804FB0080005050
S315080034C000B1000800B585B0019000910023039370
S315080034D0114B1B6803F00403002B06D0FDF7ACFB69
S315080034E0034603930D23029305E002AA03AB114694
S315080034F01846FFF7BFFD019B002B02D0039A019BDC
S315080035001A60009B002B02D0029A009B1A6000BF2B
S3150800351005B05DF804FB00BF10E000E000B585B01B
S3150800352003468DF807309DF90730002B03DB9DF91C
S3150800353007304B2B04DD40F21F310E4806F003FB23
S315080035400D4B03939DF907305A09039B53F8222024
S315080035509DF8073003F01F0322FA03F303F0010373
S31508003560002B0CBF01230023DBB2184605B05DF81B
S3150800357004FB00BF4CB1000800E100E0024B034A1F
S315080035801A6400BF704700BF004009503254FFFF5D
S31508003590024B4AF6CD321A6400BF70470040095004
S315080035A082B0019000BF054B5A6B019B1340002B5C
S315080035B0F9D100BF00BF02B0704700BF00400950F4
S315080035C008B500BF0421044806F005FC0346002B95
S315080035D0F8D100BF00BF08BD8440005008B5FFF70A
S315080035E0EFFF044BD3F884309B0903F00303DBB2E7
S315080035F0184608BD0040005000B583B00190019BF5
S315080036001A78054B1A700121002000F06FF800BFE8
S3150800361003B05DF804FB00BFD414002082B001900B
S31508003620064B5B6F23F44072019B5B781B020349D0
S3150800363013434B6700BF02B0704700BF00400050FD
S3150800364000B583B003468DF807300E4B1B690D4A4B
S3150800365043F00403136104F0BBF806F0D7FB30BF50
S3150800366006F0D6FB04F0CCF89DF8073083F001038A
S31508003670DBB2002B01D006F0A9FB00BF03B05DF852
S3150800368004FB00BF00ED00E000B583B003468DF8EB
S3150800369007300C4B1B690B4A43F00403136104F013
S315080036A097F830BF04F0ACF89DF8073083F00103B3
S315080036B0DBB2002B01D006F089FB00BF03B05DF832
S315080036C004FB00BF00ED00E082B00190064BDB6E04
S315080036D023F03003019A12791146034A0B43D36645
S315080036E000BF02B0704700BF0040005000B585B06B
S315080036F001900B468DF80330019B002B03D1FDF793
S3150800370073FA039001E0019B03930D4B1B78002B82
S315080037100AD0039B0B4A934206D89DF803301946F4
S31508003720012000F011F806E09DF803301946022042
S3150800373000F00AF800BF00BF05B05DF804FB00BF43
S31508003740D4140020005A620210B586B003460A4611
S315080037508DF8073013468DF80630FFF73FFF03460E
S315080037601A469DF80730934252D0FDF73DFA059068
S31508003770059B04939DF80730012B0CD1049B264A20
S31508003780934204D940F23C71244806F0DCF9012141
S31508003790059806F0C4FA06F0E8FA0390204B03F5FC
S315080037A000531A464FF0007353669DF807301846C3
S315080037B006F034FB1A4C9DF80730184606F018FB3D
S315080037C0034623670BE0164BD3F8843003F0200337
S315080037D0002B04D040F24A71104806F0B4F9104B99
S315080037E05B6E03F00073002B06D10D4BD3F88430C3
S315080037F003F02003002BE6D0039806F0C2FA9DF8E2
S315080038000730022B05D10021059806F088FA00E05A
S3150800381000BF06B010BD00BF005A620298B100088A
S315080038200040005000B585B003468DF807302B4B95
S3150800383003F580531A464FF000435366284B5B6CDA
S3150800384003F00103002B14BF012300238DF80F306A
S31508003850FFF79EFE9DF80730002B18D10120FFF7D1
S315080038609FFE1F4B5B6803F001030293029B002B2C
S3150800387027D01B4B03F500531A460123536000BF9C
S31508003880174B1B6B03F00103002BF9D019E000BF9F
S31508003890134B1B6B03F00803002BF9D1104B03F5F0
S315080038A000531A46202393620D4B03F580531A469C
S315080038B00123536000BF0A4B9B6A03F02003002BC9
S315080038C0F9D09DF80F30002B01D0FFF757FE06F010
S315080038D0ACFA00BF05B05DF804FB00BF00800050DD
S315080038E00040095000B585B00190254B03F580537B
S315080038F01A464FF000435366224B5B6C03F00103F4
S31508003900002B14BF012300238DF80F30FFF740FE6C
S31508003910019B5B785B001C4A43F00103D3630B20D1
S31508003920FFF73EFE174B5B6823F4F872019B9B7802
S315080039301B01144913434B60019BDB781B02019A58
S31508003940527911460F4A0B439360019B1B791B0260
S31508003950019A927911460B4A0B431361019B1B7816
S315080039601846FFF75FFF9DF80F30002B01D0FFF7D1
S3150800397005FE06F05AFA0123184605B05DF804FB61
S3150800398000800050004009500040005000B585B046
S31508003990019000238DF80F3000238DF80E30019B1F
S315080039A00F2B04D940F6C251224806F0CCF8019BE9
S315080039B00F2B01D90F2301931F4B5B6EDB0F8DF87D
S315080039C00E301D4B03F580531A464FF000435366DD
S315080039D01A4B5B6C03F00103002B14BF0123002371
S315080039E08DF80F30FFF7D4FD8020FFF7D9FD134B74
S315080039F01B6A23F00F021149019B13430B629DF8C2
S31508003A000F30002B01D0FFF7B9FD9DF80E3083F07B
S31508003A100103DBB2002B06D0074B03F500531A4609
S31508003A204FF00043536606F000FA00BF05B05DF894
S31508003A3004FB00BF98B10008008000500040095000
S31508003A4000B583B001900091019B314A934207D09B
S31508003A50019B304A934203D0DF212F4806F073F8C2
S31508003A60009B002B03D1E1212B4806F06CF8009B44
S31508003A705B7B002B19D0009B9B68284A934203D98D
S31508003A80E321254806F05FF8009B1B69002B36D01A
S31508003A90009B1B69DB7B83F00103DBB2002B2ED175
S31508003AA0E6211D4806F04FF829E0009B9B681C4A52
S31508003AB0934203D9E921184806F045F8009B1B698B
S31508003AC0002B1CD0009B1B691B7F002B17D0009B6B
S31508003AD09B68144A934204D9009B1B695B7F042B9D
S31508003AE00DD9009B9B680F4A934204D8009B1B691B
S31508003AF05B7F042B03D8F021074806F024F80099C9
S31508003B00019800F02DFA00BF03B05DF804FB00BF72
S31508003B100000015B00000A50E4B10008002D3101E5
S31508003B20809698003F4B4C0000B585B001900198EF
S31508003B3006F0AFF9042303930BE0019B03F58053CA
S31508003B401A4604231361019B03F500531A460423FE
S31508003B501361039B5A1E0392002BEED1019B202270
S31508003B601A61019B0022DA60019B00229A60019B80
S31508003B7041F202025A61019B00229A61019B0022CE
S31508003B809A65019B4FF4A0225A62019B0022DA61D2
S31508003B90019B00221A62019B00229A62019B002265
S31508003BA0DA62019B00225A63019B00221A65019B77
S31508003BB003F500531A46044BD364019B00221A638B
S31508003BC000BF05B05DF804FBFF3F0D0300B585B0E7
S31508003BD001900B468DF8033000230393019B274A77
S31508003BE0934208D0019B264A934204D040F26511BD
S31508003BF0244805F0A8FF9DF80330002B03D101984F
S31508003C0006F047F936E0019B03F580531A4601236F
S31508003C1053609DF8033003F00F03039340F6FF71DA
S31508003C20019806F00BF9019B039A9A63782101988B
S31508003C3006F004F9002303939DF8033003F001030B
S31508003C40DBB2002B03D0039B43F0010303939DF8DB
S31508003C50033003F00403DBB2002B03D0039B43F0CD
S31508003C600203039300BF019B9B6C03F00303039AB3
S31508003C709A42F8D100BF05B05DF804FB0000015B6D
S31508003C8000000A50E4B1000800B589B0039002911B
S31508003C90019200238DF81F30019B002B04D140F2BE
S31508003CA02321984805F04FFF039B974A934208D073
S31508003CB0039B964A934204D040F22621914805F088
S31508003CC042FF029B002B07D1039800F025F9034613
S31508003CD01846FDF7B5FF0290039B9B6803F00103A6
S31508003CE0002B66D0019A029B9A4204D94FF40C71B4
S31508003CF0844805F028FF00238DF81E30039B5B6877
S31508003D0003F00103012B0CBF012300238DF81730A4
S31508003D10029A019BB2FBF3F3013B0693069BFF2B2A
S31508003D2004D94FF40E71774805F00DFF9DF817304A
S31508003D30002B29D02821039806F080F8039B9B6C5A
S31508003D4003F00303002B03D005238DF81E3018E07B
S31508003D50039B9B6C03F00103002B03D009238DF80A
S31508003D601E300EE0039B9B6C03F00203002B03D06E
S31508003D7006238DF81E3004E040F24521614805F01F
S31508003D80E2FE039806F085F8039B1B6923F07F4241
S31508003D90069B1B061A43039B1A619DF81730002BD6
S31508003DA000F0AB809DF81E3019460398FFF70EFF0A
S31508003DB0A3E0039B5B68012B04D04FF416715148AE
S31508003DC005F0C1FE039B9B6D03F00103002B02D097
S31508003DD0019B5B000193039B9B6803F0E003802B28
S31508003DE049D0802B57D8602B37D0602B53D8402B1F
S31508003DF022D0402B4FD8002B02D0202B0ED04AE0E1
S31508003E00029B1B09019A9A4204D94FF420713D4836
S31508003E1005F099FE10238DF81F3042E0029BDB085F
S31508003E20019A9A4204D940F28521364805F08BFE5C
S31508003E3008238DF81F3034E0029B354AA2FB032382
S31508003E409B08019A9A4204D940F28A212D4805F026
S31508003E507AFE06238DF81F3023E0029B9B08019A01
S31508003E609A4204D940F28F21264805F06CFE0423B5
S31508003E708DF81F3015E0019A13465B001344029A29
S31508003E809A4204D24FF425711E4805F05CFE0123C0
S31508003E908DF81F3005E040F29A211A4805F053FEC6
S31508003EA000BF9DF81F30002B27D0029B5A019DF8B2
S31508003EB01F30019901FB03F3B2FBF3F30693069B4C
S31508003EC0203B0693069BDB000693069B114A93420A
S31508003ED004D940F2A5210B4805F035FE069A0D4B8C
S31508003EE0134006930121039805F0A8FF039B069A41
S31508003EF01A630121039805F0A1FF00BF09B05DF818
S31508003F0004FB00BFE4B100080000015B00000A5092
S31508003F10ABAAAAAAF8FF7F0000B585B00190019B5D
S31508003F200C4A934202D1562303930DE0019B0A4A99
S31508003F30934202D15723039306E040F275310748AE
S31508003F4005F001FE002300E0039B184605B05DF866
S31508003F5004FB00BF0000015B00000A50E4B1000842
S31508003F6000B585B001900091009B1B690393019BE6
S31508003F705B68002B04D040F6FF71019805F05EFFE0
S31508003F800198FFF7D1FD019B1B6923F08703009A6F
S31508003F90527B1343009A927B134343F08002019BA2
S31508003FA01A61039B002B37D0019B1B6923F0F8038A
S31508003FB0009A1269127FD2011343009A1269127984
S31508003FC052011343009A1269527A12011343009A56
S31508003FD0126912781343009A1269D27B92011A4326
S31508003FE0019B1A61019BDB6823F0F04323F47023DD
S31508003FF0009A126952691A43009B1B699B6913430D
S31508004000009A1269127B92021343009A1269527B34
S31508004010D2031A43019BDA60019B9B6823F00303D2
S31508004020009AD27B134343F00102019B9A60039BDB
S31508004030002B36D0019B9A68009B1B695B8803F4AA
S31508004040C0431A43019B9A60019B9A68009B1B69AF
S315080040505B799B021A43019B9A60019B5B6A23F476
S31508004060772323F4EE63009A12699279120102F01B
S3150800407070021A43009B1B69DB791B0203F4E06399
S315080040801A43009B1B691B7A1B0303F4E0431A437C
S31508004090009B1B695B7F1B0403F470231A43019B77
S315080040A05A62019B5B6923F00F03009A127B1A433D
S315080040B0019B5A61039B002B44D0009B1B695B89BB
S315080040C01A46019B9A61009B1B695B7B002B1AD0E1
S315080040D0019B304A934208D1009B1B699B7B2E4A61
S315080040E003F00F0302F580525367019B2B4A934254
S315080040F009D1009B1B699B7B274A03F00F0302F536
S315080041008052C2F88030009B1B69DB7B002B19D0DC
S31508004110019B204A934208D1009B1B691B7C1E4ABF
S3150800412003F00F0302F580521367019B1B4A934263
S3150800413008D1009B1B691B7C174A03F00F0302F585
S315080041408052D367009B5968009B9B681A46019862
S31508004150FFF79AFD05210198FFF738FD28210198F8
S3150800416005F06CFE009B1B781A46019B9A63282172
S31508004170019805F063FE00BF019805F058FE034656
S31508004180DB4303F44053002BF6D100BF00BF05B054
S315080041905DF804FB0000015B0080035000000A5034
S315080041A000B583B0034600918DF807309DF80730B7
S315080041B0002B14D09DF80730012B0ED09DF8073040
S315080041C0022B07D09DF80730032B01D13F2308E0C7
S315080041D0002306E040F2FF3303E03F2301E040F20C
S315080041E0FF33009AD34003F00103002B04D140F2B9
S315080041F0FE310A4805F0A7FC09489DF80720012169
S31508004200009B994013465B0013441B01034403F5C6
S315080042100153196000BF03B05DF804FB80B20008C3
S3150800422000C0035000B583B0034600918DF80730EF
S315080042309DF80730002B14D09DF80730012B0ED0BF
S315080042409DF80730022B07D09DF80730032B01D1C4
S315080042503F2308E0002306E040F2FF3303E03F2354
S3150800426001E040F2FF33009AD34003F00103002B2C
S3150800427004D140F22D410A4805F065FC09489DF82D
S3150800428007200121009B994013465B0013441B013C
S31508004290034403F58253196000BF03B05DF804FBBD
S315080042A080B2000800C0035000B585B002910192A3
S315080042B0009303468DF80F309DF80F30002B14D06D
S315080042C09DF80F30012B0ED09DF80F30022B07D02A
S315080042D09DF80F30032B01D13F2308E0002306E0A9
S315080042E040F2FF3303E03F2301E040F2FF33029A36
S315080042F0D34003F00103002B04D14FF4B0713148C9
S3150800430005F021FC019B002B0FD0009B002B06D04B
S315080043109DF80F3002991846FFF784FF05E09DF8CF
S315080043200F3002991846FFF73BFF029B072B17D859
S315080043309DF80F2013465B0013441B011A1D224BE0
S315080043401344029A92000F2101FA02F0029A92008F
S31508004350019901FA02F20146184605F0CEFD19E068
S315080043609DF80F2013465B0013441B0103F10C0252
S31508004370154B1344029A083A92000F2101FA02F0EB
S31508004380029A083A9200019901FA02F20146184681
S3150800439005F0B3FD019B002B0FD1009B002B06D027
S315080043A09DF80F3002991846FFF73CFF05E09DF887
S315080043B00F3002991846FFF7F3FE00BF05B05DF807
S315080043C004FB00BFCCB2000830C0035000B587B06C
S315080043D0039002910192029B1F2B03D991210C484D
S315080043E005F0B1FB019B002B04D0039B03F580531A
S315080043F0059303E0039B03F500530593059B0121F1
S31508004400029A01FA02F21A6000BF07B05DF804FBCF
S3150800441018B3000800B589B00390029101928DF88F
S315080044200330019B002B04D140F20F115B4805F0C5
S315080044308AFB019B002B00F0AD809DF8033003F04A
S3150800444003038DF80330039B9B6823F44072039B98
S315080044509A60039B03F108009DF803301B021A4675
S315080044604FF4407105F074FD029B002B16D1039B97
S31508004470B3F1B64F04D12E20FDF7E2FB02900DE012
S31508004480039B474A934204D12F20FDF7D9FB02909C
S3150800449004E040F22911414805F055FB4FF0FF337F
S315080044A00793039B9B6803F00203002B13D09DF828
S315080044B00330022B0CD0022B21DC002B02D0012B5F
S315080044C003D01CE0374B07931CE0374B079319E0E2
S315080044D0364B079316E09DF80330022B0CD0022BBF
S315080044E00FDC002B02D0012B03D00AE02D4B0793DB
S315080044F008E02F4B079305E02E4B079302E000BF19
S3150800450000E000BF029A079B9A4204D84FF4AF71A5
S31508004510224805F018FB9DF80330274AD35C05931B
S31508004520059B019A02FB03F30493049B002B05D118
S3150800453040F26F11194805F006FB2CE0019BDB00E1
S31508004540029AD21A049B13445A1E049BB2FBF3F335
S31508004550013B0693069B002B04DA40F275110F48BF
S3150800456005F0F1FA069BB3F5007F04D34FF4BB714F
S315080045700A4805F0E8FA039B9B6803F00203002B40
S3150800458004D0069B002B01D101230693069A039BB0
S315080045909A6100E000BF09B05DF804FB64B3000847
S315080045A00080065080841E00404B4C00809FD5003A
S315080045B040548900002D3101B0B3000800B583B01E
S315080045C001900B468DF80330019BB3F1B64F08D026
S315080045D0019B0A4A934204D040F28F11084805F01D
S315080045E0B2FA019B04339DF8032000211846FFF711
S315080045F0EDFE00BF03B05DF804FB00BF0080065067
S3150800460064B3000800B583B001900091019BB3F133
S31508004610B64F08D0019B174A934204D04FF4D27183
S31508004620154805F090FA019B00221A64134901986F
S3150800463005F082FC019B03F10800009B5B7883F080
S315080046400103DBB21A460121FFF7C0FE009B596839
S31508004650009B9A68009B1B7B0198FFF7DBFE009B7B
S315080046601B7819460198FFF7A9FF00BF03B05DF84C
S3150800467004FB00BF0080065064B30008FFFF1F005C
S3150800468000B58BB0019000238DF81F30019BB3F164
S31508004690B64F08D0019BA04A934204D040F2FB11C2
S315080046A09E4805F050FA019BB3F1B64F02D19C4BD8
S315080046B0089309E0019B984A934202D1994B0893C3
S315080046C002E06FF003033BE2089B9B6806931AE23D
S315080046D0019BDB6B0593059B03F4C063002B14D089
S315080046E0059B03F40073002B03D0089BFD225A7028
S315080046F007E0059B03F48063002B02D0089BFE228B
S315080047005A70089B09221A7005E2089B1B78082B29
S3150800471000F2EF8101A252F823F000BF41470008DA
S31508004720994700082948000885480008F348000802
S315080047305F490008F34900083B4A0008D14A0008C7
S31508004740069B5B8803F01003002B09D0069B1B8889
S315080047501B0A9BB203F0060343F0F00309930EE02D
S31508004760069B1B8803F0FE030993069B5B8803F0F0
S315080047700203002B03D0099B43F001030993089B0E
S3150800478001221A70019B099A5A63019B0122DA6079
S3150800479001238DF81F30B6E1059B03F08003002B3B
S315080047A00DD08021019805F0C7FB089BFF225A709F
S315080047B0089B08221A70019B0222DA6030E0059BEA
S315080047C003F04003002B2BD04021019805F0B4FBE1
S315080047D0069B5B8803F01003002B08D0089B022277
S315080047E01A70069B1B88DAB2019B5A6318E0069B6F
S315080047F05B8803F00203002B0ED0089B07221A7071
S31508004800089B1B79069ADB0013441B89012B07D1E9
S31508004810019B0822DA6003E0089B05221A7072E100
S3150800482001238DF81F306EE1059B03F08003002BF2
S315080048300DD08021019805F07FFB089BFF225A7056
S31508004840089B08221A70019B0222DA6016E0059B73
S3150800485003F04003002B11D04021019805F06CFBB2
S31508004860069B5B8803F00203002B03D0089B0322F8
S315080048701A7048E1089B05221A7044E101238DF855
S315080048801F3040E1069B5B8803F01003002B09D01C
S31508004890069B1B881B0A9BB203F0060343F0F00332
S315080048A0099304E0069B1B8803F0FE030993069B05
S315080048B05B8803F00403002B0ED0099B43F0010329
S315080048C00993089B1B79069ADB0013441B89012B65
S315080048D002D1019B0822DA60089B04221A70019B08
S315080048E00122DA60019B099A5A6301238DF81F3069
S315080048F009E1059B03F08003002B15D08021019860
S3150800490005F01AFB089BFF225A70089B08221A70AA
S31508004910019B0222DA601EE00080065064B300089C
S31508004920D8140020E4140020059B03F04003002B54
S3150800493011D04021019805F0FFFA069B5B8803F029
S315080049400403002B03D0089B07221A7003E0089B78
S3150800495005221A70D7E001238DF81F30D3E0089B93
S315080049605A88089B1B790699DB000B441B899A42D7
S3150800497027D3089B00225A80089B1B790133DAB299
S31508004980089B1A71069B5B8803F00403002B03D06F
S31508004990089B03221A70B6E0069B5B8803F00103A6
S315080049A0002B04D1089B1B79012B40F2AC80089B95
S315080049B008221A70019B0222DA6001238DF81F3043
S315080049C0A1E0089B1B79069ADB0013445A68089BEA
S315080049D05B88591C88B20899488013441B781A4684
S315080049E0019B5A63089B06221A7001238DF81F3013
S315080049F089E0059B03F08003002B0DD080210198E8
S31508004A0005F09AFA089BFF225A70089B08221A702A
S31508004A10019B0222DA600CE0059B03F04003002BA1
S31508004A2007D04021019805F087FA089B05221A70DD
S31508004A3069E001238DF81F3065E0059B03F020032C
S31508004A40002B41D0089B1B79069ADB0013441B896F
S31508004A500493019B5B6A8DF80F302021019805F0BD
S31508004A606BFA089B5B881A46049B93420FD9089BEE
S31508004A701B79069ADB0013445A68089B5B88591C05
S31508004A8088B20899488013449DF80F201A70089B2D
S31508004A905B881A46049B934206D8089B08221A701C
S31508004AA0019B0222DA600FE0019B0422DA60049B74
S31508004AB0012B09D9089B5B881A46049B013B9A423D
S31508004AC002D1019B0822DA6001238DF81F301AE013
S31508004AD0059B03F48073002B07D04FF4807101986F
S31508004AE005F02AFA089B09221A7001238DF81F304F
S31508004AF009E0089BFB225A70089B09221A700123B9
S31508004B008DF81F3000BF9DF81F3083F00103DBB21C
S31508004B10002B7FF4DDAD089B1B78092B0BD1019B7D
S31508004B2000221A64089B93F90130012B05D1089BD2
S31508004B3000225A7001E0012302E0089B93F9013034
S31508004B4018460BB05DF804FB00B585B001900091DE
S31508004B50019BB3F1B64F08D0019B344A934204D067
S31508004B6040F25E31324804F0EEFF009B002B04D180
S31508004B7040F25F312E4804F0E6FF019BB3F1B64FD1
S31508004B8002D12C4B039309E0019B284A934202D198
S31508004B90294B039302E06FF0030342E0019B1B6974
S31508004BA003F00103002B02D0019B2022DA60009B50
S31508004BB05B8803F00203002B03D0009B1B89002BA4
S31508004BC009D0009B5B8803F00403002B06D0009BEA
S31508004BD01B8A002B02D16FF0030322E0039B0022FD
S31508004BE01A70039B01225A70039B00225A80039B6A
S31508004BF000221A71039B009A9A60019BC022DA6010
S31508004C00019805F0BFF90D49019805F095F9019B42
S31508004C101B6C43F4FC62019B1A640198FFF730FD94
S31508004C200346184605B05DF804FB00BF0080065031
S31508004C3064B30008D8140020E4140020FFFF1F0006
S31508004C4082B003468DF807309DF90730002B0CDB40
S31508004C509DF8073003F01F0205499DF907305B09E7
S31508004C60012000FA02F241F8232000BF02B0704783
S31508004C7000E100E082B003468DF807309DF9073061
S31508004C80002B13DB9DF8073003F01F0209499DF935
S31508004C9007305B09012000FA02F2203341F823208D
S31508004CA0BFF34F8F00BFBFF36F8F00BF00BF02B0C7
S31508004CB0704700BF00E100E082B003468DF8073078
S31508004CC09DF90730002B0DDB9DF8073003F01F0216
S31508004CD006499DF907305B09012000FA02F26033A4
S31508004CE041F8232000BF02B0704700BF00E100E092
S31508004CF082B0034600918DF807309DF90730002BE6
S31508004D000ADB009BDAB20C499DF907301201D2B2D0
S31508004D100B4483F800230BE0009BDAB207499DF8A1
S31508004D20073003F00F03043B1201D2B20B441A7684
S31508004D3000BF02B0704700BF00E100E000ED00E0F0
S31508004D4000B587B0039002910192029B1F2B03D9ED
S31508004D5091210C4804F0F7FE019B002B04D0039B1D
S31508004D6003F58053059303E0039B03F5005305936E
S31508004D70059B0121029A01FA02F21A6000BF07B0E8
S31508004D805DF804FBB4B3000808B51520FFF772FFF9
S31508004D90094B00225A65084BFF229A62064B0022ED
S31508004DA05A6000212020FCF711FF00212120FCF782
S31508004DB00DFF00BF08BD00BF0000045000B583B05A
S31508004DC001900B468DF80330019B072B03DD7721F5
S31508004DD0084804F0B8FE01999DF8033083F00103F2
S31508004DE0DBB21A460448FFF7ABFF00BF03B05DF815
S31508004DF004FB00BF00B400084000045000B585B0AD
S31508004E000190019B002B03D19121354804F09BFEAC
S31508004E10019B1B781B0623F0F853002B03D0922125
S31508004E202F4804F090FE019B5B781B0423F47F0354
S31508004E30002B03D09D212A4804F085FE019B9B7810
S31508004E4023F0FF03002B03D09F21254804F07BFEA7
S31508004E50019BDB780F2B03D9A321214804F073FEAD
S31508004E6001212020FCF7B2FE01212120FCF7AEFE2D
S31508004E701C4B01225A60019B1B781B060393194A97
S31508004E80039B9360019B5B781B04019A92781146F9
S31508004E90144A0B439361134BFF229A62114B00226B
S31508004EA09A63104B00221A640E4B4FF000425A6563
S31508004EB00C4B03F500531A464FF0FF3313651520C4
S31508004EC0FFF7FAFE019BDB7819461520FFF710FF5E
S31508004ED01520FFF7B5FE00BF05B05DF804FB00BF5F
S31508004EE000B400080000045000B587B00390029192
S31508004EF00192039BDBB21A46012393400593039B59
S31508004F00072B03DDEC21764804F01DFE029B002BDF
S31508004F1003D1ED21724804F016FE029B1B6823F4A8
S31508004F207C1323F00F03002B03D0F0216C4804F008
S31508004F300AFE029B1B791B0423F47F03002B03D074
S31508004F40F621674804F0FFFD029B5B791B0423F4F6
S31508004F507F03002B03D0F821614804F0F4FD029B7F
S31508004F609B7923F0FF03002B03D0FA215C4804F059
S31508004F70EAFD029BDB7923F0FF03002B03D0FC211B
S31508004F80574804F0E0FD029B9B7A1B0423F4403348
S31508004F90002B04D040F20911514804F0D4FD029BBD
S31508004FA0DB7A1B0523F48013002B04D040F20B1187
S31508004FB04B4804F0C8FD029B1B7B5B0523F40013DA
S31508004FC0002B04D040F20D11454804F0BCFD029BAD
S31508004FD05B7B23F0FF03002B04D040F20F114048FF
S31508004FE004F0B1FD3F4B03F500531A46059B1365C4
S31508004FF03D49029B1A68039B9B000B445A60029B1F
S315080050005B7B38491846039A13465B0013441B0119
S315080050100B4460331860029B9B7A1A04029BDB7A66
S315080050201B051A43029B1B7B5B0513432D49184638
S31508005030039A13465B0013441B010B445C33186048
S31508005040019B284823F00301039A13465B00134487
S315080050501B0103447033196004F09DFE0490214B34
S315080050605A6D2049059B13434B65029B1B7A002BFF
S3150800507005D01C4B1A6C1B49059B13430B64029BFA
S315080050805B7A002B05D0174B9A6B1649059B134381
S315080050908B63029B1B791B04029A92791343114A6C
S315080050A003F0FF1302F500529361029B5B791B0420
S315080050B0029AD27913430B4A03F0FF1302F5805282
S315080050C093610599094804F071FF064A059B9364A4
S315080050D0049804F070FE00BF07B05DF804FB00BF3B
S315080050E000B4000800000450004004503400045086
S315080050F000B585B00190019BDBB21A4601239340A7
S315080051000393019B072B04DD40F297110B4804F02B
S315080051101AFD04F040FE0290094B5A6D039BDB43CF
S31508005120074913404B65064A039B9362029804F0AD
S3150800513042FE00BF05B05DF804FB00BF00B40008DE
S315080051400000045000B587B0019000238DF8173091
S31508005150019BDBB21A46012393400493019B072B5C
S3150800516004DD40F2B5110F4804F0EDFC04F013FE1F
S3150800517003900D4BDA6A049B1340002B09D10A4BA6
S315080051805A6B049B1340049A9A4202D101238DF864
S315080051901730039804F00FFE9DF81730184607B02D
S315080051A05DF804FB00B400080000045082B00190CA
S315080051B0019B0E4A93420FD0019B0D4A93420BD096
S315080051C0019B0C4A934207D0019B0B4A934203D09A
S315080051D0019B0A4A934201D1012300E0002303F010
S315080051E00103DBB2184602B0704700BF00800450C6
S315080051F000C00450000005500040055000800550CE
S3150800520000B585B0019000910198FFF7CFFF0346DE
S31508005210002B03D1A521454804F095FC00230393F0
S31508005220019804F0D0FE019B03F500531A460123AA
S31508005230136300BF019B1B6B03F00203002BF9D11C
S31508005240009B5B889A04009B1B791B021343009AF8
S31508005250527A1343009A5278002A01D0402200E07D
S3150800526000221343009A927A002A01D0802200E095
S3150800527000221343009AD27A002A01D0202200E0A5
S3150800528000221343009A127B002A01D0102200E064
S3150800529000221343009A527B002A01D0082200E01C
S315080052A000221343009A927B002A02D04FF4006230
S315080052B000E000221343009A9279002A02D04FF4A4
S315080052C0803200E000221A43019B5A60019B03F5D5
S315080052D080531A4601231363009B1B7883F001034E
S315080052E0DBB2002B02D0019B0222DA60019B00226E
S315080052F05A62009BDB799B00009A127A1343009A44
S315080053005279002A01D0102200E0002213430393A9
S31508005310019B039A9A60009B1B78002B02D0019B85
S315080053200122DA6000BF05B05DF804FB80B400080E
S3150800533082B001900B468DF80330019B084A9342D0
S3150800534004D1084A9DF80330C2F8C831019BDB6DC9
S3150800535043F08002019BDA6500BF02B0704700BFC8
S3150800536000C005500080035000B587B00390029135
S3150800537001928DF8033000230593019B002B04D17D
S315080053804FF4A171484804F0DEFB029B002B04D1C0
S315080053904FF42070FCF754FC02909DF80330602B04
S315080053A034D0602B3FDC402B20D0402B3BDC002B3D
S315080053B002D0202B0DD036E0029B1B09019A9A4297
S315080053C004D94FF4BA71384804F0BDFB102305938D
S315080053D02FE0029BDB08019A9A4204D940F2791120
S315080053E0314804F0B0FB0823059322E0029B2F4ABC
S315080053F0A2FB03239B08019A9A4204D94FF4BF7172
S31508005400294804F0A0FB0623059312E0029B9B089B
S31508005410019A9A4204D940F28311234804F093FB77
S315080054200423059305E040F289111F4804F08BFB1D
S3150800543000BF059B002B33D0029B5A01059B01999F
S3150800544001FB03F35B0813440493059B019A02FBD3
S3150800545003F3049AB2FBF3F30493049B203B0493EF
S31508005460049BDB000493049B114A934204D94FF42E
S31508005470D0710D4804F067FB049A0D4B1340049352
S31508005480039B9B6823F06002039B9A60039B9A68C0
S315080054909DF803301A43039B9A60039B049ADA61CA
S315080054A000BF07B05DF804FBD0B40008ABAAAAAAEF
S315080054B0F8FF7F0000B585B001900B468DF80330E4
S315080054C0019B164A934204D04FF43371144804F0F2
S315080054D03AFB019B03F580531A46012353609DF856
S315080054E00330DB430393039B03F005030393039BFA
S315080054F05A00019B5A619DF80320019B5A619DF849
