:020000040800F2
:100000000010002039080008019000080190000845
:10001000019000080190000801900008019000087C
:10002000019000080190000801900008019000086C
:10003000019000080190000801900008019000085C
:10004000019000080190000801900008019000084C
:1000500075790008019000080190000801900008DF
:1000600001900008310700082107000801900008EE
:10007000019000080190000801900008019000081C
:10008000019000080190000801900008019000080C
:10009000019000084110000801900008019000083C
:1000A0000190000801900008AD7900080190000857
:1000B00001900008019000080190000801900008DC
:1000C00001900008019000080190000801900008CC
:1000D00001900008019000080190000801900008BC
:1000E00001900008019000080190000801900008AC
:1000F0007793000801900008019000080190000823
:10010000019000080190000801900008019000088B
:10011000019000080190000801900008019000087B
:10012000019000080190000801900008019000086B
:10013000019000080190000801900008019000085B
:10014000019000080190000801900008AF9B000892
:10015000019000080190000801900008019000083B
:10016000019000080190000801900008019000082B
:1001700010B5054C237833B9044B13B1044800E0A3
:1001800000BF0123237010BD941000200000000068
:10019000F4AA000808B5034B1BB10349034800E06B
:1001A00000BF08BD0000000098100020F4AA00085D
:1001B000A3F5803A704700BF174B002B08BF134BC5
:1001C0009D46FFF7F5FF00218B460F461348144A62
:1001D000121A09F085FE0E4B002B00D098470D4BEC
:1001E000002B00D098470020002104000D000D488E
:1001F000002802D00C4800E000BF07F0E9FE200014
:10020000290008F03CFE07F0CFFE00BF0000080008
:1002100000000000000000000010002094100020EA
:10022000A4130020000000000000000000B583B00F
:10023000012008F00FFE07F0EFFC07F03DFB0B4B31
:1002400000221A7009F010FD09F055FD09F044FD77
:100250000DF1070301221946302009F06DFD044B12
:1002600000221A7000BF03B05DF804FB8613002063
:100270008713002010B586B000238DF817307D4B12
:100280001B78002B00F0D58004AB062219463220E3
:1002900009F052FD03468DF817309DF81730002BFA
:1002A00000F0828008F0A8FE08F0A8FE724B1C68DF
:1002B00009F0EEFD0246714B0093714B71492046E7
:1002C00009F0D8F808F098FE08F098FE6A4B1C6810
:1002D00009F0DEFD02469DF810300193674B009354
:1002E000674B6949204609F0C5F808F085FE08F01B
:1002F00085FE614B1C6809F0CBFD02469DF811306C
:1003000001935E4B00935E4B6049204609F0B2F8C2
:1003100008F072FE08F072FE574B1C6809F0B8FD39
:1003200002469DF812300193544B0093544B5849A8
:10033000204609F09FF808F05FFE08F05FFE4E4B84
:100340001C6809F0A5FD02469DF8133001934B4B44
:1003500000934B4B4F49204609F08CF808F04CFEB7
:1003600008F04CFE444B1C6809F092FD02469DF8D3
:1003700014300193414B0093414B4749204609F00B
:1003800079F808F039FE08F039FE3B4B1C6809F09B
:100390007FFD02469DF815300193384B0093384B92
:1003A0003E49204609F066F80DF10F030122194677
:1003B0002D2009F0C1FC03468DF817309DF8173049
:1003C000002B12D008F018FE08F018FE2A4B1C680B
:1003D00009F05EFD02469DF80F300193274B009314
:1003E000274B2F49204609F045F80DF10E03012255
:1003F00019462C2009F0A0FC03468DF817309DF813
:100400001730002B12D008F0F7FD08F0F7FD1A4B5B
:100410001C6809F03DFD02469DF80E300193174B14
:100420000093174B1F49204609F024F8114B002276
:100430001A701D4B1B78002B19D01B4B00221A7011
:100440000DF10D0301221946302009F075FC08F06A
:10045000D3FD08F0D3FD084B1C6809F019FD0246D6
:10046000064B0093064B1149204609F003F800BFE4
:1004700006B010BD8713002050110020D0A2000844
:1004800098A10008A0A10008C8A10008E0A10008E8
:10049000F8A1000810A2000828A2000840A2000845
:1004A00058A2000880A2000886130020A4A2000819
:1004B00008B501F085FE08F00BFE304B1B6F23F0F2
:1004C00007032E4A43F00303136708F00EFE2C4B7C
:1004D0009B6A03F08073002B06D1294B03F5005370
:1004E0001A464FF480339362244BD3F8203123F023
:1004F0000703224A43F00203C2F820311F4BD3F80E
:10050000283123F007031D4A43F00203C2F82831C3
:100510001A4BD3F8403123F00303184A43F0020387
:10052000C2F84031154BD3F8603123F00303134A6E
:1005300043F00203C2F86031104BD3F8403223F08D
:1005400003030E4A43F00203C2F840320B4BD3F8C8
:10055000003223F00703094A43F00203C2F80032D5
:10056000064BD3F8083223F00703044A43F0020392
:10057000C2F808320023184608BD00BF00800050B2
:100580000040005A00B583B0034600918DF8073053
:100590009DF80730002B14D09DF80730012B0ED0AA
:1005A0009DF80730022B07D09DF80730032B01D1AF
:1005B0003F2308E0002306E040F2FF3303E03F233F
:1005C00001E040F2FF33009AD34003F00103002B17
:1005D00004D14FF483610B4808F01EFD9DF80720FD
:1005E00013465B0013441B0103F11002064B134436
:1005F0000099184608F087FC0346184603B05DF8DA
:1006000004FB00BFE4A2000830C0035030B599B02D
:100610002F4B10AC1D460FCD0FC495E8070084E8A2
:1006200007004FF4E13312930023ADF84E304FF43E
:100630008053ADF8503000238DF859300BAB0022B9
:100640001A605A609A60DA601A61224B0B93292370
:100650000C9304238DF8353005238DF837301E4A6E
:1006600009AB92E8030083E8030003AB00221A60A1
:100670005A609A60DA601A615A6103AB09AA92E87B
:10068000030083E8030009238DF814300A238DF852
:100690001530124B06932023079301238DF8213048
:1006A00000238DF822300BAB10AA03A90C48009050
:1006B0000C4805F091FB1790179B002B03D0852168
:1006C000094808F0A9FC179B184619B030BD00BFB7
:1006D00068A3000800C0055084A300083011002062
:1006E000DC100020B810002038A3000800B583B04B
:1006F0000849094805F02AFFFFF788FF0190019B90
:10070000002B03D09721054808F086FC00BF03B0FA
:100710005DF804FB00100020B010002038A3000892
:1007200008B5024805F098FC00BF08BDB8100020CD
:1007300008B5024805F090FC00BF08BDB8100020C5
:1007400008B5034808F0ECFB0346184608BD00BF97
:10075000B810002000B585B003460A468DF8073072
:1007600013468DF806309DF80730022B03D09DF814
:100770000730032B13D19DF80630012B03D09DF8D1
:100780000630002B0BD104210020FFF7FBFE039065
:10079000039B04220421002003F008F81AE09DF8CE
:1007A0000630022B03D09DF80630032B12D19DF8A2
:1007B0000730012B03D09DF80730002B0AD104210C
:1007C0000020FFF7DFFE0390039B0022042100209E
:1007D00002F0ECFF9DF80630012B07D8054B5B6A51
:1007E000054A1268126801211046984700BF05B0FB
:1007F0005DF804FBDC1000200810002008B5094B50
:1008000001221A70084B00221A70084B04221A7039
:10081000074B1F221A7004F03BFE0346054A136083
:1008200000BF08BD8610002088130020871000201C
:10083000881000205011002000B585B000F07EF82F
:100840001F4B039319E0002302930EE0039B1A68E9
:10085000029B9B001A44039B5968029B9B000B441C
:1008600012681A60029B01330293039B9B68029AF1
:100870009A42EBD3039B0C330393039B114A93429D
:10088000E1D3114B019314E00023009309E0019B95
:100890001A68009B9B00134400221A60009B0133DE
:1008A0000093019B5B68009A9A42F0D3019B083346
:1008B0000193019B054A9342E6D3FFF77DFC00BFFD
:1008C000FCAA000808AB000808AB000808AB000849
:1008D00082B003468DF807309DF90730002B0CDB02
:1008E0009DF8073003F01F0205499DF907305B09A9
:1008F000012000FA02F241F8232000BF02B0704745
:1009000000E100E082B003468DF807309DF9073022
:10091000002B0DDB9DF8073003F01F0206499DF9FF
:1009200007305B09012000FA02F2603341F823200E
:1009300000BF02B0704700BF00E100E008B51D4BEA
:100940001D4A9A601B4BD3F888301A4A43F470034F
:10095000C2F88830194B03F580531A464FF4804390
:100960009366174B03F500531A464FF0FF33136697
:10097000134B03F500531A46124B5366124B0222D7
:100980001A60BFF34F8F00BFBFF36F8F00BF00200F
:10099000FFF7B8FF0A4B03F500531A464FF44033F4
:1009A000D3600020FFF794FF054B4FF440321A61EB
:1009B00000BF08BD00ED00E000000008008000500E
:1009C00000800044F7FF3700D0ED00E0014B1B68CA
:1009D000184670471410002000B583B0002301931F
:1009E0000E4B1B6F03F00703032B09D0032B0ED80C
:1009F000012B09D0022B0AD1FFF7E8FF019007E095
:100A0000074B1B68019303E0064B019300E0FEE7F0
:100A1000019B184603B05DF804FB00BF0080005046
:100A20000C100020002D310100B583B0FFF7D4FF7A
:100A300001900A4B1B6F1B0B03F00F030093009BED
:100A40000133019AB2FBF3F30193054A019B136052
:100A5000019B184603B05DF804FB00BF0080005006
:100A600018100020014B1846704700BF00B4C404A2
:100A7000014B1B68184670470C10002000B583B06E
:100A80000190074A019B1360064B1B6F03F007039D
:100A9000032B01D1FFF7C8FF00BF03B05DF804FBD3
:100AA0000C10002000800050014B1846704700BF1A
:100AB000002D310182B0002301934FF0B4439B68B5
:100AC0001B0C03F01F030C2B4CD801A252F823F08F
:100AD000050B0008650B0008650B0008650B000896
:100AE000650B0008650B0008410B0008470B000868
:100AF0004D0B0008650B0008530B0008590B00084C
:100B00005F0B00084FF0B4439B6803F04073B3F1F0
:100B1000007F0ED0B3F1007F0ED8002B03D0B3F1CD
:100B2000807F03D008E0124B019308E0114B019342
:100B300005E0114B019302E00023019300BF12E096
:100B40000E4B01930FE00E4B01930CE00D4B019304
:100B500009E00D4B019306E00C4B019303E00C4BB5
:100B6000019300E000BF019B184602B0704700BF30
:100B700000093D0080841E0040420F00405DC60019
:100B80000024F400C0EA210180BA8C010048E80189
:100B9000005A6202014B1B68184670471010002073
:100BA00000B583B001900091009B002B02D0019B07
:100BB000002B03D13721074808F02EFA019B1A6851
:100BC000009B1A60019B009A1A6000BF03B05DF899
:100BD00004FB00BF8CA3000884B001900B4B1A6883
:100BE000019B13440A4A934202D94FF0FF3309E0B4
:100BF000064B1B680393054B1A68019B1344034A79
:100C00001360039B184604B0704700BF1C100020FF
:100C10000000042000B585B001900091204B1B78A6
:100C200083F00103DBB2002B01D01E4B34E0019BAB
:100C3000002B01D11C4B2FE008F0AAFA02900023F0
:100C4000039322E0194A039B1B0113440C331B78C6
:100C500083F00103DBB2002B14D0039A019B1A60CE
:100C6000124A039B1B0113440C3301221A700F4AD2
:100C7000039B1B01134400221A60029808F098FAA3
:100C8000002309E0039B01330393039B072BD9DD6A
:100C9000029808F08DFA064B184605B05DF804FB83
:100CA00089130020028000F0018000F05411002020
:100CB000048000F000B585B000238DF80B3008F0FB
:100CC00067FA0190002303930EE0154A039B1B0172
:100CD00013440C331B78002B03D001238DF80B3009
:100CE00005E0039B01330393039B072BEDDD9DF888
:100CF0000B3083F00103DBB2002B09D003F0C6FAFE
:100D0000084B00221A70019808F052FA002303E001
:100D1000019808F04DFA044B184605B05DF804FB45
:100D20005411002089130020058000F000B585B023
:100D30000190164B1B7883F00103DBB2002B01D02E
:100D4000134B1FE0019B072B01D9124B1AE008F04F
:100D50001FFA0390104A019B1B0113440C331B78AC
:100D6000002B0BD00C4A019B1B0113440C330022B7
:100D70001A70039808F01CFA002303E0039808F0A7
:100D800017FA064B184605B05DF804FB89130020DE
:100D9000028000F0018000F054110020068000F075
:100DA00000B585B0194B1B68019300238DF8043002
:100DB00008F0EEF90290164B1B78002B04D0029835
:100DC00008F0F6F9134B1DE0114B01221A7002983E
:100DD00008F0EEF90023039309E00F4A039B1B017F
:100DE00013440C3300221A70039B01330393039BBB
:100DF000072BF2DD08238DF8073001AB184603F00E
:100E00007FFA0023184605B05DF804FBDCA3000858
:100E100089130020038000F05411002000B583B036
:100E20000190124B1B7883F00103DBB2002B01D041
:100E30000F4B17E0019B072B01D90E4B12E00E4A16
:100E4000019B1B0113440C331B7883F00103DBB2BD
:100E5000002B01D0094B05E0019B0021184603F04F
:100E60002FFA0023184603B05DF804FB8913002015
:100E7000028000F0018000F054110020078000F093
:100E800000B583B00190124B1B7883F00103DBB2F5
:100E9000002B01D00F4B17E0019B072B01D90E4B04
:100EA00012E00E4A019B1B0113440C331B7883F0A4
:100EB0000103DBB2002B01D0094B05E0019B0121AE
:100EC000184603F0FDF90023184603B05DF804FB53
:100ED00089130020028000F0018000F054110020EE
:100EE000078000F000B583B00190124B1B7883F0AF
:100EF0000103DBB2002B01D00F4B16E0019B072B47
:100F000001D90E4B11E00E4A019B1B0113440C3317
:100F10001B7883F00103DBB2002B01D0094B04E006
:100F2000019B184603F066FB0023184603B05DF8EA
:100F300004FB00BF89130020028000F0018000F054
:100F400054110020078000F082B001900091194BED
:100F50001B7883F00103DBB2002B01D0164B25E098
:100F6000019B072B02D8009B002B01D1134B1DE0E6
:100F7000134A019B1B0113440C331B7883F00103BC
:100F8000DBB2002B01D00F4B10E00F4B1B6D01218A
:100F9000019A01FA02F21340002B03D0009B0122B8
:100FA0001A7002E0009B00221A700023184602B05B
:100FB000704700BF89130020028000F0018000F01C
:100FC00054110020078000F00000045000B583B0E9
:100FD00001900091154B1B7883F00103DBB2002BCD
:100FE00001D0134B1DE0019B072B02D8009B002B67
:100FF00001D1104B15E0104A019B1B0113440C3327
:101000001B7883F00103DBB2002B01D00B4B08E00F
:10101000019B184603F018FB03461A46009B1A7002
:101020000023184603B05DF804FB00BF89130020BD
:10103000028000F0018000F054110020078000F0D1
:1010400000B587B0364B1B6D0393354B5B6D039A30
:1010500013400393039B002B00DAFEE70023059364
:101060000123049353E0039A049B1340002B48D0C0
:101070002B4B03F500531A46049B1365059B1B017C
:10108000284A13440293029B1B68002B39D0029B11
:101090009B685A1C029B9A60029B1B68029A91688B
:1010A000029A5268059898470346002B14BF012303
:1010B0000023DBB283F00103DBB28DF807309DF82B
:1010C000073003F001038DF80730029B5B7B012B97
:1010D00017D19DF80730002B13D0134A059B5B01F5
:1010E000134403F1080213796FF3410313710E4A9D
:1010F000059B5B01134403F1180213796FF341035D
:101100001371059B01330593049B5B000493059BBE
:10111000072BA8D900BF00BF07B05DF804FB00BFD4
:101120000000045054110020D411002010B58AB0E2
:101130000292019303468DF80F300B468DF80E3066
:101140007B4B1B7883F00103DBB2002B01D0794B82
:10115000EBE0029B072B10D80C9B002B0DD00D9BB6
:10116000002B0AD0109BB3F5006F06DC9DF80F3002
:10117000012B04D10E9B002B01D16F4BD5E0029BBC
:101180001B016E4A13440993099B1B7B83F00103E7
:10119000DBB2002B01D06A4BC7E004AB00221A601F
:1011A0005A609A60DA60029B5B01664A13440893B6
:1011B0009DF80E30002B1DD1089B1A4600231360AA
:1011C00053609360D360089A937843F01003937050
:1011D000089AD37843F03003D3709DF83C3083F005
:1011E0000103DBB2002B22D0089AD37843F003032B
:1011F000D3701CE0089B1A46002313605360936071
:10120000D360089A937843F010039370089AD378C8
:1012100043F00303D3709DF83C3083F00103DBB24D
:10122000002B04D0089AD37843F03003D370019B8D
:101230000493109B9BB2013B9BB2C3F30A0399B288
:10124000089A138861F30E1313800C9A089B9A6016
:101250000D9A089B5A609DF8443003F00303D9B2FD
:10126000089AD37861F38303D3709DF80F30012B74
:101270003BD1089A137B43F001031373089A137B45
:1012800043F002031373089AD368042161F39F03A8
:10129000D3602C4A029B5B01134403F11002089BAC
:1012A00014460FCB84E80F00264A029B5B011344CF
:1012B00003F1180253686FF0030161F39F03536059
:1012C0000E9A2049029B5B010B4414331A609DF86F
:1012D0000E30012B09D10D9A1A49029B5B010B4478
:1012E00018331A600E9A089B5A60129B002B08D183
:1012F0009DF80F30002B04D1089A93786FF30413F4
:101300009370099B129A1A60099B139A5A60099B61
:1013100000229A60099B9DF80F205A73029B04A932
:10132000089A184603F062F8002318460AB010BD68
:1013300089130020028000F0018000F05411002089
:10134000078000F0D411002000B587B0039002910F
:101350000192029B1F2B03D991210C4807F05CFEE0
:10136000019B002B04D0039B03F58053059303E0FE
:10137000039B03F500530593059B0121029A01FA93
:1013800002F21A6000BF07B05DF804FBE0A300089A
:1013900008B500BF0421044807F073FE0346002B84
:1013A000F8D100BF00BF08BD8440005008B5FFF76A
:1013B000EFFF044BD3F884309B0903F00303DBB247
:1013C000184608BD00400050054BDB6903F480332C
:1013D000002B14BF01230023DBB21846704700BF67
:1013E00000000350024B0022DA6300BF704700BFC9
:1013F00000000350024B41F67132DA6300BF7047C0
:1014000000000350014B5B68184670470000035012
:1014100082B00190024A019B536000BF02B0704746
:101420000000035000B585B0019000230393019B99
:10143000B3F5607F35D0019BB3F5607F59D8019B30
:10144000B3F5207F4ED0019BB3F5207F51D8019B8F
:10145000B3F5007F3ED0019BB3F5007F49D8019BD7
:10146000002B03D0019BB3F5C07F42D1264B1B6FED
:101470001B0B03F00F030393039B002B3BD0039B39
:10148000012B38D0039B032B35D0039B072B32D085
:10149000039B0F2B2FD04FF41D711C4807F0BCFD90
:1014A00029E0194BD3F880301B0903F003030393A1
:1014B000039B002B21D0039B012B1ED0039B022BEF
:1014C0001BD0039B032B18D04FF421710F4807F05A
:1014D000A3FD12E00C4BD3F890301B0E03F01F035A
:1014E00003930BE0084B1B6F9B0A03F0010303936C
:1014F00004E000BF02E000BF00E000BF039B013337
:10150000184605B05DF804FB008000502CA40008CC
:1015100010B584B001900091019BB3F5607F54D069
:10152000019BB3F5607F00F2BA80019BB3F5207F89
:1015300000F09F80019BB3F5207F00F2B080019BFB
:10154000B3F5007F7DD0019BB3F5007F00F2A7804B
:10155000019B002B04D0019BB3F5C07F40F09F801E
:10156000009B012B10D0009B022B0DD0009B042B65
:101570000AD0009B082B07D0009B102B04D040F210
:10158000B5214C4807F048FD07F0E2FD07F0D8FD13
:1015900001F0DEF9484B1B6F23F47042009B013BC6
:1015A0001B03454913430B6707F065FD0446FFF72E
:1015B000FDFE0346C3F102031946204607F0ACFDC9
:1015C00001F0FEFB01F0D0F970E03C4BDB6803F06A
:1015D0008073002B14BF012300238DF80F309DF87A
:1015E0000F30002B05D0354BDB68344A23F0807375
:1015F000D360009B012B0DD0009B022B0AD0009BD7
:10160000032B07D0009B042B04D040F2DF21294894
:1016100007F002FD284BD3F8803023F03002009B06
:10162000013B1B0124491343C1F880309DF80F3062
:10163000002B3AD0214BDB68204A43F08073D36003
:1016400033E0009B002B02D0009B202B04D940F2FA
:10165000F221184807F0E0FC174BD3F8903023F044
:10166000F852009B013B1B0613491343C1F890300D
:101670001CE0009B012B07D0009B022B04D04FF4F1
:101680003E710C4807F0C8FC0B4B1B6F23F48062C3
:10169000009B013B9B02084913430B6706E040F2A5
:1016A000FE21044807F0B8FC00E000BF00BF04B012
:1016B00010BD00BF2CA4000800800050F0ED00E039
:1016C00000B585B001900B468DF8033000230393DD
:1016D000019B5B09002B05D140F21B31124807F03A
:1016E0009BFC12E0019B5B09012B02D10F4B039382
:1016F0000BE0019B5B09022B02D10D4B039304E02D
:1017000040F22531084807F087FC019B03F01F03D6
:1017100002939DF803301A4602990398FFF714FECE
:1017200000BF05B05DF804FB2CA4000864800050E5
:101730006880005010B584B001900023039300230B
:101740000293019BB3F5486F00F02983019BB3F529
:10175000486F00F23683019BB3F5406F00F0EF82D3
:10176000019BB3F5406F00F22C83019BB3F5286F0A
:1017700000F01B83019BB3F5286F00F22283019BCD
:10178000B3F5206F00F00583019BB3F5206F00F2E5
:101790001883019BB3F5106F00F0EF82019BB3F546
:1017A000106F00F20E83019BB3F5F06F00F003831E
:1017B000019BB3F5F06F00F20483019BB3F5E06F7A
:1017C00000F0E182019BB3F5E06F00F2FA82019B29
:1017D000B3F5D06F00F0CB82019BB3F5D06F00F270
:1017E000F082019BB3F5C06F00F0BB82019BB3F5A3
:1017F000C06F00F2E682019BB3F5B06F00F0A582E6
:10180000019BB3F5B06F00F2DC82019BB3F5A06FD2
:1018100000F08F82019BB3F5A06F00F2D282019B92
:10182000B3F5806F00F07F82019BB3F5806F00F20B
:10183000C882019BB3F5607F00F06682019BB3F51F
:10184000607F00F2BE82019BB3F5407F00F04F82C3
:10185000019BB3F5407F00F2B482019BB3F5207F7A
:1018600000F03982019BB3F5207F00F2AA82019B30
:10187000B3F5007F00F02382019BB3F5007F00F2F7
:10188000A082019BB3F5807F00F20A82019BB3F531
:10189000807F00F2968201A252F823F0B51C000866
:1018A000C31D0008C31D0008C31D0008C31D000898
:1018B000C31D0008C31D0008C31D0008C31D000888
:1018C000C31D0008C31D0008C31D0008C31D000878
:1018D000C31D0008C31D0008C31D0008C31D000868
:1018E000C31D0008C31D0008C31D0008C31D000858
:1018F000C31D0008C31D0008C31D0008C31D000848
:10190000C31D0008C31D0008C31D0008C31D000837
:10191000C31D0008C31D0008C31D0008B51C000836
:10192000D71C0008B51C0008D71C0008271D00089C
:10193000271D0008271D0008271D0008271D000877
:10194000D71C00084B1D0008EF1C0008631D000891
:101950006F1D0008EF1C0008D71C0008D71C0008EA
:10196000D71C0008C31D0008C31D0008C31D0008C4
:10197000C31D0008C31D0008C31D0008C31D0008C7
:10198000C31D0008D71C0008D71C0008D71C00087E
:10199000B71D0008871D0008D71C0008C31D0008DC
:1019A000C31D0008C31D0008C31D0008C31D000897
:1019B000C31D0008C31D0008C31D0008C31D000887
:1019C000C31D0008C31D0008C31D0008C31D000877
:1019D000271D0008B51C0008B51C0008B51C000830
:1019E0007B1D0008EF1C0008EF1C0008931D000879
:1019F000AB1D0008331D00083F1D0008C31D000873
:101A0000C31D0008C31D0008C31D0008C31D000836
:101A10009F1D0008B51C0008C31D0008C31D000859
:101A2000C31D0008C31D0008C31D0008C31D000816
:101A3000C31D0008C31D0008C31D0008C31D000806
:101A4000C31D0008C31D0008C31D0008C31D0008F6
:101A5000C31D0008C31D0008C31D0008C31D0008E6
:101A6000C31D0008C31D0008C31D0008C31D0008D6
:101A7000C31D0008C31D0008C31D0008C31D0008C6
:101A8000C31D0008C31D0008C31D0008C31D0008B6
:101A9000C31D0008C31D0008C31D0008AB1C0008BF
:101AA000C31D0008C31D0008C31D0008C31D000896
:101AB000C31D0008C31D0008C31D0008C31D000886
:101AC000C31D0008C31D0008C31D0008C31D000876
:101AD000C31D0008C31D0008C31D0008C31D000866
:101AE000C31D0008C31D0008C31D0008C31D000856
:101AF000C31D0008C31D0008C31D0008C31D000846
:101B0000C31D0008C31D0008C31D0008C31D000835
:101B1000C31D0008C31D0008C31D0008C31D000825
:101B2000C31D0008C31D0008C31D0008C31D000815
:101B3000C31D0008C31D0008C31D0008C31D000805
:101B4000C31D0008C31D0008C31D0008C31D0008F5
:101B5000C31D0008C31D0008C31D0008C31D0008E5
:101B6000C31D0008C31D0008C31D0008C31D0008D5
:101B7000C31D0008C31D0008C31D0008C31D0008C5
:101B8000C31D0008C31D0008C31D0008C31D0008B5
:101B9000C31D0008C31D0008C31D0008C31D0008A5
:101BA000C31D0008C31D0008C31D0008C31D000895
:101BB000C31D0008C31D0008C31D0008C31D000885
:101BC000C31D0008C31D0008C31D0008C31D000875
:101BD000C31D0008C31D0008C31D0008C31D000865
:101BE000C31D0008C31D0008C31D0008C31D000855
:101BF000C31D0008C31D0008C31D0008C31D000845
:101C0000C31D0008C31D0008C31D0008C31D000834
:101C1000C31D0008C31D0008C31D0008C31D000824
:101C2000C31D0008C31D0008C31D0008C31D000814
:101C3000C31D0008C31D0008C31D0008C31D000804
:101C4000C31D0008C31D0008C31D0008C31D0008F4
:101C5000C31D0008C31D0008C31D0008C31D0008E4
:101C6000C31D0008C31D0008C31D0008C31D0008D4
:101C7000C31D0008C31D0008C31D0008C31D0008C4
:101C8000C31D0008C31D0008C31D0008C31D0008B4
:101C9000C31D0008C31D0008C31D0008571D000810
:101CA000019BB3F5C07F05D08BE0FEF795FE0346A0
:101CB00003938CE0FEF7B8FE0346039387E0FEF73C
:101CC0008BFE04464FF40070FFF7ACFB0346B4FBF9
:101CD000F3F303937BE0FEF7A7FE04464FF4207076
:101CE000FFF7A0FB0346B4FBF3F303936FE0FEF7AB
:101CF0009BFE04464FF42070FFF794FB0346B4FBB1
:101D0000F3F35B08039362E002AB0021184600F096
:101D100041FE029C4FF46070FFF784FB0346B4FB66
:101D2000F3F3039353E003AB0021184600F0BEFE2B
:101D30004DE003AB0021184600F076FC47E003AB12
:101D40000021184600F0C4FC41E003AB0021184616
:101D500000F0F0FF3BE003AB0021184601F02CF946
:101D600035E003AB0021184600F0FEFE2FE003AB88
:101D70000021184601F080F829E003AB0021184645
:101D800001F0CAF823E003AB0021184601F032F855
:101D90001DE003AB0021184600F0F8FC17E003AB90
:101DA0000021184600F046FD11E003AB0021184663
:101DB00000F094FD0BE003AB0021184600F016FF85
:101DC00005E04FF48F61044807F026F900BF039B3C
:101DD000184604B010BD00BF2CA4000800B585B0A3
:101DE000019000230393019BB3F5486F00F0CD8170
:101DF000019BB3F5486F00F2D481019BB3F5406FAE
:101E000000F0B181019BB3F5406F00F2CA81019BE4
:101E1000B3F5286F00F0BF81019BB3F5286F00F286
:101E2000C081019BB3F5206F00F0A981019BB3F540
:101E3000206F00F2B681019BB3F5106F00F07B813B
:101E4000019BB3F5106F00F2AC81019BB3F5086FF5
:101E500000F07781019BB3F5086F00F2A281019B2E
:101E6000B3F5F06F00F05B81019BB3F5F06F00F20A
:101E70009881019BB3F5E06F00F07B81019BB3F586
:101E8000E06F00F28E81019BB3F5D06F00F04D81C1
:101E9000019BB3F5D06F00F28481019BB3F5C06F55
:101EA00000F03781019BB3F5C06F00F27A81019B8E
:101EB000B3F5B06F00F01B81019BB3F5B06F00F27A
:101EC0007081019BB3F5A06F00F04781019BB3F5D2
:101ED000A06F00F26681019BB3F5806F00F00D8169
:101EE000019BB3F5806F00F25C81019BB3F5607FCD
:101EF00000F02D81019BB3F5607F00F25281019BC0
:101F0000802B00F2C780019B242BC0F04A81019BEB
:101F1000243B5C2B00F2458101A252F823F000BF64
:101F2000FB200008FB200008FB200008FB20000825
:101F3000FB200008A3210008EF200008A3210008CF
:101F4000132100082B210008A3210008A321000869
:101F5000A3210008A3210008A3210008A321000851
:101F6000A3210008A3210008A3210008A321000841
:101F7000A3210008A3210008A3210008A321000831
:101F8000A32100081F21000873210008A3210008D5
:101F9000A3210008A3210008A3210008A321000811
:101FA000A3210008A3210008A3210008A321000801
:101FB000A3210008A3210008A3210008A3210008F1
:101FC000A3210008FB200008A3210008A32100088A
:101FD000A321000837210008A3210008A32100083D
:101FE0007F210008972100085B2100086721000875
:101FF000A3210008A3210008A3210008A3210008B1
:10200000A32100088B210008A3210008A3210008B8
:10201000A3210008A3210008A3210008A321000890
:10202000A3210008A3210008A3210008A321000880
:10203000A3210008A3210008A3210008A321000870
:10204000A3210008A3210008A3210008A321000860
:10205000A3210008A3210008A3210008A321000850
:10206000A3210008A3210008A3210008A321000840
:10207000A3210008A3210008A3210008A321000830
:10208000A3210008A3210008A3210008A321000820
:102090009F200008019BB3F5807F34D081E0464B40
:1020A0001B6F03F00703013B032B17D801A252F863
:1020B00023F000BFD7200008C5200008CB2000086F
:1020C000D12000080523039310E0032303930DE0C0
:1020D000082303930AE00223039307E000230393FA
:1020E00040F2AA41354806F097FF00BF5FE003AB1E
:1020F0001946002000F01EFE59E003AB19460020EF
:1021000000F0D4FC53E003AB1946002000F054FF6C
:102110004DE003AB1946002000F026FD47E003AB7D
:102120001946002000F062FD41E003AB1946002093
:1021300000F0A2FE3BE003AB1946002000F0ECFEED
:1021400035E003AB1946002000F066FC2FE003AB3E
:102150001946002000F01EFC29E003AB19460020C0
:1021600000F062FA23E003AB1946002000F0B0FA59
:102170001DE003AB1946002000F03CFE17E003AB66
:102180001946002000F002FB11E003AB19460020C5
:1021900000F050FB0BE003AB1946002000F09EFB63
:1021A00005E040F25951054806F036FF00BF039B99
:1021B000184605B05DF804FB008000502CA4000810
:1021C000074B03F580531A464FF480135366054BB3
:1021D00003F580531A464FF48033936200BF704773
:1021E000008000500040005A00B585B00190019B6E
:1021F0001B680F2B04D940F6F2218F4806F00CFF24
:10220000019B5B680F2B04D940F6F5218A4806F044
:1022100003FF019B9B680F2B04D940F6F8218648E9
:1022200006F0FAFE019B1B7B0F2B04D940F6FB2125
:10223000814806F0F1FE019B5B7B0F2B04D940F631
:10224000FE217D4806F0E8FE019B9B7B3F2B04D9D5
:1022500040F60131784806F0DFFE019BDB7B3F2B27
:1022600004D940F60431744806F0D6FE019B1B6980
:10227000032B04D940F607316F4806F0CDFE019BD1
:102280005B69032B04D940F60A316B4806F0C4FEA3
:10229000019BDB69032B04D940F60D31664806F03B
:1022A000BBFE8020FFF79AFD0346032B00F00A8156
:1022B000624B03F580531A464FF480135366604B0C
:1022C00045F60E02C3F880205D4B03F580531A4695
:1022D0004FF0A06393625A4B03F500531A464FF434
:1022E0008033936200BF564B9B6D03F48033002B09
:1022F000F9D1019B1B681A06019B5B681B05134300
:10230000019A127B12041343019A527B1203134366
:10231000019A927B92011343019AD27B1146484A5B
:102320000B431361464B9B6903F00042019B1B6901
:102330009B061A43019B5B691B061343019A127E9D
:1023400012041343019A527E12021343019A927EA1
:1023500011463B4A0B439361394B1B6A23F00F0331
:10236000019AD269002A01D1002200E00822134319
:10237000019AD27E92001A43019BDB6930491343D4
:102380000B62019BDB69002B60D12D4B9A6A2D4BB0
:102390001340019A92F8202052011343019A92F8B7
:1023A000212012011343019A92F82420D2001343F2
:1023B000234A43F48033936200BF214B9A6D224B32
:1023C0001340214A9342F8D11D4B03F580531A461E
:1023D0004FF0807393621A4B1B6923F47002019BC8
:1023E0009B681B05164913430B61154B03F580537E
:1023F0001A464FF000439361019B93F8223083F01B
:102400000103DBB2002B06D00D4B03F500531A4637
:102410004FF080739362019B93F8233083F00103A4
:10242000DBB2002B44D0064B03F500531A464FF4A1
:10243000803393623CE000BF2CA400080080005071
:102440000040005AC7FFFEFE03000100019BDB694C
:10245000022B12D11D4B00221A611C4B00229A61E3
:1024600002230393039B1A03039B1B0213431A4685
:102470004FF47F41164806F011FE144B9A6A154B33
:102480001340019A92F8202052011343019A92F8C6
:10249000222012061343019A92F82420D2001343FB
:1024A000019A92F8232012041146084A0B439362C2
:1024B000019B93F82530002B05D0044B064AC3F846
:1024C000802000E000BF05B05DF804FB0040005A2A
:1024D0003440005AC7FFFEFEF1A7FFFF024B93F9FD
:1024E00000301846704700BF8910002000B585B045
:1024F0000190019B5B68072B04D940F6BD41404821
:1025000006F08AFD019B9B68032B04D940F6BF416E
:102510003B4806F081FD019B1B78032B04D940F654
:10252000C141374806F078FD019B5B785BB2002B18
:1025300004DA40F6C341324806F06EFD4F230393A0
:10254000019B5B788DF80B309DF80B20039B934229
:1025500028BF13468DF80A302A4B03F580531A46DC
:102560004FF400035366284B4FF4D1525A62264B66
:1025700003F580531A4602235360234B03F500539F
:102580001A460123536000BF1F4B1B6903F48033BD
:10259000002BF9D1019B1B781A029DF80A301A49C9
:1025A00013434B61019B5B681A02019B9B681B01F3
:1025B0001343019A127B52001343019A527B114636
:1025C000114A0B439360019B9B7B5A01019BDB7B70
:1025D0001B011A43019B1B7C5B001343019A527C35
:1025E0001A43094B5A60019B9B7C002B03D0064B7E
:1025F0006FF4D1525A6200BF05B05DF804FB00BF12
:102600002CA40008008000500000025082B0034655
:10261000ADF80630034ABDF80630138000BF02B0A3
:10262000704700BF8410002000B585B00190009174
:1026300000230293244BD3F8203203F00703013B1D
:10264000032B28D801A252F823F000BF5D26000812
:102650006D2600087B2600088926000802AB0021B1
:10266000184600F035F8122303931CE0FEF722FA17
:10267000034602930723039315E006F0C5FC0346C7
:1026800002930A2303930EE0FEF784FA03460293B3
:102690000923039307E00023039340F6E5610B4809
:1026A00006F0BAFC00BF019B002B02D0029A019BEE
:1026B0001A60009B002B02D0009B039A1A6000BF97
:1026C00005B05DF804FB00BF008000502CA400089A
:1026D00000B585B00190009100230393294BD3F8F6
:1026E000283103F00703013B052B33D801A252F830
:1026F00023F000BF0D2700083127000849270008F4
:1027000025270008192700083D270008FEF75EF975
:1027100003900523029325E0FEF758F90390062362
:1027200002931FE0FEF7C6F903900723029319E016
:10273000FEF79EF903900323029313E0FEF798F946
:102740000390042302930DE0FEF7AEF903900223F9
:10275000029307E00023029340F626710A4806F030
:102760005BFC00BF019B002B02D0019B039A1A6007
:10277000009B002B02D0009B029A1A6000BF05B09C
:102780005DF804FB008000502CA4000800B585B063
:102790000190009100230293244BD3F8603203F0A0
:1027A0000703013B032B29D801A252F823F000BFF5
:1027B000C1270008D1270008EF270008E1270008FB
:1027C00002AB0021184600F071F9102303931DE0BD
:1027D00002AB0021184600F0C7F91123039315E05E
:1027E000FEF768F903460293072303930EE0FEF712
:1027F0005BF9034602930223039307E0002303934C
:1028000040F68A710A4806F007FC00BF019B002BC6
:1028100002D0029A019B1A60009B002B02D0009B01
:10282000039A1A6000BF05B05DF804FB00800050F9
:102830002CA4000800B585B00190009100230293FC
:10284000244BD3F8943203F00703013B032B29D820
:1028500001A252F823F000BF692800087928000877
:10286000972800088928000802AB0021184600F0CC
:102870001DF9102303931DE002AB0021184600F060
:1028800073F91123039315E0FEF714F9034602933D
:10289000072303930EE0FEF707F903460293022392
:1028A000039307E00023039340F6BD710A4806F046
:1028B000B3FB00BF019B002B02D0029A019B1A6060
:1028C000009B002B02D0009B039A1A6000BF05B04A
:1028D0005DF804FB008000502CA4000800B585B012
:1028E0000190009100230293174BD3F8703203F04C
:1028F0000303012B02D0022B08D00CE002AB002115
:10290000184600F031F9112303930CE000230293E1
:102910001523039307E00023039340F6E8710B4867
:1029200006F07AFB00BF019B002B02D0029A019BAC
:102930001A60009B002B02D0009B039A1A6000BF14
:1029400005B05DF804FB00BF008000502CA4000817
:10295000044B03F580531A464FF48033136700BFCE
:10296000704700BF0080005008B58020FEF7E2FEEF
:102970000346064A934206D8054B03F500531A4610
:102980004FF48033136700BF08BD00BF005A6202D6
:102990000080005000B585B00190009100230393A2
:1029A0001B4BD3F8803003F00303032B12D0032B0F
:1029B00016D8012B02D0022B06D011E0FEF70CF83E
:1029C00003900E23029313E0FEF774F8039007239D
:1029D00002930DE0FDF7FAFF03900623029307E050
:1029E0000023029341F2A1010A4806F015FB00BF43
:1029F000019B002B02D0019B039A1A60009B002BC5
:102A000002D0009B029A1A6000BF05B05DF804FB7B
:102A1000008000502CA4000800B585B00190009102
:102A2000002303931F4BD3F8003103F00303032B60
:102A30001FD801A252F823F06D2A0008492A000885
:102A4000552A0008612A0008FEF712F803900323B4
:102A5000029316E0FEF79EF803900923029310E01C
:102A600006F0CFFA0390082302930AE001230293B1
:102A700007E00023029341F2D7010B4806F0CCFA9D
:102A800000BF019B002B02D0019B039A1A60009BA0
:102A9000002B02D0009B029A1A6000BF05B05DF8BF
:102AA00004FB00BF008000502CA4000800B585B0D6
:102AB0000190009100230393294BD3F8203103F0B8
:102AC0000703013B052B33D801A252F823F000BFC6
:102AD000E92A0008F52A00080D2B0008012B000840
:102AE000192B0008252B0008FDF770FF0390052324
:102AF000029325E0FDF7BCFF0390032302931FE040
:102B0000FDF7D8FF03900723029319E0FDF7CCFFF0
:102B100003900223029313E0FDF758FF039006236E
:102B200002930DE0FDF7A4FF03900423029307E056
:102B30000023029341F21A110A4806F06DFA00BF11
:102B4000019B002B02D0019B039A1A60009B002B73
:102B500002D0009B029A1A6000BF05B05DF804FB2A
:102B6000008000502CA4000800B585B001900091B1
:102B7000002303931B4BD3F8403103F00303032BD3
:102B800012D0032B16D8012B02D0022B06D011E055
:102B900006F03AFA03900A23029313E0FDF7FAFFD6
:102BA0000390092302930DE006F032FA03900C2300
:102BB000029307E00023029341F248110A4806F00D
:102BC0002BFA00BF019B002B02D0019B039A1A60D5
:102BD000009B002B02D0009B029A1A6000BF05B038
:102BE0005DF804FB008000502CA4000800B585B0FF
:102BF00001900091002303931B4BD3F8603103F045
:102C00000303032B12D0032B16D8012B02D0022B67
:102C100006D011E006F0F8F903900A23029313E0BE
:102C2000FDF7B8FF0390092302930DE006F0F0F9D9
:102C300003900C23029307E00023029341F27611E4
:102C40000A4806F0E9F900BF019B002B02D0019B66
:102C5000039A1A60009B002B02D0009B029A1A6014
:102C600000BF05B05DF804FB008000502CA40008F4
:102C700084B0019000914FF440130393009B002B0C
:102C80000AD1019B0D4A934203D94FF48013039359
:102C90000FE0002303930CE0009B002B09DD019B58
:102CA000074A934203D94FF48013039301E00023B2
:102CB0000393039B184604B0704700BF005A62029A
:102CC000002D310100B585B001900091184B03F53E
:102CD00080531A464FF4803393660020FEF7A2FB20
:102CE0000246019B02FB03F30193FEF76DFB0346D3
:102CF0008DF80F30FEF77EFBFEF784FB034623F4CE
:102D00004013029300990198FFF7B2FF0246029B1D
:102D1000134302930298FEF77BFB9DF80F30002BC4
:102D200001D0FEF75FFB00BF05B05DF804FB00BFFC
:102D30000080005000B585B00190009100230293FF
:102D40001D4BD3F8803103F00303032B0ED0032B6C
:102D50001AD8012B02D0022B0FD015E002AB0021B4
:102D60001846FFF7A3FE1023039315E0FDF7A2FE1C
:102D700003460293072303930EE0FDF795FE0346F7
:102D800002930223039307E00023039341F2672198
:102D90000A4806F041F900BF019B002B02D0029ABD
:102DA000019B1A60009B002B02D0009B039A1A60C3
:102DB00000BF05B05DF804FB008000502CA40008A3
:102DC00000B583B0022301934FF4C070FEF7B2FC4C
:102DD0000346074A934201D80123019301994FF416
:102DE0002070FEF795FB00BF03B05DF804FB00BF49
:102DF00080F0FA0200B585B00190009100230393A2
:102E00001B4BD3F8403203F00303032B12D0032BE8
:102E100016D8012B02D0022B06D011E006F0F4F8F0
:102E200003900A23029313E0FDF7B4FE03900923F5
:102E300002930DE006F0ECF803900C23029307E0F8
:102E4000002302934FF497510A4806F0E5F800BFBB
:102E5000019B002B02D0019B039A1A60009B002B60
:102E600002D0009B029A1A6000BF05B05DF804FB17
:102E7000008000502CA4000800B585B0019000919E
:102E800000230393224BD3F8003203F00703013BE6
:102E9000032B25D801A252F823F000BFAD2E000865
:102EA000B92E0008C52E0008D12E000806F0ACF897
:102EB00003900A2302931BE0FDF76CFE03900923A5
:102EC000029315E006F0A4F803900C2302930FE0A0
:102ED000FDF7AAFD03469B0A03930F23029307E025
:102EE0000023029341F21D310A4806F095F800BF15
:102EF000019B002B02D0019B039A1A60009B002BC0
:102F000002D0009B029A1A6000BF05B05DF804FB76
:102F1000008000502CA4000800B585B001900091FD
:102F200000230393224BD3F8083203F00703013B3D
:102F3000032B25D801A252F823F000BF4D2F000823
:102F4000592F0008652F0008712F000806F05CF863
:102F500003900A2302931BE0FDF71CFE0390092354
:102F6000029315E006F054F803900C2302930FE04F
:102F7000FDF75AFD03469B0A03930F23029307E0D4
:102F80000023029341F251310A4806F045F800BF90
:102F9000019B002B02D0019B039A1A60009B002B1F
:102FA00002D0009B029A1A6000BF05B05DF804FBD6
:102FB000008000502CA4000800B585B0019000915D
:102FC00000230393114B1B6803F00403002B06D06E
:102FD000FDF72AFD034603930D23029305E002AAA1
:102FE00003AB11461846FFF7BFFD019B002B02D033
:102FF000039A019B1A60009B002B02D0029A009B4F
:103000001A6000BF05B05DF804FB00BF10E000E0EF
:10301000024B034A1A6400BF704700BF00400950CA
:103020003254FFFF024B4AF6CD321A6400BF70479C
:103030000040095082B0019000BF054B5A6B019BC4
:103040001340002BF9D100BF00BF02B0704700BF92
:103050000040095008B500BF0421044806F0B8F844
:103060000346002BF8D100BF00BF08BD84400050CC
:1030700008B5FFF7EFFF044BD3F884309B0903F04A
:103080000303DBB2184608BD0040005000B583B012
:103090000190019B1A78054B1A700121002000F065
:1030A0006FF800BF03B05DF804FB00BFD41200202E
:1030B00082B00190064B5B6F23F44072019B5B78FA
:1030C0001B02034913434B6700BF02B0704700BFA8
:1030D0000040005000B583B003468DF807300E4B1A
:1030E0001B690D4A43F00403136103F0F3FD06F07E
:1030F0008AF830BF06F089F803F004FE9DF8073027
:1031000083F00103DBB2002B01D006F05CF800BFB6
:1031100003B05DF804FB00BF00ED00E000B583B034
:1031200003468DF807300C4B1B690B4A43F0040330
:10313000136103F0CFFD30BF03F0E4FD9DF80730CD
:1031400083F00103DBB2002B01D006F03CF800BF96
:1031500003B05DF804FB00BF00ED00E082B0019019
:10316000064BDB6E23F03003019A12791146034AB5
:103170000B43D36600BF02B0704700BF0040005051
:1031800000B585B001900B468DF80330019B002BF4
:1031900003D1FDF721FC039001E0019B03930D4B4C
:1031A0001B78002B0AD0039B0B4A934206D89DF84C
:1031B00003301946012000F011F806E09DF80330B5
:1031C0001946022000F00AF800BF00BF05B05DF804
:1031D00004FB00BFD4120020005A620210B586B072
:1031E00003460A468DF8073013468DF80630FFF780
:1031F0003FFF03461A469DF80730934252D0FDF731
:10320000EBFB0590059B04939DF80730012B0CD137
:10321000049B264A934204D940F23C71244805F0AD
:10322000FBFE0121059805F077FF05F09BFF039059
:10323000204B03F500531A464FF0007353669DF878
:103240000730184605F0E7FF1A4C9DF8073018467E
:1032500005F0CBFF034623670BE0164BD3F8843011
:1032600003F02003002B04D040F24A71104805F00F
:10327000D3FE104B5B6E03F00073002B06D10D4B99
:10328000D3F8843003F02003002BE6D0039805F038
:1032900075FF9DF80730022B05D10021059805F038
:1032A0003BFF00E000BF06B010BD00BF005A620245
:1032B00078A400080040005000B585B003468DF8A2
:1032C00007302B4B03F580531A464FF000435366EB
:1032D000284B5B6C03F00103002B14BF0123002378
:1032E0008DF80F30FFF79EFE9DF80730002B18D1A8
:1032F0000120FFF79FFE1F4B5B6803F00103029361
:10330000029B002B27D01B4B03F500531A460123C9
:10331000536000BF174B1B6B03F00103002BF9D068
:1033200019E000BF134B1B6B03F00803002BF9D10E
:10333000104B03F500531A46202393620D4B03F5FF
:1033400080531A460123536000BF0A4B9B6A03F067
:103350002003002BF9D09DF80F30002B01D0FFF790
:1033600057FE05F05FFF00BF05B05DF804FB00BF2E
:10337000008000500040095000B585B00190254BF9
:1033800003F580531A464FF000435366224B5B6CA3
:1033900003F00103002B14BF012300238DF80F302D
:1033A000FFF740FE019B5B785B001C4A43F0010382
:1033B000D3630B20FFF73EFE174B5B6823F4F872D4
:1033C000019B9B781B01144913434B60019BDB78E5
:1033D0001B02019A527911460F4A0B439360019BDD
:1033E0001B791B02019A927911460B4A0B43136118
:1033F000019B1B781846FFF75FFF9DF80F30002BED
:1034000001D0FFF705FE05F00DFF0123184605B0BA
:103410005DF804FB0080005000400950004000505F
:1034200000B585B0019000238DF80F3000238DF892
:103430000E30019B0F2B04D940F6C251224805F0F3
:10344000EBFD019B0F2B01D90F2301931F4B5B6EEB
:10345000DB0F8DF80E301D4B03F580531A464FF0ED
:10346000004353661A4B5B6C03F00103002B14BF3F
:10347000012300238DF80F30FFF7D4FD8020FFF7E4
:10348000D9FD134B1B6A23F00F021149019B134313
:103490000B629DF80F30002B01D0FFF7B9FD9DF8AE
:1034A0000E3083F00103DBB2002B06D0074B03F58F
:1034B00000531A464FF00043536605F0B3FE00BFB9
:1034C00005B05DF804FB00BF78A400080080005040
:1034D0000040095000B587B0039002910192029B11
:1034E0001F2B03D991210C4805F096FD019B002B61
:1034F00004D0039B03F58053059303E0039B03F57E
:1035000000530593059B0121029A01FA02F21A6009
:1035100000BF07B05DF804FBC4A4000882B00190AE
:10352000044B03F500531A46019BC2F8203400BF38
:1035300002B0704700C0035000B583B0034600914D
:103540008DF807309DF80730002B14D09DF8073018
:10355000012B0ED09DF80730022B07D09DF80730C5
:10356000032B01D13F2308E0002306E040F2FF33A4
:1035700003E03F2301E040F2FF33009AD34003F021
:103580000103002B04D140F2FE310A4805F044FD4E
:1035900009489DF807200121009B994013465B00D4
:1035A00013441B01034403F50153196000BF03B02A
:1035B0005DF804FB10A5000800C0035000B583B0FF
:1035C000034600918DF807309DF80730002B14D08A
:1035D0009DF80730012B0ED09DF80730022B07D045
:1035E0009DF80730032B01D13F2308E0002306E0BC
:1035F00040F2FF3303E03F2301E040F2FF33009A43
:10360000D34003F00103002B04D140F22D410A48BE
:1036100005F002FD09489DF807200121009B994013
:1036200013465B0013441B01034403F582531960E6
:1036300000BF03B05DF804FB10A5000800C00350F4
:1036400000B587B0029101921A4603468DF80F30FB
:1036500013468DF80E30002305939DF80F30002B94
:1036600014D09DF80F30012B0ED09DF80F30022B97
:1036700007D09DF80F30032B01D13F2308E0002332
:1036800006E040F2FF3303E03F2301E040F2FF3366
:10369000029AD34003F00103002B03D1BF213B4822
:1036A00005F0BAFC019A029B534023F00303002B60
:1036B00003D0C121354805F0AFFC019B072B0FD883
:1036C000019B9B00032202FA03F19DF80F20019B4E
:1036D0009B0002FA03F31A462D4805F0A5FD11E000
:1036E000019B083B0593059B9B00032202FA03F113
:1036F0009DF80F20059B9B0002FA03F31A4625480C
:1037000005F092FD019B072B10D8019B9B00032223
:1037100002FA03F1029B03F00302019B9B0002FAF1
:1037200003F31A461C4805F07FFD0FE0059B9B0044
:10373000032202FA03F1029B03F00302059B9B00A4
:1037400002FA03F31A46154805F06EFD9DF80E3097
:103750001A4601991248FFF7BDFE9DF820301A461F
:1037600001991048FFF7B6FE0122019B02FA03F30C
:103770001846FFF7D3FE9DF824301A4601990A48EF
:10378000FFF7A8FE00BF07B05DF804FB5CA50008CA
:1037900000C4035004C4035008C403500CC40350B5
:1037A00010C4035014C4035024C4035000B585B0A2
:1037B00002910192009303468DF80F309DF80F306F
:1037C000002B14D09DF80F30012B0ED09DF80F3038
:1037D000022B07D09DF80F30032B01D13F2308E0C7
:1037E000002306E040F2FF3303E03F2301E040F214
:1037F000FF33029AD34003F00103002B04D14FF4AE
:10380000B071314805F008FC019B002B0FD0009BE4
:10381000002B06D09DF80F3002991846FFF7CEFE18
:1038200005E09DF80F3002991846FFF785FE029BD0
:10383000072B17D89DF80F2013465B0013441B017C
:103840001A1D224B1344029A92000F2101FA02F032
:10385000029A9200019901FA02F20146184605F017
:10386000E3FC19E09DF80F2013465B0013441B0195
:1038700003F10C02154B1344029A083A92000F21EF
:1038800001FA02F0029A083A9200019901FA02F252
:103890000146184605F0C8FC019B002B0FD1009B88
:1038A000002B06D09DF80F3002991846FFF786FED0
:1038B00005E09DF80F3002991846FFF73DFE00BF66
:1038C00005B05DF804FB00BF5CA5000830C00350E4
:1038D00000B587B0039002910192029B1F2B03D980
:1038E00091210C4805F098FB019B002B04D0039B11
:1038F00003F58053059303E0039B03F50053059301
:10390000059B0121029A01FA02F21A6000BF07B07A
:103910005DF804FBA8A5000800B589B003900291EA
:1039200001928DF80330019B002B04D140F20F115E
:103930005B4805F071FB019B002B00F0AD809DF80A
:10394000033003F003038DF80330039B9B6823F4DB
:103950004072039B9A60039B03F108009DF80330BB
:103960001B021A464FF4407105F084FC029B002BA9
:1039700016D1039BB3F1B64F04D12E20FDF7DAFE2A
:1039800002900DE0039B474A934204D12F20FDF79C
:10399000D1FE029004E040F22911414805F03CFBC1
:1039A0004FF0FF330793039B9B6803F00203002B48
:1039B00013D09DF80330022B0CD0022B21DC002BFE
:1039C00002D0012B03D01CE0374B07931CE0374B90
:1039D000079319E0364B079316E09DF80330022B4E
:1039E0000CD0022B0FDC002B02D0012B03D00AE0FD
:1039F0002D4B079308E02F4B079305E02E4B0793C1
:103A000002E000BF00E000BF029A079B9A4204D880
:103A10004FF4AF71224805F0FFFA9DF80330274AB2
:103A2000D35C0593059B019A02FB03F30493049B6B
:103A3000002B05D140F26F11194805F0EDFA2CE08A
:103A4000019BDB00029AD21A049B13445A1E049B6A
:103A5000B2FBF3F3013B0693069B002B04DA40F222
:103A600075110F4805F0D8FA069BB3F5007F04D313
:103A70004FF4BB710A4805F0CFFA039B9B6803F033
:103A80000203002B04D0069B002B01D101230693D7
:103A9000069A039B9A6100E000BF09B05DF804FB41
:103AA000F4A500080080065080841E00404B4C00A6
:103AB000809FD50040548900002D310140A60008A8
:103AC00000B583B001900B468DF80330019BB3F134
:103AD000B64F08D0019B0A4A934204D040F28F119E
:103AE000084805F099FA019B04339DF80320002152
:103AF0001846FFF7EDFE00BF03B05DF804FB00BF02
:103B000000800650F4A5000800B583B00190009134
:103B1000019BB3F1B64F08D0019B174A934204D0E2
:103B20004FF4D271154805F077FA019B00221A6410
:103B30001349019805F092FB019B03F10800009BDB
:103B40005B7883F00103DBB21A460121FFF7C0FE68
:103B5000009B5968009B9A68009B1B7B0198FFF7AC
:103B6000DBFE009B1B7819460198FFF7A9FF00BFF9
:103B700003B05DF804FB00BF00800650F4A5000808
:103B8000FFFF1F0000B58BB0019000238DF81F30A0
:103B9000019BB3F1B64F08D0019BA04A934204D0D9
:103BA00040F2FB119E4805F037FA019BB3F1B64F86
:103BB00002D19C4B089309E0019B984A934202D1A1
:103BC000994B089302E06FF003033BE2089B9B686C
:103BD00006931AE2019BDB6B0593059B03F4C0631C
:103BE000002B14D0059B03F40073002B03D0089B1B
:103BF000FD225A7007E0059B03F48063002B02D07E
:103C0000089BFE225A70089B09221A7005E2089B45
:103C10001B78082B00F2EF8101A252F823F000BFBD
:103C2000453C00089D3C00082D3D0008893D0008EA
:103C3000F73D0008633E0008F73E00083F3F0008DC
:103C4000D53F0008069B5B8803F01003002B09D0CA
:103C5000069B1B881B0A9BB203F0060343F0F0038C
:103C600009930EE0069B1B8803F0FE030993069B55
:103C70005B8803F00203002B03D0099B43F0010390
:103C80000993089B01221A70019B099A5A63019BB0
:103C90000122DA6001238DF81F30B6E1059B03F0A5
:103CA0008003002B0DD08021019805F0D7FA089BE6
:103CB000FF225A70089B08221A70019B0222DA60C8
:103CC00030E0059B03F04003002B2BD040210198EE
:103CD00005F0C4FA069B5B8803F01003002B08D0A4
:103CE000089B02221A70069B1B88DAB2019B5A635A
:103CF00018E0069B5B8803F00203002B0ED0089BA4
:103D000007221A70089B1B79069ADB0013441B8953
:103D1000012B07D1019B0822DA6003E0089B0522F2
:103D20001A7072E101238DF81F306EE1059B03F0DC
:103D30008003002B0DD08021019805F08FFA089B9D
:103D4000FF225A70089B08221A70019B0222DA6037
:103D500016E0059B03F04003002B11D04021019891
:103D600005F07CFA069B5B8803F00203002B03D06E
:103D7000089B03221A7048E1089B05221A7044E14F
:103D800001238DF81F3040E1069B5B8803F0100390
:103D9000002B09D0069B1B881B0A9BB203F006036D
:103DA00043F0F003099304E0069B1B8803F0FE0335
:103DB0000993069B5B8803F00403002B0ED0099B3C
:103DC00043F001030993089B1B79069ADB00134417
:103DD0001B89012B02D1019B0822DA60089B042277
:103DE0001A70019B0122DA60019B099A5A63012330
:103DF0008DF81F3009E1059B03F08003002B15D0DF
:103E00008021019805F02AFA089BFF225A70089B2E
:103E100008221A70019B0222DA601EE00080065020
:103E2000F4A50008D8120020E4120020059B03F03E
:103E30004003002B11D04021019805F00FFA069B9A
:103E40005B8803F00403002B03D0089B07221A7041
:103E500003E0089B05221A70D7E001238DF81F307C
:103E6000D3E0089B5A88089B1B790699DB000B441A
:103E70001B899A4227D3089B00225A80089B1B79F2
:103E80000133DAB2089B1A71069B5B8803F00403C6
:103E9000002B03D0089B03221A70B6E0069B5B88B8
:103EA00003F00103002B04D1089B1B79012B40F286
:103EB000AC80089B08221A70019B0222DA60012361
:103EC0008DF81F30A1E0089B1B79069ADB00134494
:103ED0005A68089B5B88591C88B20899488013442B
:103EE0001B781A46019B5A63089B06221A7001230D
:103EF0008DF81F3089E0059B03F08003002B0DD067
:103F00008021019805F0AAF9089BFF225A70089BAE
:103F100008221A70019B0222DA600CE0059B03F074
:103F20004003002B07D04021019805F097F9089B2A
:103F300005221A7069E001238DF81F3065E0059BAA
:103F400003F02003002B41D0089B1B79069ADB006D
:103F500013441B890493019B5B6A8DF80F30202169
:103F6000019805F07BF9089B5B881A46049B9342F5
:103F70000FD9089B1B79069ADB0013445A68089BEB
:103F80005B88591C88B20899488013449DF80F201B
:103F90001A70089B5B881A46049B934206D8089BBC
:103FA00008221A70019B0222DA600FE0019B0422B2
:103FB000DA60049B012B09D9089B5B881A46049B95
:103FC000013B9A4202D1019B0822DA6001238DF85D
:103FD0001F301AE0059B03F48073002B07D04FF4C9
:103FE0008071019805F03AF9089B09221A700123A3
:103FF0008DF81F3009E0089BFB225A70089B0922AC
:104000001A7001238DF81F3000BF9DF81F3083F018
:104010000103DBB2002B7FF4DDAD089B1B78092B7D
:104020000BD1019B00221A64089B93F90130012BEC
:1040300005D1089B00225A7001E0012302E0089B91
:1040400093F9013018460BB05DF804FB00B585B05C
:1040500001900091019BB3F1B64F08D0019B344A07
:10406000934204D040F25E31324804F0D5FF009B09
:10407000002B04D140F25F312E4804F0CDFF019BAC
:10408000B3F1B64F02D12C4B039309E0019B284AB0
:10409000934202D1294B039302E06FF0030342E005
:1040A000019B1B6903F00103002B02D0019B20221E
:1040B000DA60009B5B8803F00203002B03D0009BB7
:1040C0001B89002B09D0009B5B8803F00403002BA5
:1040D00006D0009B1B8A002B02D16FF0030322E065
:1040E000039B00221A70039B01225A70039B00223B
:1040F0005A80039B00221A71039B009A9A60019BCD
:10410000C022DA60019805F0CFF80D49019805F05A
:10411000A5F8019B1B6C43F4FC62019B1A64019897
:10412000FFF730FD0346184605B05DF804FB00BFFD
:1041300000800650F4A50008D8120020E4120020E8
:10414000FFFF1F0082B003468DF807309DF907304E
:10415000002B0CDB9DF8073003F01F0205499DF989
:1041600007305B09012000FA02F241F8232000BF6A
:1041700002B0704700E100E082B003468DF80730DE
:104180009DF90730002B13DB9DF8073003F01F0269
:1041900009499DF907305B09012000FA02F220333A
:1041A00041F82320BFF34F8F00BFBFF36F8F00BFD5
:1041B00000BF02B0704700BF00E100E082B00346DC
:1041C0008DF807309DF90730002B0DDB9DF8073087
:1041D00003F01F0206499DF907305B09012000FA30
:1041E00002F2603341F8232000BF02B0704700BFE5
:1041F00000E100E082B0034600918DF807309DF9A0
:104200000730002B0ADB009BDAB20C499DF907301E
:104210001201D2B20B4483F800230BE0009BDAB208
:1042200007499DF8073003F00F03043B1201D2B297
:104230000B441A7600BF02B0704700BF00E100E0F7
:1042400000ED00E000B587B0039002910192029B5F
:104250001F2B03D991210C4804F0DEFE019B002B9B
:1042600004D0039B03F58053059303E0039B03F500
:1042700000530593059B0121029A01FA02F21A608C
:1042800000BF07B05DF804FB44A6000808B5152080
:10429000FFF772FF094B00225A65084BFF229A6212
:1042A000064B00225A6000212020FDF709FA002168
:1042B0002120FDF705FA00BF08BD00BF0000045033
:1042C00000B583B001900B468DF80330019B072B9E
:1042D00003DD7721084804F09FFE01999DF8033023
:1042E00083F00103DBB21A460448FFF7ABFF00BFBF
:1042F00003B05DF804FB00BF90A600084000045026
:1043000000B585B00190019B002B03D19121354868
:1043100004F082FE019B1B781B0623F0F853002B50
:1043200003D092212F4804F077FE019B5B781B0499
:1043300023F47F03002B03D09D212A4804F06CFE58
:10434000019B9B7823F0FF03002B03D09F2125487E
:1043500004F062FE019BDB780F2B03D9A3212148D7
:1043600004F05AFE01212020FDF7AAF901212120A5
:10437000FDF7A6F91C4B01225A60019B1B781B0616
:104380000393194A039B9360019B5B781B04019A7A
:1043900092781146144A0B439361134BFF229A62A1
:1043A000114B00229A63104B00221A640E4B4FF0FF
:1043B00000425A650C4B03F500531A464FF0FF3389
:1043C00013651520FFF7FAFE019BDB7819461520CF
:1043D000FFF710FF1520FFF7B5FE00BF05B05DF831
:1043E00004FB00BF90A600080000045000B587B091
:1043F000039002910192039BDBB21A460123934082
:104400000593039B072B03DDEC21764804F004FEA3
:10441000029B002B03D1ED21724804F0FDFD029BAD
:104420001B6823F47C1323F00F03002B03D0F0212F
:104430006C4804F0F1FD029B1B791B0423F47F03FD
:10444000002B03D0F621674804F0E6FD029B5B7960
:104450001B0423F47F03002B03D0F821614804F0F0
:10446000DBFD029B9B7923F0FF03002B03D0FA2195
:104470005C4804F0D1FD029BDB7923F0FF03002BA5
:1044800003D0FC21574804F0C7FD029B9B7A1B0414
:1044900023F44033002B04D040F20911514804F0BA
:1044A000BBFD029BDB7A1B0523F48013002B04D099
:1044B00040F20B114B4804F0AFFD029B1B7B5B05E8
:1044C00023F40013002B04D040F20D11454804F0F2
:1044D000A3FD029B5B7B23F0FF03002B04D040F283
:1044E0000F11404804F098FD3F4B03F500531A4666
:1044F000059B13653D49029B1A68039B9B000B4477
:104500005A60029B5B7B38491846039A13465B004E
:1045100013441B010B4460331860029B9B7A1A04FE
:10452000029BDB7A1B051A43029B1B7B5B05134333
:104530002D491846039A13465B0013441B010B4494
:104540005C331860019B284823F00301039A13464B
:104550005B0013441B0103447033196004F018FE20
:104560000490214B5A6D2049059B13434B65029BD8
:104570001B7A002B05D01C4B1A6C1B49059B13435F
:104580000B64029B5B7A002B05D0174B9A6B164984
:10459000059B13438B63029B1B791B04029A927940
:1045A0001343114A03F0FF1302F500529361029B7B
:1045B0005B791B04029AD27913430B4A03F0FF1371
:1045C00002F5805293610599094804F081FE064A7C
:1045D000059B9364049804F0EBFD00BF07B05DF801
:1045E00004FB00BF90A600080000045000400450E7
:1045F0003400045000B585B00190019BDBB21A462F
:10460000012393400393019B072B04DD40F2971194
:104610000B4804F001FD04F0BBFD0290094B5A6DFC
:10462000039BDB43074913404B65064A039B936298
:10463000029804F0BDFD00BF05B05DF804FB00BFAB
:1046400090A600080000045000B587B00190002338
:104650008DF81730019BDBB21A4601239340049377
:10466000019B072B04DD40F2B5110F4804F0D4FC88
:1046700004F08EFD03900D4BDA6A049B1340002B6F
:1046800009D10A4B5A6B049B1340049A9A4202D1F7
:1046900001238DF81730039804F08AFD9DF8173038
:1046A000184607B05DF804FB90A60008000004500F
:1046B00082B00190019B0E4A93420FD0019B0D4A9C
:1046C00093420BD0019B0C4A934207D0019B0B4AAB
:1046D000934203D0019B0A4A934201D1012300E097
:1046E000002303F00103DBB2184602B0704700BF9D
:1046F0000080045000C004500000055000400550E8
:104700000080055000B585B0019000910198FFF739
:10471000CFFF0346002B03D1A521454804F07CFCC4
:1047200000230393019804F0E0FD019B03F500537F
:104730001A460123136300BF019B1B6B03F00203A6
:10474000002BF9D1009B5B889A04009B1B791B020C
:104750001343009A527A1343009A5278002A01D0E8
:10476000402200E000221343009A927A002A01D0EE
:10477000802200E000221343009AD27A002A01D05E
:10478000202200E000221343009A127B002A01D06D
:10479000102200E000221343009A527B002A01D02D
:1047A000082200E000221343009A927B002A02D0E4
:1047B0004FF4006200E000221343009A9279002A2D
:1047C00002D04FF4803200E000221A43019B5A606D
:1047D000019B03F580531A4601231363009B1B784A
:1047E00083F00103DBB2002B02D0019B0222DA60CE
:1047F000019B00225A62009BDB799B00009A127A8F
:104800001343009A5279002A01D0102200E00022BE
:1048100013430393019B039A9A60009B1B78002B20
:1048200002D0019B0122DA6000BF05B05DF804FBF5
:1048300010A7000882B001900B468DF80330019B51
:10484000084A934204D1084A9DF80330C2F8C8319F
:10485000019BDB6D43F08002019BDA6500BF02B073
:10486000704700BF00C005500080035000B587B0FE
:104870000390029101928DF8033000230593019B70
:10488000002B04D14FF4A171484804F0C5FB029BF2
:10489000002B04D14FF42070FCF74CFF02909DF8E0
:1048A0000330602B34D0602B3FDC402B20D0402BDA
:1048B0003BDC002B02D0202B0DD036E0029B1B09E5
:1048C000019A9A4204D94FF4BA71384804F0A4FB13
:1048D000102305932FE0029BDB08019A9A4204D92A
:1048E00040F27911314804F097FB0823059322E048
:1048F000029B2F4AA2FB03239B08019A9A4204D9E8
:104900004FF4BF71294804F087FB0623059312E09A
:10491000029B9B08019A9A4204D940F283112348D2
:1049200004F07AFB0423059305E040F289111F4847
:1049300004F072FB00BF059B002B33D0029B5A0191
:10494000059B019901FB03F35B0813440493059B4A
:10495000019A02FB03F3049AB2FBF3F30493049B62
:10496000203B0493049BDB000493049B114A934275
:1049700004D94FF4D0710D4804F04EFB049A0D4B4E
:1049800013400493039B9B6823F06002039B9A608F
:10499000039B9A689DF803301A43039B9A60039B1C
:1049A000049ADA6100BF07B05DF804FB60A7000855
:1049B000ABAAAAAAF8FF7F0000B585B001900B460C
:1049C0008DF80330019B164A934204D04FF43371A3
:1049D000144804F021FB019B03F580531A46012380
:1049E00053609DF80330DB430393039B03F00503FF
:1049F0000393039B5A00019B5A619DF80320019B7E
:104A00005A619DF80330002B05D1019B03F500533B
:104A10001A460123536000BF05B05DF804FB00BFD8
:104A200000C0055060A7000800B583B00190009158
:104A3000019B474A934204D040F2FD21454804F0CF
:104A4000EBFA019800F08AF8019B03F580531A46AF
:104A500001235360009B9B7C002B05D0019B9B682E
:104A600043F08042019B9A60009BDB7C002B05D0C9
:104A7000009B1B7D19460198FFF7DCFE009B5B7BCA
:104A80001A46009B1B8A1343009AD2891A43019B42
:104A9000DA60009B5968009B9A68009B1B7B019819
:104AA000FFF7E4FE009B5B7D002B05D0019B9B681C
:104AB00043F48032019B9A60009B9B7D002B05D0C4
:104AC000019B9B6843F40042019B9A60009BDB7D45
:104AD0001B0703F0E042009B1B7E1B0503F4E00371
:104AE0001A43019B9A65009B5B7E022B03D0009BBF
:104AF0005B7E032B07D1184B03F580531A46022324
:104B0000C2F8203706E0144B03F500531A4602237F
:104B1000C2F82037009B5B7E012B03D0009B5B7E9D
:104B2000032B06D1019B03F580531A460423D3655A
:104B300005E0019B03F500531A460423D365009B4F
:104B40001B781A46019B5A6100BF03B05DF804FB55
:104B500000C0055060A7000800C0035000B583B036
:104B60000190019B224A934204D040F242412148E5
:104B700004F052FA019B03F580531A460123536057
:104B8000019B40F6AA625A61019B00229A60019B38
:104B90000022DA65019B41F20502DA60019B0022E6
:104BA0001A61019B0022DA61019B0022DA64019BF9
:104BB00003F500531A46104B9364019B00229A653B
:104BC000019B0B4A934202D1019B00221A65019B73
:104BD000074A934202D1019B00225A65019B03F5CB
:104BE00000531A460123536000BF03B05DF804FB75
:104BF00000C0055060A70008FFFF010000BF064B82
:104C00005B6803F00103002B03D0034BDB69002B2F
:104C1000F5D100BF704700BF00800A5000BF094BAC
:104C20009B6803F00203002BF9D1064B5B6803F08D
:104C30000203002BF3D1034BDB69002BEFD100BF44
:104C400000BF704700800A5008B5FFF7D7FF024B3E
:104C500002221A6100BF08BD00800A5000B583B06F
:104C60000190FFF7DBFF0A4B5B68012B03D100F0DB
:104C700021F8FFF7D3FF019B1B78002B01D0012304
:104C800000E00023024AD36000BF03B05DF804FBDC
:104C900000800A5008B5FFF7C1FF054B03F58053AC
:104CA0001A4601235360024B01221A6100BF08BD5E
:104CB00000800A5008B5074B5B68012B08D1FFF74D
:104CC000C3FF044B03F500531A460123536000E071
:104CD00000BF08BD00800A5000B585B003460091B2
:104CE0008DF80730002303939DF80730002B03D085
:104CF0007121264804F090F99DF80730002B40D12F
:104D0000009B1B78002B01D0012300E000230393BC
:104D1000009B5B68002B06D0009B5B681B78DB0068
:104D2000039A13430393009B5B78002B01D002236B
:104D300000E00023039A13430393009B9B68002B1E
:104D400006D0009B9B681B789B01039A1343039337
:104D5000009B9B78002B01D0042300E00023039AE2
:104D600013430393009BDB68002B06D0009BDB689A
:104D70001B785B02039A13430393054A039B9364D6
:104D800000BF00BF05B05DF804FB00BF94A700089A
:104D900000800A5000B583B0034600918DF80730BB
:104DA0009DF80730002B04D04FF48271084804F0BE
:104DB00033F99DF80730002B06D1064B03F58053DD
:104DC0001A46009B536400BF00BF03B05DF804FBAC
:104DD00094A7000800800A5000B583B003460091F4
:104DE0008DF807309DF80730002B04D04FF4A071E8
:104DF000084804F011F99DF80730002B06D1064B46
:104E000003F500531A46009B536400BF00BF03B074
:104E10005DF804FB94A7000800800A5000B583B039
:104E2000034600918DF807309DF80730002B04D021
:104E30004FF4BE71084804F0EFF89DF80730002BDE
:104E400006D1064B03F500531A46009B136400BFBE
:104E500000BF03B05DF804FB94A7000800800A506F
:104E600000B583B003468DF807309DF80730002B5E
:104E700004D040F2B711074804F0CEF89DF807308F
:104E8000002B02D1044B1B6C00E00023184603B03A
:104E90005DF804FB94A7000800800A5000B583B0B9
:104EA00003460A468DF8073013468DF806309DF804
:104EB0000730002B04D040F266210D4804F0ACF816
:104EC0009DF80730002B0ED19DF80630002B02D044
:104ED000012B03D005E0074BDB6C05E0054B1B6D98
:104EE00002E0002300E00023184603B05DF804FB55
:104EF00094A7000800800A5000B583B003460092D2
:104F00008DF807300B468DF806309DF80730002BE2
:104F100004D04FF441710D4804F07EF89DF807303D
:104F2000002B0FD19DF80630002B02D0012B04D0AE
:104F300007E0074A009BD36403E0054A009B136522
:104F400000BF00BF00BF03B05DF804FB94A70008DA
:104F500000800A5000B583B00A4A6B4692E803000D
:104F600018600433198002330A0C1A706B46184615
:104F7000FEF702FA0C20FEF753FA0023184603B09E
:104F80005DF804FBF0A7000800B583B00A4B5B6F27
:104F9000094A43F0010353676B4600221A601A71F5
:104FA00000238DF804306B461846FEF7D7F800232F
:104FB000184603B05DF804FB0040005030B597B0D0
:104FC0002B4B0BAC1D460FCD0FC40FCD0FC495E876
:104FD000030084E80300002312934FF0FF3315937E
:104FE000244BD3F84C3103F40023002B04D1214B84
:104FF000D3F85031DBB21593159BB3F1FF3F08D1C5
:105000001D4B1B884FF6FF72934202D01A4B1B8830
:105010001593159BB3F1FF3F01D157231593159BB2
:10502000B3F1FF3F18D0159BDBB28DF84530FDF78B
:1050300055FA0246159B13441593159B002B02DA73
:105040000023159304E0159BFF2B01DDFF2315932F
:10505000159BDBB28DF844300848FBF70FFD0BAB16
:105060001846FDF7C1F80023184617B030BD00BF41
:10507000F8A700080080E00F0001E00FC0175302FE
:1050800030B587B00C4B01AC1D460FCD0FC42B685B
:1050900023600023039324238DF805300423029317
:1050A00001AB1846FDF722FA6420FDF7AFFA0023A2
:1050B000184607B030BD00BF20A8000882B00346E4
:1050C00000918DF807309DF90730002B0ADB009B1B
:1050D000DAB20C499DF907301201D2B20B4483F8C1
:1050E00000230BE0009BDAB207499DF8073003F07C
:1050F0000F03043B1201D2B20B441A7600BF02B078
:10510000704700BF00E100E000ED00E000B583B0B3
:1051100001F0F4FE0090009B002B01D0009B2CE0DE
:1051200001F0D2FF03464FF4167202FB03F303F5BE
:10513000742303F23F23134AA2FB03239B0C124A5E
:10514000136000238DF8073012E09DF807300E4AF7
:1051500012680E4941F823200D4B1A680A4B1B6850
:1051600013440B4A13609DF8073001338DF8073064
:105170009DF80730092BE8D90023184603B05DF8E5
:1051800004FB00BF83DE1B43F0120020F812002056
:105190002013002008B5054B01221A7004F05EFCB4
:1051A0000346034A136000BF08BD00BF8B130020F5
:1051B0002413002008B5294B1B7883F00103DBB2D0
:1051C000002B49D104F04AFC0246254B1B68D31A38
:1051D000244A1360234B1B68002B02D0214B1B6811
:1051E00000E001231F4A13601F4B1B681F4A1278FF
:1051F00011461F4A52F8212011461A4A12688A1A8B
:105200009B1A194A1360194B1B781946154B1B68DA
:10521000174A42F82130144B1B680933154AA2FB88
:105220000323DB08144A1360104B1B780133DAB2F6
:105230000E4B1A700D4B1A780E4BA3FB0213D908B4
:105240000B469B000B445B00D31ADAB2074B1A7073
:10525000024B00221A7000E000BF08BD8B13002033
:1052600024130020F4120020201300208A130020B1
:10527000F8120020CDCCCCCCF0120020014B1B68E2
:1052800018467047F012002082B003468DF80730B0
:105290009DF90730002B0CDB9DF8073003F01F024F
:1052A00005499DF907305B09012000FA02F241F837
:1052B000232000BF02B0704700E100E082B0034647
:1052C0008DF807309DF90730002B0DDB9DF8073076
:1052D00003F01F0206499DF907305B09012000FA1F
:1052E00002F2603341F8232000BF02B0704700BFD4
:1052F00000E100E082B0034600918DF807309DF98F
:105300000730002B0ADB009BDAB20C499DF907300D
:105310001201D2B20B4483F800230BE0009BDAB2F7
:1053200007499DF8073003F00F03043B1201D2B286
:105330000B441A7600BF02B0704700BF00E100E0E6
:1053400000ED00E008B502212C20FFF7D3FF104B41
:1053500003F580531A464FF4801353660D4B03F543
:1053600000531A460C4B53670A4B03F500531A4679
:10537000094B13672C20FFF7A1FF2C20FFF784FFB8
:10538000044B03F580531A46034B536700BF08BD17
:10539000008000500040005A010000A084B0034685
:1053A0008DF8073000238DF80F30144B9B6D03F000
:1053B0000103002B08D0124B1B7883F00103DBB2F2
:1053C000002B01D0012300E000238DF80F309DF861
:1053D0000F3003F001038DF80F309DF80F3083F08C
:1053E0000103DBB2002B03D09DF80730002BDCD18A
:1053F0009DF80F30184604B0704700BF0040005AB7
:105400008C13002000B583B0164B1B6F0193019BDA
:1054100003F00103002B0AD0124A019B03F00103A1
:1054200002F500521367FFF7C5FE01F0D7FA019BA2
:1054300003F00053002B06D00A4A019B03F00053EF
:1054400002F500521367019B002B06DA054A019B07
:1054500003F0004302F50052136700BF03B05DF88C
:1054600004FB00BF0040005A00B585B0019003F076
:1054700079FE0390054A019B1360039803F07EFEBA
:105480000023184605B05DF804FB00BF2813002078
:1054900000B583B00023019303F064FE0090054B38
:1054A0001B680193009803F069FE019B184603B046
:1054B0005DF804FB2813002000B587B0039002912B
:1054C0000192019B1A460299002003F059FF0590B2
:1054D000059B002B03D0BF21034803F09DFD019BDA
:1054E000184607B05DF804FB34A8000808B5054B62
:1054F0001B68986800230222002102F08DFD00BF86
:1055000008BD00BF2010002082B003468DF8073090
:105510009DF90730002B0CDB9DF8073003F01F02CC
:1055200005499DF907305B09012000FA02F241F8B4
:10553000232000BF02B0704700E100E082B00346C4
:105540008DF807309DF90730002B13DB9DF80730ED
:1055500003F01F0209499DF907305B09012000FA99
:1055600002F2203341F82320BFF34F8F00BFBFF377
:105570006F8F00BF00BF02B0704700BF00E100E0C6
:1055800082B003468DF807309DF90730002B0DDB04
:105590009DF8073003F01F0206499DF907305B09AB
:1055A000012000FA02F2603341F8232000BF02B06C
:1055B000704700BF00E100E030B58DB00990089160
:1055C0000792069340220021089804F089FC089B6A
:1055D000079A92E8030083E80300089B00221A76EA
:1055E000079BDA68089BDA60079B1A69089B1A61B7
:1055F000089BDA68089B5A61079B1A7D089B83F811
:105600002C20079B9A7D089B83F82D20089B5A69C4
:10561000089B1A63089B012283F83420089B01220F
:1056200083F83520089B069ADA61089B109A1A6263
:10563000089B119A5A62089B129A9A62079B93F9E7
:105640000820089B83F83620079B93F90920089BC4
:1056500083F83720099B089A1A60099B444A5A60CC
:10566000099B444A9A60099B434A1A61099B434A31
:105670005A61099B424ADA60FBF792FB0B900B9B45
:10568000002B05D00B9B3F4A934201D010236CE0C6
:10569000089B083300211846FBF7BCFA0B900B9BC4
:1056A000002B01D0102360E0099B374A1A62089B47
:1056B000012283F83C20099B344A9A61099B344AB1
:1056C000DA61089B9DF8502083F83B20089B9DF8E9
:1056D0004C2083F83A20089B002283F83920089B4D
:1056E000012283F83820079B5B7D1946089803F058
:1056F00085FF079B93F909301846FFF741FF079B89
:1057000093F909301846FFF7FFFE089B1B7A1D46E8
:10571000089B1968089BDA68089B5868089B1B69F6
:105720001C46089B04931B4B039300230293019494
:10573000012300930346284603F07AFC0B900B9B51
:10574000002B01D0102310E0079B93F90830184676
:10575000FFF716FF079B93F908301846FFF7D4FEB2
:10576000099B1846FFF780FE002318460DB030BD98
:1057700087970008A5970008C3950008E1950008E1
:10578000F9570008038000F063950008FD950008B4
:1057900075960008A159000800B585B00190019BDD
:1057A0000393039B93F83830DBB283F00103DBB241
:1057B000002B1BD0039B1B6A002B04D14FF4C87134
:1057C0000C4803F029FC039B1B6A002101989847B1
:1057D000039B012283F83820039B93F83B30184643
:1057E00003F0AAFE039B022283F83C2000BF05B011
:1057F0005DF804FB84A8000800B589B00190019B06
:105800000793079B1B6806930023059300230493CB
:10581000FFF73EFE0390039A079B9A4202D10020B5
:10582000FFF722FE069B93F936301846FFF7A8FED5
:10583000069B93F936301846FFF780FE069B93F9D6
:1058400037301846FFF79CFE069B93F93730184611
:10585000FFF774FE069B1B7A1846FBF743FB049088
:10586000049B002B04D04FF4E9711C4803F0D4FBD7
:10587000069B1B7A1846FBF759FA0490049B002BF1
:1058800004D04FF4EB71154803F0C6FBFBF712FA96
:105890000490049B002B08D0049B114A934204D02F
:1058A0004FF4ED710D4803F0B7FB079B00221A601F
:1058B000079B00225A60079B00229A60079B0022E8
:1058C0001A61079B00225A61069B9B6A06989847BB
:1058D0000590059B184609B05DF804FB84A80008F4
:1058E000058000F000B585B00190019B1B7EDBB206
:1058F00083F00103DBB2002B0BD0019B1A6B019BE1
:105900005B699A4245D040F2F111244803F084FBD0
:105910003FE0019800F0ACF80346013B0393019B84
:10592000DB68039A9A4206D2019BDA68019B1B69E5
:10593000013B13440393039B029321E0029B1B78DA
:10594000112B03D0029B1B78132B0AD1029B1B78CF
:10595000112B0CBF01230023DAB2019B83F8342002
:1059600013E0029B013B0293019BDB68029A9A427F
:1059700006D2019BDA68019B1B69013B1344029329
:10598000019B1B6B029A9A42D8D1019B039A1A631E
:1059900000E000BF05B05DF804FB00BF84A800086C
:1059A00000B58FB0099008910792079B0B930B9855
:1059B00000F05EF80D900B9BDA680B9B1B6913449B
:1059C0000D9A9A4202D10B9BDB680D930B9B5B698E
:1059D0000D9A9A4205D80B9B5A690D9BD31A0C93CA
:1059E00007E00B9BDA680B9B1B6913440D9AD31AD3
:1059F0000C930C9B002B1CD00B9B19680B9B5868BD
:105A00000C9B0B9A0492184A039200220292019373
:105A10000123009303460D9A099803F009FB0A90AD
:105A20000A9B002B1BD040F2CD21104803F0F4FA62
:105A300015E00B9B01225A760B9B93F82D30002B1F
:105A40000DD00B9B002283F835200B9BDB691321C3
:105A50000B9898470B9B5B6A01210B989847002392
:105A600018460FB05DF804FBA159000884A800088F
:105A700000B585B00190114A019B1B7A19460B466F
:105A80005B000B441B0113446C331B680393019BA5
:105A9000DA68019B1B691344039A9A4204D8019B5C
:105AA000DB68039A9A4204D240F2F921044803F0D9
:105AB000B3FA039B184605B05DF804FB00000450E0
:105AC00084A8000810B58CB00790079B00225A7676
:105AD000079B1B7A1846FBF7A1F90B900B9B002B39
