S01E00004C504544545F636F6D6D735F64656D6F732D414343454C2E733337E3
S315080000000010002061040008FF270008FF270008E9
S31508000010FF270008FF270008FF270008FF2700081A
S31508000020FF270008FF270008FF270008FF2700080A
S31508000030FF270008FF270008FF270008FF270008FA
S31508000040FF270008FF270008FF270008FF270008EA
S3150800005059260008FF270008FF270008FF27000881
S31508000060FF270008FF270008FF270008FF270008CA
S31508000070FF270008FF270008FF270008FF270008BA
S31508000080FF270008FF270008FF270008FF270008AA
S31508000090FF270008FF270008FF270008FF2700089A
S315080000A0FF270008FF270008FF270008FF2700088A
S315080000B0FF270008FF270008FF270008FF2700087A
S315080000C0FF270008FF270008FF270008FF2700086A
S315080000D0FF270008FF270008FF270008FF2700085A
S315080000E0FF270008FF270008FF270008FF2700084A
S315080000F0FF270008FF270008FF270008FF2700083A
S31508000100FF270008FF270008FF270008FF27000829
S31508000110FF270008FF270008FF270008FF27000819
S31508000120FF270008FF270008FF270008FF27000809
S31508000130FF270008FF270008FF270008FF270008F9
S31508000140FF270008FF270008FF270008FF270008E9
S31508000150FF270008FF270008FF270008FF270008D9
S31508000160FF270008FF270008FF270008FF270008C9
S31508000170013800D0FCE7704710B5054C237833B931
S31508000180044B13B1044800E000BF0123237010BDDF
S315080001907C10002000000000282D000808B5034B3D
S315080001A01BB10349034800E000BF08BD000000007A
S315080001B080100020282D0008A3F5803A704700BF5C
S315080001C0174B002B08BF134B9D46FFF7F5FF002181
S315080001D08B460F461348144A121A02F0C7FB0E4BF9
S315080001E0002B00D098470D4B002B00D098470020D5
S315080001F0002104000D000D48002802D00C4800E03C
S3150800020000BF02F08BFA2000290002F0ADFA02F0D6
S3150800021071FA00BF0000080000000000000000009E
S31508000220001000207C100020B41000200000000000
S315080002300000000008B502F093FB02F025FA02F070
S3150800024081F90022014B1A7008BD00BFB0100020CA
S3150800025013B5044C23781BB102F0B6F900232370BA
S3150800026002B010BDB010002010B5274C00F0B4FF46
S3150800027001F0D2F9236F23F0070343F00303236742
S3150800028002F0F7FA214B00209B6ADB015EBF4FF4B0
S3150800029080321F4B9A62D4F8203123F0070343F0CB
S315080002A00203C4F82031D4F8283123F0070343F0B9
S315080002B00203C4F82831D4F8403123F0030343F08D
S315080002C00203C4F84031D4F8603123F0030343F045
S315080002D00203C4F86031D4F8403223F0030343F034
S315080002E00203C4F84032D4F8003223F0070343F07F
S315080002F00203C4F80032D4F8083223F0070343F0A7
S315080003000203C4F8083210BD008000500040005AAD
S315080003100060005A1022024BC3F8A020704700BFA5
S3150800032000D003501022024BC3F8A020704700BF2C
S3150800033000E0035070B58EB0444C01AD26460FCE92
S315080003400FC5336814342B6006AD0FCC0FC594E87F
S315080003500F0085E80F0001213A2000F0EBFC01218F
S31508000360572000F0E7FC4FF48073394DADF81C3088
S31508000370384B2846039301A906AB059301F0E2FB27
S31508000380012304221946022001F01EFD0221002342
S315080003900846012201F018FD012304220321022048
S315080003A001F012FD042201231146022001F00CFD82
S315080003B0294C2A4B4FF44870C4F8C8344FF002133E
S315080003C0C4F8C434A3F58033C4F8CC341C23C4F869
S315080003D0B43402F085F81420FFF7A4FF02F080F881
S315080003E02320FFF797FF02F07BF8B9212846FFF78D
S315080003F099FF02F07AFAFFF78DFF002301211A46CA
S31508000400022001F0E1FC002302211A46084601F009
S31508000410DBFC012300220321022001F0D5FC012385
S3150800042000220421022001F0CFFC284601F03EFA02
S3150800043000215720C4F8C814C4F8C414C4F8CC144E
S31508000440C4F8B41400F076FC0EB070BD9429000808
S3150800045000000A50E070720000C00350020003005A
S3150800046008B500F02DF8124B12498B4212D3002022
S31508000470114B12498B4218D3FFF7A2FE186850F8A1
S315080004802240586840F82240013298688242F5D3E3
S315080004900C33EAE70022F8E71C6844F82200013228
S315080004A05C68A242F8D30833E4E70022F8E700BF05
S315080004B0302D00083C2D00083C2D00083C2D000876
S315080004C010B54FF480414FF0FF30114B114A9A6036
S315080004D0D3F8882042F47002C3F888200E4A916641
S315080004E00E4901F5005210660D4850660220C3F801
S315080004F0D000BFF34F8FBFF36F8F01244FF4403303
S315080005000848C0F88041D36004600B6110BD00BF85
S3150800051000ED00E000000008009000500080004454
S31508000520F7FF370000E100E0014B1868704700BF8D
S3150800053004100020084B1B6F03F00703022B04D09E
S31508000540032B05D0012B05D0FEE7044B186870472E
S31508000550034BFBE703487047008000500410002057
S3150800056008100020002D310108B5FFF7E3FF054B01
S315080005701B6FC3F303330133B0FBF3F0024B186070
S3150800058008BD00BF008000500010002000487047DA
S3150800059000B4C404014B1868704700BF0810002057
S315080005A0054B1860054B1B6F03F00703032B01D19E
S315080005B0FFF7DABF704700BF081000200080005020
S315080005C000487047002D31014FF0B4439868C0F3D6
S315080005D004400C2822D8DFE800F009212121212136
S315080005E0071719211B1D1F000F4870479B6803F04A
S315080005F04073B3F1807F13D0B3F1007F12D00B4A5A
S31508000600002B08BF104670470948704709487047CD
S3150800061009487047094870470948704700207047DD
S315080006200848704708487047405DC60000093D0005
S315080006300024F400C0EA210180BA8C010048E801D0
S31508000640005A620280841E0040420F00014B18685F
S31508000650704700BF0C10002010B501213A2000F0A9
S3150800066069FB012304220321002001F0ADFB0020D1
S3150800067002F056F90122314B3149C3F844244FF4AC
S315080006800022A3F550335A66D1F8FC202C4C12F000
S3150800069080721EBFD1F8FC3023F08073C1F8FC309D
S315080006A02849D1F8803023F0030343F00203C1F848
S315080006B080302AB1D4F8FC3043F08073C4F8FC309B
S315080006C04FF4607000F062FBD4F8F0301E4A43F035
S315080006D00103C4F8F030D4F8FC3000F5D52043F017
S315080006E08073C4F8FC30194B00F2FC401A60184BB2
S315080006F00222B0FBF3F0174B01381861C3F8F0205B
S315080007004FF48072C3F804234FF06043124A002066
S31508000710C3F8B02F114AC3F8802ED3F8002E42F43E
S315080007208072C3F8002EFF2283F82020D3F8002E0B
S3150800073022F48072C3F8002E10BD00BF00D003500B
S3150800074000ED00E000800050FF030040001000E0CC
S31508000750F8590D00000004E055CEACC509000100AB
S31508000760044BD3F88420D206FBD4D3F88400C0F314
S31508000770811070470040005038B5124B0546D3F833
S3150800078080300C4603F00303022B0BD0032B0DD04D
S31508000790012B0FD1FFF7CEFE0E2305B1286004B159
S315080007A0236038BDFFF710FF0723F6E7FFF7BCFE07
S315080007B00623F2E7044841F2A10102F029F80023D2
S315080007C01846EAE700800050C829000838B5194BD2
S315080007D00546D3F820310C4603F00703013B052BE9
S315080007E020D8DFE803F0030B130F171BFFF79CFE57
S315080007F0052305B1286004B1236038BDFFF7CAFE9A
S315080008000323F6E7FFF7E0FE0723F2E7FFF7D8FE34
S315080008100223EEE7FFF788FE0623EAE7FFF7BAFEAC
S315080008200423E6E7044841F21A1101F0F1FF002318
S315080008301846DEE700800050C829000838B5194B6D
S315080008400546D3F828310C4603F00703013B052B70
S3150800085020D8DFE803F003131B0F0B17FFF764FE1E
S31508000860052305B1286004B1236038BDFFF75CFE97
S315080008700623F6E7FFF7A8FE0723F2E7FFF78AFE47
S315080008800323EEE7FFF786FE0423EAE7FFF798FE61
S315080008900223E6E7044840F6267101F0B9FF002373
S315080008A01846DEE700800050C8290008F7B500277B
S315080008B0144B0197D3F88041064604F00304022C32
S315080008C00D4614D0032C0DD0012C14D1394601A89D
S315080008D0FFF77CFF10240EB1019B336005B12C6035
S315080008E003B0F0BDFFF770FE07240190F3E7FFF7AA
S315080008F067FE0190EFE741F26721034801F088FFA0
S315080009003C46E8E700800050C829000837B50023B0
S315080009100193184B0546D3F820320C4603F007031B
S31508000920013B032B1ED8DFE803F0020E1318002143
S3150800093001A8FFF783FF12230DB1019A2A6004B1BB
S31508000940236003B030BDFFF73FFE07230190F3E7AE
S3150800095001F058FF0A230190EEE7FFF777FE092317
S315080009600190E9E740F6E561034801F051FF0023ED
S31508000970E2E700BF00800050C829000838B5124BCE
S315080009800546D3F840310C4603F00303022B0BD07F
S31508000990032B0DD0012B0FD101F034FF0A2305B12B
S315080009A0286004B1236038BDFFF750FE0923F6E737
S315080009B001F02BFF0C23F2E7044841F2481101F03D
S315080009C027FF00231846EAE700800050C8290008D8
S315080009D037B500230193184B0546D3F860320C4609
S315080009E003F00703013B032B1FD8DFE803F0020ED1
S315080009F01914002101A8FFF7E9FE10230DB1019A89
S31508000A002A6004B1236003B030BD002101A8FFF7B6
S31508000A10B5FF1123F2E7FFF7D7FD07230190EDE7AE
S31508000A20FFF7CEFD02230190E8E740F68A710348F6
S31508000A3001F0EEFE0023E1E700800050C829000817
S31508000A4037B500230193184B0546D3F894320C4664
S31508000A5003F00703013B032B1FD8DFE803F0020E60
S31508000A601914002101A8FFF7B1FE10230DB1019A50
S31508000A702A6004B1236003B030BD002101A8FFF746
S31508000A807DFF1123F2E7FFF79FFD07230190EDE7AE
S31508000A90FFF796FD02230190E8E740F6BD7103488B
S31508000AA001F0B6FE0023E1E700800050C8290008DF
S31508000AB073B500240F4B0194D3F87032064603F041
S31508000AC00303012B0D4607D0022B11D040F6E8711F
S31508000AD0094801F09DFE04E0214601A8FFF74EFFF4
S31508000AE011240EB1019B336005B12C6002B070BDB4
S31508000AF01524F6E700800050C829000838B5154BBC
S31508000B000546D3F800320C4603F00703013B032BD6
S31508000B1018D8DFE803F0020A0E1201F073FE0A2362
S31508000B2005B1286004B1236038BDFFF78FFD09239E
S31508000B30F6E701F06AFE0C23F2E7FFF715FD0F232F
S31508000B40800AEDE7044841F21D3101F061FE0023F9
S31508000B501846E5E700800050C829000838B5154B47
S31508000B600546D3F808320C4603F00703013B032B6E
S31508000B7018D8DFE803F0020A0E1201F043FE0A2332
S31508000B8005B1286004B1236038BDFFF75FFD09236E
S31508000B90F6E701F03AFE0C23F2E7FFF7E5FC0F2330
S31508000BA0800AEDE7044841F2513101F031FE002395
S31508000BB01846E5E700800050C829000838B5124BEA
S31508000BC00546D3F840320C4603F00303022B0BD03C
S31508000BD0032B0DD0012B0FD101F014FE0A2305B10A
S31508000BE0286004B1236038BDFFF730FD0923F6E716
S31508000BF001F00BFE0C23F2E704484FF4975101F07D
S31508000C0007FE00231846EAE700800050C8290008B6
S31508000C1038B5124B0546D3F860310C4603F003038A
S31508000C20022B0BD0032B0DD0012B0FD101F0EAFDBF
S31508000C300A2305B1286004B1236038BDFFF706FD15
S31508000C400923F6E701F0E1FD0C23F2E7044841F237
S31508000C50761101F0DDFD00231846EAE70080005012
S31508000C60C829000810B5B0F5207F2ED009D8B0F5F0
S31508000C70007F24D003D868B1B0F5C07F0AD000241D
S31508000C801BE0B0F5607FFAD1124BD3F88040C4F36D
S31508000C90011412E00F4B1C6F230B13F00E0FC4F355
S31508000CA003340AD0032C08D0072C06D00F2C04D006
S31508000CB04FF41D71084801F0ABFD601C10BD054BD3
S31508000CC0D3F89040C4F30464F7E7024B1C6FC4F3EF
S31508000CD08024F2E700800050C829000838B54FF490
S31508000CE08032104B04469A6600200D46FFF7BAFF7D
S31508000CF041F671320C4B6043DC69DA635A6804F4D6
S31508000D00803422F440125DB9084988428CBF4FF4FA
S31508000D1080100020104358600CB10022DA6338BDF9
S31508000D200349F2E70090005000000350005A62029F
S31508000D30002D310170B5440905460E460ED140F224
S31508000D401B310F4801F064FD05F01F05AEB104F52F
S31508000D508053012000FA05F51D6070BD012C08D0EE
S31508000D60022C08D040F22531054801F051FD002437
S31508000D70EAE7044CE8E7044CE6E704F50053E8E73D
S31508000D80C8290008648000506880005030B585B0D6
S31508000D90002180280446CDE9001100F09F8035D84F
S31508000DA05E2846D85E2844D8DFE800F09E434343D1
S31508000DB043434343434343434343434343434343F5
S31508000DC04343434343434343434343439EAA9EAA61
S31508000DD0B9B9B9B9B9AAC350D97450AAAAAA43438A
S31508000DE0434343434343AAAAAA7CE3AA4343434350
S31508000DF0434343434343434343B99E9E9EDE505079
S31508000E00E88B61BE4343434343939E00B0F5B06FFE
S31508000E1000F08F8030D8B0F5207F71D00FD8B0F5AC
S31508000E20C07F61D0B0F5007F61D0B0F5807F00F05B
S31508000E3085804FF48F61544801F0EAFC51E0B0F523
S31508000E40607F67D00DD8B0F5407FF2D1FFF78CFBF5
S31508000E5004464FF42070FFF705FFB4FBF0F0400896
S31508000E603EE0B0F5806F5AD0B0F5A06FE1D1002111
S31508000E706846FFF74BFD34E0B0F5106F74D016D80E
S31508000E80B0F5E06F75D00AD8B0F5C06F67D0B0F589
S31508000E90D06FCED100216846FFF730FE21E0B0F5CD
S31508000EA0F06FC6D100216846FFF7B2FE19E0B0F52B
S31508000EB0406F39D00AD8B0F5206F5FD0B0F5286FEB
S31508000EC0B7D100216846FFF7F3FD0AE0B0F5486F91
S31508000ED0AFD100216846FFF7B3FD02E0FFF72AFB12
S31508000EE00090009805B030BDFFF73EFBF8E7FFF726
S31508000EF021FB05462046FFF7B5FEB5FBF0F0EFE708
S31508000F00FFF732FB04464FF42070FFF7ABFEB4FB45
S31508000F10F0F0E5E701A8FFF72FFC019DEAE70021BD
S31508000F206846FFF753FCDCE700216846FFF786FCB6
S31508000F30D7E700216846FFF7B9FCD2E74FF0E02370
S31508000F4002911B695B0705D5FFF70EFB0290029B12
S31508000F500093C6E703A902A8FFF710FDF7E70021EB
S31508000F606846FFF70BFDBCE700216846FFF7F6FD6C
S31508000F70B7E700216846FFF721FEB2E70021684679
S31508000F80FFF726FDADE700BFC829000808B5802091
S31508000F90FFF7FCFE034B98429EBF4FF48032024B8C
S31508000FA01A6708BD005A620200A000501FB5002348
S31508000FB0B0F5807F019300F0C38064D85D2855D8CA
S31508000FC04C2806D82D2847D823282BD840F2595123
S31508000FD0A5E04D381028F9D801A353F820F000BF32
S31508000FE037110008CD0F0008CD0F0008CD0F0008F7
S31508000FF0E9100008CD0F0008CD0F0008BD11000844
S3150800100007110008AD100008B3110008CD0F00083D
S31508001010CD0F0008CD0F0008CD0F0008CD0F000832
S31508001020C711000824380928D0D801A353F820F09E
S315080010303711000837110008371100083711000862
S3150800104037110008CD0F000827110008CD0F00083A
S31508001050C91000086D1100083D2800F082803E285E
S31508001060B4D1002001A9FFF7A9FD60E08028ADD121
S31508001070574B1B6F03F00703013B032B4DD8DFE8E3
S3150800108003F04A47878FB0F5F06F6AD021D8B0F5DC
S31508001090B06F48D00FD8B0F5607F00F0858095D343
S315080010A0B0F5806F47D0B0F5A06F8FD1002001A9A9
S315080010B0FFF72CFC3BE0B0F5D06F57D0B0F5E06FEA
S315080010C0CFD0B0F5C06F81D1002001A9FFF756FC3B
S315080010D02DE0B0F5206F71D00BD8B0F5086F4AD067
S315080010E0B0F5106F7FF472AF002001A9FFF736FD47
S315080010F01DE0B0F5406F5CD0B0F5486F63D0B0F531
S31508001100286F7FF463AF002001A9FFF7D1FC0EE03A
S31508001110052301930BE00223FBE740F2AA412D4881
S3150800112001F076FB03E0002001A9FFF7BFFB019859
S3150800113005B05DF804FB002001A9FFF747FBF6E7B9
S3150800114002934FF0E0231B695B0705D5FFF70CFAFE
S315080011500D230393039BDCE703A902A8FFF70EFC04
S31508001160F8E7002001A9FFF753FDE0E7002001A9F1
S31508001170FFF7C4FCDBE7164BD3F8003103F0030393
S31508001180022B07D0032B09D0012B0BD1FFF702FA4C
S315080011900323BEE7FFF75AFA0923BAE701F030FB43
S315080011A00823B6E70123B4E7184601A9FFF7E4FACE
S315080011B0BDE7002001A9FFF741FBB8E7002001A918
S315080011C0FFF706FCB3E7002001A9FFF739FCAEE7F5
S315080011D000800050C82900084FF48012034B5A6655
S315080011E04FF48032024B9A62704700BF009000505D
S315080011F00050005A38B5036804460F2B04D940F648
S31508001200F2217A4801F004FB63680F2B04D940F6F3
S31508001210F521764801F0FCFAA3680F2B04D940F6AD
S31508001220F821724801F0F4FA237B0F2B04D940F613
S31508001230FB216E4801F0ECFA637B0F2B04D940F6CC
S31508001240FE216A4801F0E4FAA37B3F2B04D940F655
S315080012500131664801F0DCFAE37B3F2B04D940F6FE
S315080012600431624801F0D4FA2369032B04D940F605
S3150800127007315E4801F0CCFA6369032B04D940F6BE
S315080012800A315A4801F0C4FAE369032B04D940F637
S315080012900D31564801F0BCFA8020FFF787FE032877
S315080012A000F083804FF48012514B4FF0A0615A66CC
S315080012B045F60E034F4AC2F880304F4B99624FF4F9
S315080012C0803103F580539962916D11F48031FBD119
S315080012D0D4E900031B0543EA0063E07B0343207B54
S315080012E043EA0043607B43EA0033A07B43EA80136A
S315080012F013619069D4E904531B0643EA856300F039
S3150800130000400343A07EE57E0343207E43EA004374
S31508001310607E43EA00239361E069136A00280CBFE4
S315080013200022082223F00F0343EA000343EA850359
S3150800133043EA02032F4A314D136237D194F8243019
S31508001340916A94F82000DB000D4043EA401394F8B4
S3150800135021102B4343EA011343F480339362284B4D
S31508001360916D33EA0101FBD14FF080712248816209
S315080013701369A56823F4700343EA055313614FF014
S315080013800043836194F822300BB91E4B996294F896
S3150800139023301BB94FF480321A4B9A6294F82530E1
S315080013A01BB1144B184AC3F8802038BD022808D14F
S315080013B01161164891614FF408524FF47F4101F0CC
S315080013C034FA0C4994F822308A6A94F820001B06ED
S315080013D0154043EA401394F824202B4343EAC203FA
S315080013E094F8232043EA02438B62D7E7C82900080A
S315080013F0009000500040005A0050005AC7FFFEFEF9
S31508001400030001000060005AF1A7FFFF3440005AAC
S31508001410014B93F9000070477210002010B543681D
S315080014200446072B04D940F6BD412A4801F0F0F9D5
S31508001430A368032B04D940F6BF41264801F0E8F912
S315080014402378032B04D940F6C141224801F0E0F97C
S3150800145094F90130002B04DA40F6C3411D4801F027
S31508001460D7F94FF400011C4A637851664FF4D151FD
S31508001470022002F5B832516218494F2B48604FF0E6
S31508001480010028BF4F2301F5805148601169C9033F
S31508001490FCD4217843EA01235361D4E901131B01E3
S315080014A043EA0123617B0B43217B43EA41039360B3
S315080014B0E37BA17B1B0143EA4113617C0B43217C3F
S315080014C043EA41035360A37C13B16FF4D1535362CB
S315080014D010BD00BFC8290008009000500010025037
S315080014E0014B1880704700BF7010002038B5B0F562
S315080014F0207F77D00ED8B0F5007F61D003D890B39F
S31508001500B0F5C07F2FD040F2FE21BDE838403D48F7
S3150800151001F07EB9B0F5607FF5D13B4A4C1ED2F892
S31508001520FC5015F080751EBFD2F8FC3023F080738E
S31508001530C2F8FC30032C04D940F2DF21314801F00F
S3150800154067F9324BD3F8801021F0300141EA0411D3
S31508001550C3F8801035B12C4AD2F8FC3043F08073BA
S31508001560C2F8FC3038BD102901F1FF3404D8284BE5
S3150800157023FA01F1CB0704D440F2B521214801F042
S3150800158047F901F063F901F06FF94FF48031214B07
S315080015901E4A1967136F23F4704343EA043313672B
S315080015A0FEF7E2FF0446FFF7DBF8C0F1020120462A
S315080015B001F054F900F040F8BDE83840FFF7E6BC02
S315080015C04C1E1F2C04D940F2F2210E4801F020F9D6
S315080015D00E4BD3F8901021F0F85141EA0461C3F894
S315080015E09010BFE74C1E012C04D94FF43E710548F4
S315080015F001F00EF9054B196F21F4806141EA842147
S315080016001967AFE7C829000800ED00E00080005020
S31508001610160101000090005008B50121022000F0D3
S315080016202FF801F013F901F01FF94FF48032014B3E
S315080016301A6708BD0090005008B54FF4C070FFF750
S31508001640A5FBBDE80840044988428CBF0221012158
S315080016504FF42070FFF74ABF80F0FA02024A536B34
S315080016600342FCD1704700BF00400950034A017984
S31508001670D36E23F030030B43D36670470040005007
S315080016802DE9F0410446264BD3F88420D006FBD436
S31508001690D3F88430C3F381139C423ED0FEF74AFF49
S315080016A0012C05460BD11F4B984204D940F23C71D8
S315080016B01D4801F0ADF80121284601F0CFF801F0E8
S315080016C0EDF84FF00072194B07465A66204601F0AE
S315080016D0ECF84FF48063124E621E9340DFF84880A0
S315080016E03367736E9A0103D4D6F884309B060AD5FD
S315080016F0384601F0D7F8022C0FD12846BDE8F0414C
S31508001700002101F0ABB8D6F884309906E9D540F245
S315080017104A71404601F07CF8E3E7BDE8F08100BF76
S3150800172000400050005A6202182A00080060005063
S3150800173007B518B90191FEF7FDFE0199064B1B780E
S3150800174043B1064B984205D8012003B05DF804EB77
S31508001750FFF796BF0220F8E7B1100020005A620290
S3150800176010B54FF00042154B15495A664AF6CD3367
S315080017704C6C0B6404F0010488B90120FFF76EFF76
S315080017804B68DB0704D50F4B58600B6BD807FCD5A5
S3150800179014B10B4B0C4A1A6401F088F810BD0B6B98
S315080017A01A07FCD42022074B9A620122A3F580531C
S315080017B05A60034A936A9B06FCD5E9E700900050F5
S315080017C000400950006009503254FFFF38B54FF009
S315080017D00042164B01465A664AF6CD33144C154A52
S315080017E0656C236443780B205B0043F00103D363E5
S315080017F0FFF734FF63688A7823F4F87343EA021321
S315080018006360CA784B7943EA0223A3600A798B7925
S3150800181043EA022323610878FFF7A2FFEB0744BFD8
S31508001820054B236401F042F8012038BD00900050B2
S3150800183000400950004000503254FFFF70B50F2891
S31508001840044604D940F6C251134800F0E1FF4FF0B0
S315080018500042124B12495D6E03F580535A664AF6EA
S31508001860CD334E6C80200B64FFF7F8FE0B6A23F02D
S315080018700F030F2C94BF234343F00F030B62F307A8
S3150800188044BF084B0B64002DA2BF4FF00042064B25
S315080018905A6601F00BF870BD182A0008008000503F
S315080018A0004009503254FFFF00A0005010B501F067
S315080018B002F8042300F5805100F500520B6113610C
S315080018C00B6113610B6113610B611361202341F2F4
S315080018D0020103610023C360836041614FF4A021C4
S315080018E08361836541620549C36103628362C3629A
S315080018F043630365D164036310BD00BFFF3F0D0357
S3150800190038B5174B044698420D4607D0154B9842F2
S3150800191004D040F26511144800F07AFF25B9204634
S31508001920BDE8384000F0C7BF012204F580535A606D
S3150800193040F6FF71204605F00F0200F0B8FFA263DB
S31508001940782100F0B4FF05F001036A0748BF43F0A9
S315080019500203A26C02F003029A42FAD138BD00BF14
S315080019600000015B00000A50682A00082DE9F041D2
S3150800197005460C46174622B940F223216D4800F069
S3150800198047FF6D4B9D4200F0C9806C4B9D4200F0AD
S31508001990CA8040F22621674800F03AFF44B940F26F
S315080019A07531644800F034FF2046FFF7EFF9044626
S315080019B0AB68D80744D5BC4204D24FF40C715D48D5
S315080019C000F026FF6B6803F00108B4FBF7F35C1E12
S315080019D0FF2C04D94FF40E71564800F019FFB8F1E0
S315080019E0000F2BD02821284600F061FFAB6C990721
S315080019F01ED1AB6CDA071DD4AE6C16F002061BD1ED
S31508001A0040F245214B4800F003FF284600F053FFFB
S31508001A102B6923F07F4343EA04632B61B8F1000F77
S31508001A2000F0868031462846BDE8F041FFF768BFDA
S31508001A300526EAE70926E8E70626E6E74646E7E74B
S31508001A406B68012B04D04FF416713A4800F0E0FE9B
S31508001A50AB6DA968DB0701F0E00148BF7F004029AC
S31508001A6046D009D8B9B1202938D040F29A21BDE824
S31508001A70F041304800F0CCBE602945D08029F4D129
S31508001A8007EB4703A34204D94FF42571294800F010
S31508001A90BFFE012308E0B7EB141F04D94FF42071E9
S31508001AA0244800F0B5FE10237B436401B4FBF3F32E
S31508001AB0234E203BB6EBC30F4FEAC30404D240F2D1
S31508001AC0A5211C4800F0A4FE28463440012100F058
S31508001AD0EEFE2C63BDE8F04100F0E9BEB7EBD40F8B
S31508001AE004D940F28521134800F092FE0823DBE76B
S31508001AF00626B4FBF6F3BB4204D240F28A210D480F
S31508001B0000F086FE3346CFE7B7EB940F04D940F2D0
S31508001B108F21084800F07CFE0423C5E7002C7FF4DB
S31508001B2047AF562440E7002C7FF442AF57243BE7E3
S31508001B30BDE8F081682A00080000015B00000A5031
S31508001B40F8FF7F0070B5774B044698420D4606D0DD
S31508001B50754B984203D0DF21744800F059FE1DB931
S31508001B60E121724800F054FE6A7BAB687AB1704A8C
S31508001B70934203D9E3216D4800F04AFE2B69D3B19D
S31508001B80DB7BC3B1E621694800F042FE13E0694AEF
S31508001B90934203D9E921654800F03AFE2B6953B10F
S31508001BA01A7F42B1A968644A5B7F914240F2A080DD
S31508001BB0042B00F2A08063682E6923B140F6FF71FA
S31508001BC0204600F074FE2046FFF770FE22696B7B04
S31508001BD0A97B22F087020B43134343F0800323615A
S31508001BE016B32A692369117823F0F8030B43117F8A
S31508001BF043EAC113117943EA4113517A43EA0113BF
S31508001C00D17B43EA81132361E168D2E9053021F0EB
S31508001C10F04121F4702103430B43117B527B43EAC5
S31508001C20812343EAC233E360A368EA7B23F0030314
S31508001C30134343F00103A3602EB32A69A1685388AE
S31508001C4003F4C0430B43A3605179A36843EA812395
S31508001C50A3609379D079616A1B01000203F07003CF
S31508001C6000F4E06021F4772121F4EE6103430B438D
S31508001C70117A527F090301F4E04112040B4302F47E
S31508001C8070221343636263692A7B23F00F031343AD
S31508001C906361B6B12B695A89A2615A7B3AB1214A66
S31508001CA094422AD19A7B254902F00F024A67DA7BC9
S31508001CB03AB11C4A94422AD11B7C204A03F00F03EE
S31508001CC01367D5E901122046FFF750FE0521204685
S31508001CD0FFF716FE2821204600F0E9FD2B78A363BE
S31508001CE000F0E5FDA36CDB4313F4405FFAD170BD49
S31508001CF0042B3FF660AFF02145E70B4A944201BF3B
S31508001D009A7B0E4902F00F02C1F88020CFE7064AF7
S31508001D10944201BF1B7CA2F5CE2203F00F03D367C2
S31508001D20CFE700BF0000015B00000A50682A0008E0
S31508001D30002D3101809698003F4B4C0000900350CF
S31508001D4038B50D460446B0B1012803D0022812D092
S31508001D50032803D13F23EB40DB0704D440F22D418F
S31508001D60064800F055FD302001214443044B01FA92
S31508001D7005F51D5138BD40F2FF33ECE7BB2A0008D4
S31508001D8040D0035038B50D460446B0B1012803D0FB
S31508001D90022812D0032803D13F23EB40DB0704D4E3
S31508001DA040F2FE31064800F033FD3020012144435D
S31508001DB0044B01FA05F51D5138BD40F2FF33ECE737
S31508001DC0BB2A000840E003502DE9F0410D461746AE
S31508001DD098460446002835D0012803D0022831D079
S31508001DE0032803D13F23EB40DB0704D44FF4B0713B
S31508001DF01A4800F00DFD37B129462046B8F1000F04
S31508001E0023D0FFF79DFF0F21072D04EB440688BF5B
S31508001E10A5F108034FEA0616114895BFAB009B00CB
S31508001E2004360C3607FA03F29940304400F067FD91
S31508001E3097B929462046B8F1000F09D0BDE8F04108
S31508001E40FFF77EBF40F2FF33CDE7FFF79BFFDAE7E8
S31508001E50BDE8F041FFF796BFBDE8F0810C2B0008FE
S31508001E6030C00350F8B506460C4615469ABB40F2F4
S31508001E700F11BDE8F8402F4800F0CABC2E4B9E4211
S31508001E8001D12F203DE040F229112A4800F0C0FC7C
S31508001E903AE0032F42D0294B3CE06FEAC5050544DA
S31508001EA02C44B4FBF0F4013C0AD540F275112148E4
S31508001EB000F0AEFC4FF4BB711E4800F0A9FC02E02E
S31508001EC0B4F5007FF6D2B3689B0702D5002C08BF8D
S31508001ED00124B461F8BD03F00307836823F4407353
S31508001EE0836000F0DBFCB26882EA072303F44073E0
S31508001EF05340B36000F0D6FC34B9B6F1B64FBDD145
S31508001F002E20FEF743FF0446B3689A07C1D5032F70
S31508001F1004D00B4B53F827309C4204D84FF4AF71CA
S31508001F20044800F075FC074BD85D6843B5D140F20C
S31508001F306F119EE75D2B000800800650BC2B000839
S31508001F40B02B0008C82B000838B5B0F1B64F0446C8
S31508001F500D4607D0084B984204D040F28F11074827
S31508001F6000F056FC043425B104F58054012323609F
S31508001F7038BD04F50054F9E7008006505D2B0008CB
S31508001F8038B5B0F1B64F04460D4607D0124B984205
S31508001F9004D04FF4D271114800F03AFC0023104ADD
S31508001FA0236404F50053DA636A7804F108037AB9FE
S31508001FB003F5805302221A602046D5E901122B7BCD
S31508001FC0FFF750FF20462978BDE83840FFF7BCBF29
S31508001FD003F50053EEE700BF008006505D2B0008AE
S31508001FE0FFFF1F002DE9F843B0F1B64F0BD0824B27
S31508001FF0984226D0814840F2FB1100F009FC6FF0A8
S315080020000300BDE8F8837E4B402505264FF00008FF
S315080020104FF0030C996800F50054C26B12F4C06FB8
S3150800202015D097050FD5FD225A7009221A7000227D
S31508002030026493F90110012900D15A7093F901003D
S31508002040DFE7704BE0E75605EFD5FE22ECE71F7891
S31508002050082F00F2CD80DFE817F009001F004100C5
S315080020604C006900740096009E00C2004C880A88DD
S31508002070E5060AD5120A02F0060242F0F00201212C
S3150800208019704263C1600120BBE702F0FE02A10796
S3150800209048BF42F00102F2E7170607D5802100F58E
S315080020A00052D1634FF608721A8062E05206EAD5EA
S315080020B04A88E563D70604D502221A700B7843636B
S315080020C0E1E7920765D507221A701B7901EBC30170
S315080020D00B89012BD7D10823C360D4E71706DDD4B3
S315080020E05206D0D54A88E563970752D583F800C0CB
S315080020F093E74C880A88E50643BF120A02F00602EF
S3150800210042F0F00202F0FE02640709D51C7942F09B
S31508002110010201EBC4010989012904BF0821C16034
S31508002120042119700123C3604263ACE71706B5D4CE
S315080021305706A8D54A88E56352072AD507221A7092
S31508002140A1E71A795F8801EBC20EBEF80890B94577
S3150800215011D80132D2B21A714F88A3F8028017F04B
S31508002160040FC3D1FF0702D4012A7FF656AF08220F
S315080021701A700223B0E7DEF80420791C5980D25D74
S3150800218042630622DBE7170688D457067FF57BAF3E
S31508002190E5631E7041E794067FF575AF20261A7928
S315080021A000F5005401EBC2010A89456AE6635C88BA
S315080021B0A24281BF4968661C5E800D5559888A42CD
S315080021C0D5D90424012AC46004D9013A914201D11F
S315080021D00822C2601A78092A3FF429AF53E7D205C4
S315080021E07FF551AF4FF4807100F50052D1631CE7BB
S315080021F04FF609321A801AE7008006505D2B000850
S3150800220098100020A410002038B5B0F1B64F044647
S315080022100D4644D0254B98423ED040F25E312448C4
S3150800222000F0F6FA002D3DD140F25F31204800F06B
S31508002230EFFAB4F1B64F28D11E4B2269D00744BF36
S315080022402022E2606A88910701D5298951B352078D
S3150800225001D52A8A32B34FF480721A6000229D6033
S315080022601A71C023E3606369DB0513D4202204F5E1
S315080022700053DA63104A2046DA63236C43F4FC639E
S315080022802364BDE83840FFF7ADBE084B9C4209D130
S315080022900A4BD2E7636AE6E70029F9D1C4E70029C1
S315080022A0CAD1C1E76FF0030038BD00BF00800650F1
S315080022B05D2B000898100020FFFF1F00A4100020C7
S315080022C00B4B984211D003F5804398420DD003F585
S315080022D08043984209D003F58043984205D003F518
S315080022E08043C31A5842584170470120704700BFBF
S315080022F00080045038B505460C46FFF7E1FF18B9CB
S31508002300A5212D4800F084FA284600F00AFB012290
S3150800231005F500531A632A6B12F00202FBD12379E2
S3150800232061881B0243EA8143617A0B43617800297D
S3150800233014BF402100210B43A17A002914BF802134
S3150800234000210B43E17A002914BF202100210B4309
S31508002350217B002914BF102100210B43617B002932
S3150800236014BF082100210B43A17B002914BF4FF499
S31508002370006100210B43A179002914BF4FF4803175
S3150800238000210B4301216B6005F580531963217801
S3150800239009B90223EB6000236B62E079237A43EAEA
S315080023A080036079002818BF10221A43AA6009B171
S315080023B00123EB6038BD00BFCC2B000807B5094BDD
S315080023C018689A889B7900906846ADF804208DF8BD
S315080023D00630FFF7FBF90C20FFF730FA002003B0B0
S315080023E05DF804FB1E2C000813B50024064A68464F
S315080023F0536F43F00103536700948DF80440FFF7C9
S3150800240035F9204602B010BD0040005030B58BB0FB
S315080024106C46154D0FCD0FC40FCD0FC495E80300BC
S3150800242084E80300114BD3F84C21120314D4D3F8D3
S315080024305041E4B28DF81940FEF7EAFF204480F3D4
S3150800244008008DF818000A48FEF7AAF86846FEF74D
S31508002450D1FE00200BB030BD064B1C884FF6FF732B
S315080024609C4208BF5724E5E7282C00080080E00FA7
S31508002470C01753020001E00F30B587B0084D01AC14
S315080024800FCD0FC42B6801A8236024238DF80530CF
S31508002490FEF7C4FF6420FFF723F8002007B030BD1D
S315080024A0502C000810B56FF0040250210A480B4C56
S315080024B012F0800FD3B21BBF03F00F03043BA3181F
S315080024C01B1802F101020CBF83F8001319764C2A77
S315080024D0EED1002010BD00BF00ED00E000E100E0F5
S315080024E010B50446FEF740F84FF47A729042B0FBF6
S315080024F0F2F105D23621BDE810400C4800F088B943
S315080025000B4BB3FBF1F30B49884201D93C21F2E7A7
S3150800251002FB04F0B0FBF3F0022806D9BDE8104030
S315080025200323B0FBF3F0FDF723BE10BD642C0008AF
S3150800253040420F00E7CD9A3B0422014B1A677047C9
S3150800254000F003501FB501230B2205210220FFF7D7
S315080025503BFC01230B2207210220FFF735FC174914
S315080025601748D1F8F0246C46024042F4E02242F0C3
S315080025700202C1F8F024D1F8EC34034043F4A02356
S3150800258043F00203C1F8EC3403232E20C1F8E834E3
S315080025900121FEF7CFFB0B4B0FCB84E80F0000237E
S315080025A021464FF0B6408DF80030FFF7E9FC0121CF
S315080025B04FF0B640FFF7C8FC04B010BD00C003508A
S315080025C0FCFFF0FFC02C000810B588B0214B002492
S315080025D003930DF10703049301234FF0B64003A9B3
S315080025E08DF80740ADF81430FFF70EFE012820D00D
S315080025F058BB0223ADF80E3001234FF0B64003A9AD
S31508002600ADF81430FFF700FE012817D0D8B901231A
S315080026109DF807408DF8084000208DF809309DF890
S31508002620083063F307009DF8093063F30F2008B0FC
S3150800263010BD4FF0B640FFF7D5FCD7E74FF0B640D0
S31508002640FFF7D0FCE0E70023E4E700238DF8084015
S31508002650E2E700BFA600010007B500F01FF9084B26
S3150800266001905A6903F500535A61FFF765FF012285
S31508002670044B01981A7003B05DF804EB00F012B928
S3150800268000800450B01000201FB501212420FEF759
S3150800269051FB10220021684600F068F90123104C0E
S315080026A0694620468DF80930FFF724FE236BDB07C1
S315080026B004D440F2A4410B4800F0AAF80A4B0222BF
S315080026C0E3610123E360094B5A61A36913431022AE
S315080026D0A361074BC3F880211A6004B010BD00BF80
S315080026E000800450D02C0008C017530200A00450E4
S315080026F000E100E008B5074B044613B1002100E0ED
S3150800270000BF054B1868836A03B19847204600F056
S3150800271029F800BF00000000242D000870B50D4DF3
S3150800272000260D4C641BA410A64209D10B4D0026A9
S315080027300B4C00F023F9641BA410A64205D170BD0A
S3150800274055F8043B01369847EEE755F8043B013641
S315080027509847F2E7741000207410002074100020C7
S3150800276078100020FEE700BF08B500F0E1F8FDF795
S3150800277061FD00F0EAF8FDF76BFDFAE700F024B812
S3150800278008B5FFF78FFE00F033F8FFF717FEFFF7DF
S315080027903DFEFFF771FEFDF767FDFFF725FEBDE875
S315080027A0084000F01AB808B5FDF756FFBDE808401E
S315080027B000F022B800F006B87047704770477047B7
S315080027C0704770470F20704708B500230422194642
S315080027D00120FFF7F9FA002008BD08B501213A20C3
S315080027E0FEF7A8FAFFF7CAFFBDE80840FDF7A2BD45
S315080027F001213A20FEF79EBA082000F00AB8FEE743
S31508002800002070474FF4004070474FF47A707047C5
S31508002810FEE74FF060420123D2F8001E03FA00F0EB
S315080028200843C2F8000E0020704770B505461446E6
S315080028300E4600F033F8296881EA040202EA060423
S315080028404C402C60BDE8704000F02CB808B5FDF788
S315080028509DFEBDE808400021FEF740BA0029CCBF1E
S3150800286001210021FEF73ABA02214FF42070FEF743
S315080028703DBE10B5FDF778FE0446FDF771FFC0F1C1
S3150800288002012046FFF7EAFF01210020FEF750FF6C
S31508002890FEF7D2FEBDE81040FEF778BBEFF31080D6
S315080028A072B6704700B962B6704770477047436D95
S315080028B00B42FCD1704708B54368DA0714D583681C
S315080028C0DB0702D50369D90707D50A235021836395
S315080028D0FFF7EDFF836C9A07FCD1012200F5005340
S315080028E05A6043689B07FCD408BD836C5A06FCD51E
S315080028F04164836C1B06FCD5C06B80B2704770B50B
S31508002900054614460E46FFF7C9FF296881EA040200
S3150800291002EA06044C402C60BDE87040FFF7C2BFCF
S315080029207047036BDA0702D503695B06F9D470476B
S3150800293008B5FFF725FFFFF736FFFFF73BFFFFF761
S315080029403BFFBDE80840FFF738BF08B5FFF736FF7D
S31508002950FFF735FFFFF734FFBDE80840FFF731BF43
S315080029600023042202210120FFF72EBA024403465F
S31508002970934200D1704703F8011BF9E7F8B500BF89
S31508002980F8BC08BC9E467047F8B500BFF8BC08BC42
S315080029909E467047050000000000000080969800DB
S315080029A00201000000000000000000000100000015
S315080029B00000000000000000010000000000000008
S315080029C00000000001040000433A2F557365727336
S315080029D02F4E696B50726F766F73742F53696D70D3
S315080029E06C696369747953747564696F2F53444BC2
S315080029F0732F6765636B6F5F73646B2F706C61749D
S31508002A00666F726D2F656D6C69622F7372632F65C1
S31508002A106D5F636D752E6300433A2F557365727348
S31508002A202F4E696B50726F766F73742F53696D7082
S31508002A306C696369747953747564696F2F53444B71
S31508002A40732F6765636B6F5F73646B2F706C61744C
S31508002A50666F726D2F656D6C69622F7372632F6571
S31508002A606D5F656D752E6300433A2F5573657273F6
S31508002A702F4E696B50726F766F73742F53696D7032
S31508002A806C696369747953747564696F2F53444B21
S31508002A90732F6765636B6F5F73646B2F706C6174FC
S31508002AA0666F726D2F656D6C69622F7372632F6521
S31508002AB06D5F6575736172742E6300633A5C757336
S31508002AC06572735C6E696B70726F766F73745C7324
S31508002AD0696D706C696369747973747564696F5C20
S31508002AE073646B735C6765636B6F5F73646B5C7051
S31508002AF06C6174666F726D5C656D6C69625C696E3B
S31508002B00635C656D5F6770696F2E6800433A2F5581
S31508002B10736572732F4E696B50726F766F73742F6D
S31508002B2053696D706C696369747953747564696FF8
S31508002B302F53444B732F6765636B6F5F73646B2FFB
S31508002B40706C6174666F726D2F656D6C69622F7338
S31508002B5072632F656D5F6770696F2E6300433A2F46
S31508002B6055736572732F4E696B50726F766F7374F7
S31508002B702F53696D706C69636974795374756469E8
S31508002B806F2F53444B732F6765636B6F5F73646B6B
S31508002B902F706C6174666F726D2F656D6C69622F2C
S31508002BA07372632F656D5F6932632E6300000000E0
S31508002BB080841E00404B4C00809FD50080841E00F8
S31508002BC040548900002D310108091108433A2F5550
S31508002BD0736572732F4E696B50726F766F73742FAD
S31508002BE053696D706C696369747953747564696F38
S31508002BF02F53444B732F6765636B6F5F73646B2F3B
S31508002C00706C6174666F726D2F656D6C69622F7377
S31508002C1072632F656D5F74696D65722E63000103BB
S31508002C2010010109030000000B0000000C00000061
S31508002C300300000000002020000000000300000040
S31508002C403C3C3C00000000000000000000000000C2
S31508002C50012600000400000000000000000100003A
S31508002C6000000000433A2F55736572732F4E696B47
S31508002C7050726F766F73742F53696D706C696369E0
S31508002C80747953747564696F2F53444B732F676552
S31508002C90636B6F5F73646B2F706C6174666F726DB4
S31508002CA02F736572766963652F7564656C61792F14
S31508002CB07372632F736C5F7564656C61792E63003C
S31508002CC00101000000000000A086010000000000CD
S31508002CD0633A5C75736572735C6E696B70726F7656
S31508002CE06F73745C73696D706C69636974797374F6
S31508002CF07564696F5C73646B735C6765636B6F5F40
S31508002D0073646B5C706C6174666F726D5C656D6C18
S31508002D1069625C696E635C656D5F74696D65722E68
S30D08002D206800000010100020F5
S30D08002D2890D4FF7F01000000B2
S31108002D303C2D0008001000201F000000C9
S31508002D3CC0EA2101C0EA2101C01753020080000035
S31508002D4C0000000000000000000000000000000069
S31508002D5C0000000000000000000000000000000059
S31508002D6C0000000000000000000000000000000049
S31508002D7C0000000000000000000000000000000039
S31508002D8C0000000000000000000000000000000029
S31508002D9C0000000000000000000000000000000019
S31108002DACFFFF28009D01000879010008BF
S705080004618D
