S01500004C504544545F4932435F44656D6F2E73333765
S3150800000000100020DD070008658E0008658E0008D0
S31508000010658E0008658E0008658E0008658E0008E6
S31508000020658E0008658E0008658E0008658E0008D6
S31508000030658E0008658E0008658E0008658E0008C6
S31508000040658E0008658E0008658E0008658E0008B6
S315080000502D780008658E0008658E0008658E0008F4
S31508000060658E0008D5060008C5060008658E0008D6
S31508000070658E0008658E0008658E0008658E000886
S31508000080658E0008658E0008658E0008658E000876
S31508000090658E0008E50F0008658E0008658E000865
S315080000A0658E0008658F00083D8F0008658E00087C
S315080000B0658E0008658E0008658E0008658E000846
S315080000C0658E0008658E0008658E0008658E000836
S315080000D0658E0008658E0008658E0008658E000826
S315080000E0658E0008658E0008658E0008658E000816
S315080000F08D920008658E0008658E0008658E0008DA
S31508000100658E0008658E0008658E0008658E0008F5
S31508000110658E0008658E0008658E0008658E0008E5
S31508000120658E0008658E0008658E0008658E0008D5
S31508000130658E0008658E0008658E0008658E0008C5
S31508000140658E0008658E0008658E0008C59A000849
S31508000150658E0008658E0008658E0008658E0008A5
S31508000160658E0008658E0008658E0008658E000895
S3150800017010B5054C237833B9044B13B1044800E095
S3150800018000BF0123237010BD94100020000000005A
S3150800019078A9000808B5034B1BB10349034800E0DA
S315080001A000BF08BD000000009810002078A90008CC
S315080001B0A3F5803A704700BF174B002B08BF134BB7
S315080001C09D46FFF7F5FF00218B460F461348144A54
S315080001D0121A09F0B7FD0E4B002B00D098470D4BAD
S315080001E0002B00D098470020002104000D000D4880
S315080001F0002802D00C4800E000BF07F02DFE2000C2
S31508000200290008F06BFD07F013FE00BF0000080088
S3150800021000000000000000000010002094100020DC
S31508000220A4150020000000000000000008B507F033
S3150800023037FC07F0B3FA09F0A2FC024B00221A7049
S3150800024000BF08BD8615002010B588B000238DF8BC
S315080002501F3000230693724B1B78002B00F0DC80BE
S3150800026004AB06221946322009F098FC03468DF89D
S315080002701F309DF81F30002B00F0828008F0EEFD3D
S3150800028008F0EEFD674B1C6809F034FD0246664B24
S315080002900093664B6649204609F077F808F0DEFDBC
S315080002A008F0DEFD5F4B1C6809F024FD02469DF848
S315080002B0103001935C4B00935C4B5E49204609F075
S315080002C064F808F0CBFD08F0CBFD564B1C6809F026
S315080002D011FD02469DF811300193534B0093534B81
S315080002E05549204609F051F808F0B8FD08F0B8FD60
S315080002F04C4B1C6809F0FEFC02469DF8123001932F
S31508000300494B0093494B4D49204609F03EF808F001
S31508000310A5FD08F0A5FD434B1C6809F0EBFC024659
S315080003209DF813300193404B0093404B44492046B7
S3150800033009F02BF808F092FD08F092FD394B1C687D
S3150800034009F0D8FC02469DF814300193364B009309
S31508000350364B3C49204609F018F808F07FFD08F0AE
S315080003607FFD304B1C6809F0C5FC02469DF8153028
S3150800037001932D4B00932D4B3349204609F005F880
S315080003800DF10F03012219462D2009F007FC03463B
S315080003908DF81F309DF81F30002B12D008F05EFD37
S315080003A008F05EFD1F4B1C6809F0A4FC02469DF888
S315080003B00F3001931C4B00931C4B2449204608F030
S315080003C0E4FF0DF10E03012219462C2009F0E6FB85
S315080003D003468DF81F309DF81F30002B12D008F009
S315080003E03DFD08F03DFD0F4B1C6809F083FC0246F5
S315080003F09DF80E3001930C4B00930C4B1449204684
S3150800040008F0C3FF9DF81F30002B02D0069B01336E
S315080004100693034B00221A7000BF08B010BD00BF38
S31508000420861500205011002008A10008FC9F00082E
S3150800043004A000082CA0000844A000085CA000083E
S3150800044074A000088CA00008A4A00008BCA000089E
S31508000450E4A0000808B501F013FF08F0C4FD304B0E
S315080004601B6F23F007032E4A43F00303136708F0B4
S31508000470C7FD2C4B9B6A03F08073002B06D1294BD2
S3150800048003F500531A464FF480339362244BD3F88E
S31508000490203123F00703224A43F00203C2F8203131
S315080004A01F4BD3F8283123F007031D4A43F00203F4
S315080004B0C2F828311A4BD3F8403123F00303184AFF
S315080004C043F00203C2F84031154BD3F8603123F0EC
S315080004D00303134A43F00203C2F86031104BD3F802
S315080004E0403223F003030E4A43F00203C2F84032B7
S315080004F00B4BD3F8003223F00703094A43F00203F3
S31508000500C2F80032064BD3F8083223F00703044A30
S3150800051043F00203C2F808320023184608BD00BF9C
S31508000520008000500040005A00B583B00346009191
S315080005308DF807309DF80730002B14D09DF807304A
S31508000540012B0ED09DF80730022B07D09DF80730F7
S31508000550032B01D13F2308E0002306E040F2FF33D6
S3150800056003E03F2301E040F2FF33009AD34003F053
S315080005700103002B04D14FF483610B4808F07EFC7D
S315080005809DF8072013465B0013441B0103F1100274
S31508000590064B13440099184608F0E7FB034618462D
S315080005A003B05DF804FB00BF1CA1000830C003506F
S315080005B030B599B02F4B10AC1D460FCD0FC495E83A
S315080005C0070084E807004FF4E13312930023ADF8DF
S315080005D04E304FF48053ADF8503000238DF8593023
S315080005E00BAB00221A605A609A60DA601A61224BD5
S315080005F00B9329230C9304238DF8353005238DF8A6
S3150800060037301E4A09AB92E8030083E8030003ABC0
S3150800061000221A605A609A60DA601A615A6103AB5E
S3150800062009AA92E8030083E8030009238DF8143029
S315080006300A238DF81530124B0693202307930123BE
S315080006408DF8213000238DF822300BAB10AA03A9B0
S315080006500C4800900C4805F067FB1790179B002B79
S3150800066003D08521094808F009FC179B184619B0DC
S3150800067030BD00BFA0A1000800C00550BCA10008FD
S3150800068030110020DC100020B810002070A10008EE
S3150800069000B583B00849094805F000FFFFF788FF51
S315080006A00190019B002B03D09721054808F0E6FB33
S315080006B000BF03B05DF804FB00100020B010002056
S315080006C070A1000808B5024805F06EFC00BF08BD19
S315080006D0B810002008B5024805F066FC00BF08BD42
S315080006E0B810002008B5034808F04CFB0346184626
S315080006F008BD00BFB810002000B585B003460A46FD
S315080007008DF8073013468DF806309DF80730022B12
S3150800071003D09DF80730032B13D19DF80630012B23
S3150800072003D09DF80630002B0BD104210020FFF7DB
S31508000730FBFE0390039B04220421002002F0DEFF47
S315080007401AE09DF80630022B03D09DF80630032BDD
S3150800075012D19DF80730012B03D09DF80730002BE6
S315080007600AD104210020FFF7DFFE0390039B002235
S315080007700421002002F0C2FF9DF80630012B07D89D
S31508000780054B5B6A054A12681268012110469847AC
S3150800079000BF05B05DF804FBDC100020081000203F
S315080007A008B5094B01221A70084B00221A70084B2B
S315080007B004221A70074B1F221A7004F011FE034612
S315080007C0054A136000BF08BD861000208715002063
S315080007D087100020881000205011002000B585B031
S315080007E000F07EF81F4B039319E0002302930EE0F6
S315080007F0039B1A68029B9B001A44039B5968029B39
S315080008009B000B4412681A60029B01330293039BF8
S315080008109B68029A9A42EBD3039B0C330393039B80
S31508000820114A9342E1D3114B019314E0002300933C
S3150800083009E0019B1A68009B9B00134400221A607A
S31508000840009B01330093019B5B68009A9A42F0D3A0
S31508000850019B08330193019B054A9342E6D3FFF7B0
S31508000860ABFC00BF80A900088CA900088CA9000869
S315080008708CA9000882B003468DF807309DF9073029
S31508000880002B0CDB9DF8073003F01F0205499DF984
S3150800089007305B09012000FA02F241F8232000BF65
S315080008A002B0704700E100E082B003468DF80730D9
S315080008B09DF90730002B0DDB9DF8073003F01F026A
S315080008C006499DF907305B09012000FA02F26033F8
S315080008D041F8232000BF02B0704700BF00E100E0E6
S315080008E008B51D4B1D4A9A601B4BD3F888301A4A27
S315080008F043F47003C2F88830194B03F580531A463F
S315080009004FF480439366174B03F500531A464FF08E
S31508000910FF331366134B03F500531A46124B5366FF
S31508000920124B02221A60BFF34F8F00BFBFF36F8FBF
S3150800093000BF0020FFF7B8FF0A4B03F500531A461D
S315080009404FF44033D3600020FFF794FF054B4FF474
S3150800095040321A6100BF08BD00ED00E00000000843
S315080009600080005000800044F7FF3700D0ED00E01B
S31508000970014B1B68184670471410002000B583B059
S31508000980002301930E4B1B6F03F00703032B09D0BB
S31508000990032B0ED8012B09D0022B0AD1FFF7E8FF4B
S315080009A0019007E0074B1B68019303E0064B019390
S315080009B000E0FEE7019B184603B05DF804FB00BFA4
S315080009C0008000500C100020002D310100B583B0C6
S315080009D0FFF7D4FF01900A4B1B6F1B0B03F00F03A5
S315080009E00093009B0133019AB2FBF3F30193054A86
S315080009F0019B1360019B184603B05DF804FB00BF1A
S31508000A000080005018100020014B1846704700BFA0
S31508000A1000B4C404014B1B68184670470C1000202C
S31508000A2000B583B00190074A019B1360064B1B6F04
S31508000A3003F00703032B01D1FFF7C8FF00BF03B07C
S31508000A405DF804FB0C10002000800050014B18468E
S31508000A50704700BF002D310182B0002301934FF08B
S31508000A60B4439B681B0C03F01F030C2B4CD801A244
S31508000A7052F823F0A90A0008090B0008090B000818
S31508000A80090B0008090B0008090B0008E50A00080D
S31508000A90EB0A0008F10A0008090B0008F70A000823
S31508000AA0FD0A0008030B00084FF0B4439B6803F0E7
S31508000AB04073B3F1007F0ED0B3F1007F0ED8002B40
S31508000AC003D0B3F1807F03D008E0124B019308E00E
S31508000AD0114B019305E0114B019302E000230193AA
S31508000AE000BF12E00E4B01930FE00E4B01930CE092
S31508000AF00D4B019309E00D4B019306E00C4B019356
S31508000B0003E00C4B019300E000BF019B184602B0BE
S31508000B10704700BF00093D0080841E0040420F0058
S31508000B20405DC6000024F400C0EA210180BA8C01A9
S31508000B300048E801005A6202014B1B6818467047D4
S31508000B401010002000B583B001900091009B002B87
S31508000B5002D0019B002B03D13721074808F08EF9F4
S31508000B60019B1A68009B1A60019B009A1A6000BFD5
S31508000B7003B05DF804FB00BFC4A1000884B001906F
S31508000B800B4B1A68019B13440A4A934202D94FF049
S31508000B90FF3309E0064B1B680393054B1A68019B54
S31508000BA01344034A1360039B184604B0704700BFFA
S31508000BB01C1000200000042000B585B001900091AB
S31508000BC0204B1B7883F00103DBB2002B01D01E4BB0
S31508000BD034E0019B002B01D11C4B2FE008F063FA8F
S31508000BE002900023039322E0194A039B1B01134436
S31508000BF00C331B7883F00103DBB2002B14D0039A65
S31508000C00019B1A60124A039B1B0113440C330122F1
S31508000C101A700F4A039B1B01134400221A6002989C
S31508000C2008F051FA002309E0039B01330393039B61
S31508000C30072BD9DD029808F046FA064B184605B088
S31508000C405DF804FB88150020028000F0018000F0A2
S31508000C5054110020048000F000B585B000238DF8FB
S31508000C600B3008F020FA0190002303930EE0154A92
S31508000C70039B1B0113440C331B78002B03D0012361
S31508000C808DF80B3005E0039B01330393039B072B79
S31508000C90EDDD9DF80B3083F00103DBB2002B09D0A4
S31508000CA003F09CFA084B00221A70019808F00BFA18
S31508000CB0002303E0019808F006FA044B184605B02D
S31508000CC05DF804FB5411002088150020058000F00B
S31508000CD000B585B00190164B1B7883F00103DBB293
S31508000CE0002B01D0134B1FE0019B072B01D9124B98
S31508000CF01AE008F0D8F90390104A019B1B01134427
S31508000D000C331B78002B0BD00C4A019B1B01134498
S31508000D100C3300221A70039808F0D5F9002303E073
S31508000D20039808F0D0F9064B184605B05DF804FBA1
S31508000D3088150020028000F0018000F05411002080
S31508000D40068000F000B585B0194B1B680193002397
S31508000D508DF8043008F0A7F90290164B1B78002B83
S31508000D6004D0029808F0AFF9134B1DE0114B01228D
S31508000D701A70029808F0A7F90023039309E00F4AAE
S31508000D80039B1B0113440C3300221A70039B013387
S31508000D900393039B072BF2DD08238DF8073001AB7D
S31508000DA0184603F055FA0023184605B05DF804FB0B
S31508000DB014A2000888150020038000F054110020B2
S31508000DC000B583B00190124B1B7883F00103DBB2A8
S31508000DD0002B01D00F4B17E0019B072B01D90E4BB7
S31508000DE012E00E4A019B1B0113440C331B7883F057
S31508000DF00103DBB2002B01D0094B05E0019B002162
S31508000E00184603F005FA0023184603B05DF804FBFC
S31508000E1088150020028000F0018000F0541100209F
S31508000E20078000F000B583B00190124B1B7883F061
S31508000E300103DBB2002B01D00F4B17E0019B072BF8
S31508000E4001D90E4B12E00E4A019B1B0113440C33C9
S31508000E501B7883F00103DBB2002B01D0094B05E0B8
S31508000E60019B0121184603F0D3F90023184603B065
S31508000E705DF804FB88150020028000F0018000F070
S31508000E8054110020078000F000B583B00190124B82
S31508000E901B7883F00103DBB2002B01D00F4B16E061
S31508000EA0019B072B01D90E4B11E00E4A019B1B0132
S31508000EB013440C331B7883F00103DBB2002B01D0FB
S31508000EC0094B04E0019B184603F03CFB0023184637
S31508000ED003B05DF804FB00BF88150020028000F00F
S31508000EE0018000F054110020078000F082B00190C4
S31508000EF00091194B1B7883F00103DBB2002B01D05C
S31508000F00164B25E0019B072B02D8009B002B01D12D
S31508000F10134B1DE0134A019B1B0113440C331B782A
S31508000F2083F00103DBB2002B01D00F4B10E00F4B0F
S31508000F301B6D0121019A01FA02F21340002B03D01E
S31508000F40009B01221A7002E0009B00221A700023FF
S31508000F50184602B0704700BF88150020028000F0CE
S31508000F60018000F054110020078000F000000450B2
S31508000F7000B583B001900091154B1B7883F00103EF
S31508000F80DBB2002B01D0134B1DE0019B072B02D8C7
S31508000F90009B002B01D1104B15E0104A019B1B0149
S31508000FA013440C331B7883F00103DBB2002B01D00A
S31508000FB00B4B08E0019B184603F0EEFA03461A4667
S31508000FC0009B1A700023184603B05DF804FB00BFA7
S31508000FD088150020028000F0018000F054110020DE
S31508000FE0078000F000B587B0364B1B6D0393354B71
S31508000FF05B6D039A13400393039B002B00DAFEE70D
S31508001000002305930123049353E0039A049B13409A
S31508001010002B48D02B4B03F500531A46049B136547
S31508001020059B1B01284A13440293029B1B68002B4D
S3150800103039D0029B9B685A1C029B9A60029B1B68CC
S31508001040029A9168029A5268059898470346002BB7
S3150800105014BF01230023DBB283F00103DBB28DF852
S3150800106007309DF8073003F001038DF80730029B1F
S315080010705B7B012B17D19DF80730002B13D0134A41
S31508001080059B5B01134403F1080213796FF34103CF
S3150800109013710E4A059B5B01134403F11802137979
S315080010A06FF341031371059B01330593049B5B00A2
S315080010B00493059B072BA8D900BF00BF07B05DF8AE
S315080010C004FB00BF0000045054110020D411002076
S315080010D010B58AB00292019303468DF80F300B467D
S315080010E08DF80E307B4B1B7883F00103DBB2002BA7
S315080010F001D0794BEBE0029B072B10D80C9B002BF9
S315080011000DD00D9B002B0AD0109BB3F5006F06DCA3
S315080011109DF80F30012B04D10E9B002B01D16F4B8C
S31508001120D5E0029B1B016E4A13440993099B1B7B5E
S3150800113083F00103DBB2002B01D06A4BC7E004AB96
S3150800114000221A605A609A60DA60029B5B01664A5E
S31508001150134408939DF80E30002B1DD1089B1A46A0
S315080011600023136053609360D360089A937843F022
S3150800117010039370089AD37843F03003D3709DF820
S315080011803C3083F00103DBB2002B22D0089AD378D7
S3150800119043F00303D3701CE0089B1A460023136030
S315080011A053609360D360089A937843F01003937062
S315080011B0089AD37843F00303D3709DF83C3083F044
S315080011C00103DBB2002B04D0089AD37843F030032E
S315080011D0D370019B0493109B9BB2013B9BB2C3F354
S315080011E00A0399B2089A138861F30E1313800C9AAE
S315080011F0089B9A600D9A089B5A609DF8443003F044
S315080012000303D9B2089AD37861F38303D3709DF8A0
S315080012100F30012B3BD1089A137B43F0010313735C
S31508001220089A137B43F002031373089AD3680421C0
S3150800123061F39F03D3602C4A029B5B01134403F1BD
S315080012401002089B14460FCB84E80F00264A029B1F
S315080012505B01134403F1180253686FF0030161F34D
S315080012609F0353600E9A2049029B5B010B4414337B
S315080012701A609DF80E30012B09D10D9A1A49029B66
S315080012805B010B4418331A600E9A089B5A60129B2E
S31508001290002B08D19DF80F30002B04D1089A9378BB
S315080012A06FF304139370099B129A1A60099B139A99
S315080012B05A60099B00229A60099B9DF80F205A7371
S315080012C0029B04A9089A184603F038F80023184622
S315080012D00AB010BD88150020028000F0018000F0D9
S315080012E054110020078000F0D411002082B0034674
S315080012F08DF807309DF90730002B0CDB9DF8073079
S3150800130003F01F0205499DF907305B09012000FA21
S3150800131002F241F8232000BF02B0704700E100E066
S3150800132082B003468DF807309DF90730002B0DDB98
S315080013309DF8073003F01F0206499DF907305B093F
S31508001340012000FA02F2603341F8232000BF02B000
S31508001350704700BF00E100E082B00190044B03F53E
S3150800136000531A46019BC2F8203400BF02B07047EA
S3150800137000C0035082B0064BD3F824340193044BC3
S31508001380D3F82024019B1340184602B0704700BFCB
S3150800139000C0035000B587B001902BE0019807F014
S315080013A09CFD05900122059B02FA03F3DB43019A93
S315080013B013400193059B1B01124A13440493049B93
S315080013C05B68002B16D0049B1B7B002B0AD0049B62
S315080013D05B680293059BDAB2049B9968029B1046E8
S315080013E0984707E0049B5B680393059BDAB2039B67
S315080013F010469847019B002BD0D100BF00BF07B00D
S315080014005DF804FBD412002000B587B00390029162
S315080014100192029B1F2B03D991210C4807F02EFD40
S31508001420019B002B04D0039B03F58053059303E02F
S31508001430039B03F500530593059B0121029A01FAC4
S3150800144002F21A6000BF07B05DF804FB18A2000894
S3150800145008B500BF0421044807F09EFD0346002B8B
S31508001460F8D100BF00BF08BD8440005008B5FFF79B
S31508001470EFFF044BD3F884309B0903F00303DBB278
S31508001480184608BD00400050054BDB6903F480335D
S31508001490002B14BF01230023DBB21846704700BF98
S315080014A000000350024B0022DA6300BF704700BFFA
S315080014B000000350024B41F67132DA6300BF7047F1
S315080014C000000350014B5B68184670470000035044
S315080014D082B00190024A019B536000BF02B0704778
S315080014E00000035000B585B0019000230393019BCB
S315080014F0B3F5607F35D0019BB3F5607F59D8019B62
S31508001500B3F5207F4ED0019BB3F5207F51D8019BC0
S31508001510B3F5007F3ED0019BB3F5007F49D8019B08
S31508001520002B03D0019BB3F5C07F42D1264B1B6F1E
S315080015301B0B03F00F030393039B002B3BD0039B6A
S31508001540012B38D0039B032B35D0039B072B32D0B6
S31508001550039B0F2B2FD04FF41D711C4807F08EFCF0
S3150800156029E0194BD3F880301B0903F003030393D2
S31508001570039B002B21D0039B012B1ED0039B022B20
S315080015801BD0039B032B18D04FF421710F4807F08B
S3150800159075FC12E00C4BD3F890301B0E03F01F03BA
S315080015A003930BE0084B1B6F9B0A03F0010303939D
S315080015B004E000BF02E000BF00E000BF039B013368
S315080015C0184605B05DF804FB0080005064A20008C8
S315080015D010B584B001900091019BB3F5607F54D09B
S315080015E0019BB3F5607F00F2BA80019BB3F5207FBB
S315080015F000F09F80019BB3F5207F00F2B080019B2D
S31508001600B3F5007F7DD0019BB3F5007F00F2A7807C
S31508001610019B002B04D0019BB3F5C07F40F09F804F
S31508001620009B012B10D0009B022B0DD0009B042B96
S315080016300AD0009B082B07D0009B102B04D040F241
S31508001640B5214C4807F01AFC07F00DFD07F003FD1D
S3150800165001F0DEF9484B1B6F23F47042009B013BF7
S315080016601B03454913430B6707F090FC0446FFF735
S31508001670FDFE0346C3F102031946204607F0D7FCD0
S3150800168001F0FEFB01F0D0F970E03C4BDB6803F09B
S315080016908073002B14BF012300238DF80F309DF8AB
S315080016A00F30002B05D0354BDB68344A23F08073A6
S315080016B0D360009B012B0DD0009B022B0AD0009B08
S315080016C0032B07D0009B042B04D040F2DF212948C6
S315080016D007F0D4FB284BD3F8803023F03002009B68
S315080016E0013B1B0124491343C1F880309DF80F3094
S315080016F0002B3AD0214BDB68204A43F08073D36035
S3150800170033E0009B002B02D0009B202B04D940F22B
S31508001710F221184807F0B2FB174BD3F8903023F0A4
S31508001720F852009B013B1B0613491343C1F890303E
S315080017301CE0009B012B07D0009B022B04D04FF422
S315080017403E710C4807F09AFB0B4B1B6F23F4806223
S31508001750009B013B9B02084913430B6706E040F2D6
S31508001760FE21044807F08AFB00E000BF00BF04B072
S3150800177010BD00BF64A2000800800050F0ED00E034
S3150800178000B585B001900B468DF80330002303930E
S31508001790019B5B09002B05D140F21B31124807F06B
S315080017A06DFB12E0019B5B09012B02D10F4B0393E2
S315080017B00BE0019B5B09022B02D10D4B039304E05E
S315080017C040F22531084807F059FB019B03F01F0337
S315080017D002939DF803301A4602990398FFF714FE00
S315080017E000BF05B05DF804FB64A2000864800050E1
S315080017F06880005010B584B001900023039300233D
S315080018000293019BB3F5486F00F02983019BB3F55A
S31508001810486F00F23683019BB3F5406F00F0EF8204
S31508001820019BB3F5406F00F22C83019BB3F5286F3B
S3150800183000F01B83019BB3F5286F00F22283019BFE
S31508001840B3F5206F00F00583019BB3F5206F00F216
S315080018501883019BB3F5106F00F0EF82019BB3F577
S31508001860106F00F20E83019BB3F5F06F00F003834F
S31508001870019BB3F5F06F00F20483019BB3F5E06FAB
S3150800188000F0E182019BB3F5E06F00F2FA82019B5A
S31508001890B3F5D06F00F0CB82019BB3F5D06F00F2A1
S315080018A0F082019BB3F5C06F00F0BB82019BB3F5D4
S315080018B0C06F00F2E682019BB3F5B06F00F0A58217
S315080018C0019BB3F5B06F00F2DC82019BB3F5A06F04
S315080018D000F08F82019BB3F5A06F00F2D282019BC4
S315080018E0B3F5806F00F07F82019BB3F5806F00F23D
S315080018F0C882019BB3F5607F00F06682019BB3F551
S31508001900607F00F2BE82019BB3F5407F00F04F82F4
S31508001910019BB3F5407F00F2B482019BB3F5207FAB
S3150800192000F03982019BB3F5207F00F2AA82019B61
S31508001930B3F5007F00F02382019BB3F5007F00F228
S31508001940A082019BB3F5807F00F20A82019BB3F562
S31508001950807F00F2968201A252F823F0751D0008D6
S31508001960831E0008831E0008831E0008831E0008C5
S31508001970831E0008831E0008831E0008831E0008B5
S31508001980831E0008831E0008831E0008831E0008A5
S31508001990831E0008831E0008831E0008831E000895
S315080019A0831E0008831E0008831E0008831E000885
S315080019B0831E0008831E0008831E0008831E000875
S315080019C0831E0008831E0008831E0008831E000865
S315080019D0831E0008831E0008831E0008751D000864
S315080019E0971D0008751D0008971D0008E71D0008CB
S315080019F0E71D0008E71D0008E71D0008E71D0008A9
S31508001A00971D00080B1E0008AF1D0008231E0008BE
S31508001A102F1E0008AF1D0008971D0008971D000817
S31508001A20971D0008831E0008831E0008831E0008F1
S31508001A30831E0008831E0008831E0008831E0008F4
S31508001A40831E0008971D0008971D0008971D0008AB
S31508001A50771E0008471E0008971D0008831E000809
S31508001A60831E0008831E0008831E0008831E0008C4
S31508001A70831E0008831E0008831E0008831E0008B4
S31508001A80831E0008831E0008831E0008831E0008A4
S31508001A90E71D0008751D0008751D0008751D00085E
S31508001AA03B1E0008AF1D0008AF1D0008531E0008A6
S31508001AB06B1E0008F31D0008FF1D0008831E0008A2
S31508001AC0831E0008831E0008831E0008831E000864
S31508001AD05F1E0008751D0008831E0008831E000887
S31508001AE0831E0008831E0008831E0008831E000844
S31508001AF0831E0008831E0008831E0008831E000834
S31508001B00831E0008831E0008831E0008831E000823
S31508001B10831E0008831E0008831E0008831E000813
S31508001B20831E0008831E0008831E0008831E000803
S31508001B30831E0008831E0008831E0008831E0008F3
S31508001B40831E0008831E0008831E0008831E0008E3
S31508001B50831E0008831E0008831E00086B1D0008EC
S31508001B60831E0008831E0008831E0008831E0008C3
S31508001B70831E0008831E0008831E0008831E0008B3
S31508001B80831E0008831E0008831E0008831E0008A3
S31508001B90831E0008831E0008831E0008831E000893
S31508001BA0831E0008831E0008831E0008831E000883
S31508001BB0831E0008831E0008831E0008831E000873
S31508001BC0831E0008831E0008831E0008831E000863
S31508001BD0831E0008831E0008831E0008831E000853
S31508001BE0831E0008831E0008831E0008831E000843
S31508001BF0831E0008831E0008831E0008831E000833
S31508001C00831E0008831E0008831E0008831E000822
S31508001C10831E0008831E0008831E0008831E000812
S31508001C20831E0008831E0008831E0008831E000802
S31508001C30831E0008831E0008831E0008831E0008F2
S31508001C40831E0008831E0008831E0008831E0008E2
S31508001C50831E0008831E0008831E0008831E0008D2
S31508001C60831E0008831E0008831E0008831E0008C2
S31508001C70831E0008831E0008831E0008831E0008B2
S31508001C80831E0008831E0008831E0008831E0008A2
S31508001C90831E0008831E0008831E0008831E000892
S31508001CA0831E0008831E0008831E0008831E000882
S31508001CB0831E0008831E0008831E0008831E000872
S31508001CC0831E0008831E0008831E0008831E000862
S31508001CD0831E0008831E0008831E0008831E000852
S31508001CE0831E0008831E0008831E0008831E000842
S31508001CF0831E0008831E0008831E0008831E000832
S31508001D00831E0008831E0008831E0008831E000821
S31508001D10831E0008831E0008831E0008831E000811
S31508001D20831E0008831E0008831E0008831E000801
S31508001D30831E0008831E0008831E0008831E0008F1
S31508001D40831E0008831E0008831E0008831E0008E1
S31508001D50831E0008831E0008831E0008171E00083D
S31508001D60019BB3F5C07F05D08BE0FEF707FE03465F
S31508001D7003938CE0FEF72AFE0346039387E0FEF7FB
S31508001D80FDFD04464FF40070FFF7ACFB0346B4FBB9
S31508001D90F3F303937BE0FEF719FE04464FF4207035
S31508001DA0FFF7A0FB0346B4FBF3F303936FE0FEF7DC
S31508001DB00DFE04464FF42070FFF794FB0346B4FB70
S31508001DC0F3F35B08039362E002AB0021184600F0C8
S31508001DD041FE029C4FF46070FFF784FB0346B4FB98
S31508001DE0F3F3039353E003AB0021184600F0BEFE5D
S31508001DF04DE003AB0021184600F076FC47E003AB44
S31508001E000021184600F0C4FC41E003AB0021184647
S31508001E1000F0F0FF3BE003AB0021184601F02CF977
S31508001E2035E003AB0021184600F0FEFE2FE003ABB9
S31508001E300021184601F080F829E003AB0021184676
S31508001E4001F0CAF823E003AB0021184601F032F886
S31508001E501DE003AB0021184600F0F8FC17E003ABC1
S31508001E600021184600F046FD11E003AB0021184694
S31508001E7000F094FD0BE003AB0021184600F016FFB6
S31508001E8005E04FF48F61044806F0F8FF00BF039B96
S31508001E90184604B010BD00BF64A2000800B585B09E
S31508001EA0019000230393019BB3F5486F00F0CD81A1
S31508001EB0019BB3F5486F00F2D481019BB3F5406FDF
S31508001EC000F0B181019BB3F5406F00F2CA81019B16
S31508001ED0B3F5286F00F0BF81019BB3F5286F00F2B8
S31508001EE0C081019BB3F5206F00F0A981019BB3F572
S31508001EF0206F00F2B681019BB3F5106F00F07B816D
S31508001F00019BB3F5106F00F2AC81019BB3F5086F26
S31508001F1000F07781019BB3F5086F00F2A281019B5F
S31508001F20B3F5F06F00F05B81019BB3F5F06F00F23B
S31508001F309881019BB3F5E06F00F07B81019BB3F5B7
S31508001F40E06F00F28E81019BB3F5D06F00F04D81F2
S31508001F50019BB3F5D06F00F28481019BB3F5C06F86
S31508001F6000F03781019BB3F5C06F00F27A81019BBF
S31508001F70B3F5B06F00F01B81019BB3F5B06F00F2AB
S31508001F807081019BB3F5A06F00F04781019BB3F503
S31508001F90A06F00F26681019BB3F5806F00F00D819A
S31508001FA0019BB3F5806F00F25C81019BB3F5607FFE
S31508001FB000F02D81019BB3F5607F00F25281019BF1
S31508001FC0802B00F2C780019B242BC0F04A81019B1D
S31508001FD0243B5C2B00F2458101A252F823F000BF96
S31508001FE0BB210008BB210008BB210008BB21000853
S31508001FF0BB21000863220008AF21000863220008FD
S31508002000D3210008EB210008632200086322000898
S31508002010632200086322000863220008632200087E
S31508002020632200086322000863220008632200086E
S31508002030632200086322000863220008632200085E
S3150800204063220008DF210008332200086322000803
S31508002050632200086322000863220008632200083E
S31508002060632200086322000863220008632200082E
S31508002070632200086322000863220008632200081E
S3150800208063220008BB2100086322000863220008B7
S3150800209063220008F721000863220008632200086B
S315080020A03F220008572200081B22000827220008A2
S315080020B063220008632200086322000863220008DE
S315080020C0632200084B2200086322000863220008E6
S315080020D063220008632200086322000863220008BE
S315080020E063220008632200086322000863220008AE
S315080020F0632200086322000863220008632200089E
S31508002100632200086322000863220008632200088D
S31508002110632200086322000863220008632200087D
S31508002120632200086322000863220008632200086D
S31508002130632200086322000863220008632200085D
S31508002140632200086322000863220008632200084D
S315080021505F210008019BB3F5807F34D081E0464BB0
S315080021601B6F03F00703013B032B17D801A252F894
S3150800217023F000BF97210008852100088B2100085D
S31508002180912100080523039310E0032303930DE030
S31508002190082303930AE00223039307E0002303932B
S315080021A040F2AA41354806F069FE00BF5FE003AB7E
S315080021B01946002000F01EFE59E003AB1946002020
S315080021C000F0D4FC53E003AB1946002000F054FF9E
S315080021D04DE003AB1946002000F026FD47E003ABAF
S315080021E01946002000F062FD41E003AB19460020C5
S315080021F000F0A2FE3BE003AB1946002000F0ECFE1F
S3150800220035E003AB1946002000F066FC2FE003AB6F
S315080022101946002000F01EFC29E003AB19460020F1
S3150800222000F062FA23E003AB1946002000F0B0FA8A
S315080022301DE003AB1946002000F03CFE17E003AB97
S315080022401946002000F002FB11E003AB19460020F6
S3150800225000F050FB0BE003AB1946002000F09EFB94
S3150800226005E040F25951054806F008FE00BF039BF9
S31508002270184605B05DF804FB0080005064A200080B
S31508002280074B03F580531A464FF480135366054BE4
S3150800229003F580531A464FF48033936200BF7047A4
S315080022A0008000500040005A00B585B00190019B9F
S315080022B01B680F2B04D940F6F2218F4806F0DEFD85
S315080022C0019B5B680F2B04D940F6F5218A4806F076
S315080022D0D5FD019B9B680F2B04D940F6F82186484B
S315080022E006F0CCFD019B1B7B0F2B04D940F6FB2186
S315080022F0814806F0C3FD019B5B7B0F2B04D940F692
S31508002300FE217D4806F0BAFD019B9B7B3F2B04D935
S3150800231040F60131784806F0B1FD019BDB7B3F2B87
S3150800232004D940F60431744806F0A8FD019B1B69E0
S31508002330032B04D940F607316F4806F09FFD019B31
S315080023405B69032B04D940F60A316B4806F096FD03
S31508002350019BDB69032B04D940F60D31664806F06C
S315080023608DFD8020FFF79AFD0346032B00F00A81B6
S31508002370624B03F580531A464FF480135366604B3D
S3150800238045F60E02C3F880205D4B03F580531A46C6
S315080023904FF0A06393625A4B03F500531A464FF465
S315080023A08033936200BF564B9B6D03F48033002B3A
S315080023B0F9D1019B1B681A06019B5B681B05134331
S315080023C0019A127B12041343019A527B1203134398
S315080023D0019A927B92011343019AD27B1146484A8D
S315080023E00B431361464B9B6903F00042019B1B6933
S315080023F09B061A43019B5B691B061343019A127ECF
S3150800240012041343019A527E12021343019A927ED2
S3150800241011463B4A0B439361394B1B6A23F00F0362
S31508002420019AD269002A01D1002200E0082213434A
S31508002430019AD27E92001A43019BDB693049134305
S315080024400B62019BDB69002B60D12D4B9A6A2D4BE1
S315080024501340019A92F8202052011343019A92F8E8
S31508002460212012011343019A92F82420D200134323
S31508002470234A43F48033936200BF214B9A6D224B63
S315080024801340214A9342F8D11D4B03F580531A464F
S315080024904FF0807393621A4B1B6923F47002019BF9
S315080024A09B681B05164913430B61154B03F58053AF
S315080024B01A464FF000439361019B93F8223083F04C
S315080024C00103DBB2002B06D00D4B03F500531A4669
S315080024D04FF080739362019B93F8233083F00103D6
S315080024E0DBB2002B44D0064B03F500531A464FF4D3
S315080024F0803393623CE000BF64A20008008000506D
S315080025000040005AC7FFFEFE03000100019BDB697D
S31508002510022B12D11D4B00221A611C4B00229A6114
S3150800252002230393039B1A03039B1B0213431A46B6
S315080025304FF47F41164806F03CFD144B9A6A154B3A
S315080025401340019A92F8202052011343019A92F8F7
S31508002550222012061343019A92F82420D20013432C
S31508002560019A92F8232012041146084A0B439362F3
S31508002570019B93F82530002B05D0044B064AC3F877
S31508002580802000E000BF05B05DF804FB0040005A5B
S315080025903440005AC7FFFEFEF1A7FFFF024B93F92E
S315080025A000301846704700BF8910002000B585B076
S315080025B00190019B5B68072B04D940F6BD41404852
S315080025C006F05CFC019B9B68032B04D940F6BF41CF
S315080025D03B4806F053FC019B1B78032B04D940F6B5
S315080025E0C141374806F04AFC019B5B785BB2002B79
S315080025F004DA40F6C341324806F040FC4F23039301
S31508002600019B5B788DF80B309DF80B20039B93425A
S3150800261028BF13468DF80A302A4B03F580531A460D
S315080026204FF400035366284B4FF4D1525A62264B97
S3150800263003F580531A4602235360234B03F50053D0
S315080026401A460123536000BF1F4B1B6903F48033EE
S31508002650002BF9D1019B1B781A029DF80A301A49FA
S3150800266013434B61019B5B681A02019B9B681B0124
S315080026701343019A127B52001343019A527B114667
S31508002680114A0B439360019B9B7B5A01019BDB7BA1
S315080026901B011A43019B1B7C5B001343019A527C66
S315080026A01A43094B5A60019B9B7C002B03D0064BAF
S315080026B06FF4D1525A6200BF05B05DF804FB00BF43
S315080026C064A20008008000500000025082B0034651
S315080026D0ADF80630034ABDF80630138000BF02B0D5
S315080026E0704700BF8410002000B585B001900091A6
S315080026F000230293244BD3F8203203F00703013B4F
S31508002700032B28D801A252F823F000BF1D27000882
S315080027102D2700083B2700084927000802AB00219F
S31508002720184600F035F8122303931CE0FEF794F9D7
S31508002730034602930723039315E006F097FB034627
S3150800274002930A2303930EE0FEF7F6F90346029373
S315080027500923039307E00023039340F6E5610B483A
S3150800276006F08CFB00BF019B002B02D0029A019B4E
S315080027701A60009B002B02D0009B039A1A6000BFC8
S3150800278005B05DF804FB00BF0080005064A2000895
S3150800279000B585B00190009100230393294BD3F827
S315080027A0283103F00703013B052B33D801A252F861
S315080027B023F000BFCD270008F127000809280008E4
S315080027C0E5270008D9270008FD270008FEF7D0F8F6
S315080027D003900523029325E0FEF7CAF80390062323
S315080027E002931FE0FEF738F903900723029319E0D6
S315080027F0FEF710F903900323029313E0FEF70AF994
S315080028000390042302930DE0FEF720F903900223B8
S31508002810029307E00023029340F626710A4806F061
S315080028202DFB00BF019B002B02D0019B039A1A6067
S31508002830009B002B02D0009B029A1A6000BF05B0CD
S315080028405DF804FB0080005064A2000800B585B05E
S315080028500190009100230293244BD3F8603203F0D1
S315080028600703013B032B29D801A252F823F000BF26
S315080028708128000891280008AF280008A128000828
S3150800288002AB0021184600F071F9102303931DE0EE
S3150800289002AB0021184600F0C7F91123039315E08F
S315080028A0FEF7DAF803460293072303930EE0FEF7D2
S315080028B0CDF8034602930223039307E0002303930C
S315080028C040F68A710A4806F0D9FA00BF019B002B28
S315080028D002D0029A019B1A60009B002B02D0009B33
S315080028E0039A1A6000BF05B05DF804FB008000502B
S315080028F064A2000800B585B00190009100230293F8
S31508002900244BD3F8943203F00703013B032B29D851
S3150800291001A252F823F000BF292900083929000826
S31508002920572900084929000802AB0021184600F07B
S315080029301DF9102303931DE002AB0021184600F091
S3150800294073F91123039315E0FEF786F803460293FD
S31508002950072303930EE0FEF779F803460293022352
S31508002960039307E00023039340F6BD710A4806F077
S3150800297085FA00BF019B002B02D0029A019B1A60C0
S31508002980009B002B02D0009B039A1A6000BF05B07B
S315080029905DF804FB0080005064A2000800B585B00D
S315080029A00190009100230293174BD3F8703203F07D
S315080029B00303012B02D0022B08D00CE002AB002146
S315080029C0184600F031F9112303930CE00023029313
S315080029D01523039307E00023039340F6E8710B4899
S315080029E006F04CFA00BF019B002B02D0029A019B0D
S315080029F01A60009B002B02D0009B039A1A6000BF46
S31508002A0005B05DF804FB00BF0080005064A2000812
S31508002A10044B03F580531A464FF48033136700BFFF
S31508002A20704700BF0080005008B58020FEF7E2FE20
S31508002A300346064A934206D8054B03F500531A4641
S31508002A404FF48033136700BF08BD00BF005A620207
S31508002A500080005000B585B00190009100230393D3
S31508002A601B4BD3F8803003F00303032B12D0032B40
S31508002A7016D8012B02D0022B06D011E0FDF77EFFF7
S31508002A8003900E23029313E0FDF7E6FF0390072356
S31508002A9002930DE0FDF76CFF03900623029307E00F
S31508002AA00023029341F2A1010A4806F0E7F900BFA4
S31508002AB0019B002B02D0019B039A1A60009B002BF6
S31508002AC002D0009B029A1A6000BF05B05DF804FBAD
S31508002AD00080005064A2000800B585B001900091FE
S31508002AE0002303931F4BD3F8003103F00303032B92
S31508002AF01FD801A252F823F02D2B0008092B000835
S31508002B00152B0008212B0008FDF784FF03900323EB
S31508002B10029316E0FEF710F803900923029310E0DB
S31508002B2006F0A1F90390082302930AE00123029311
S31508002B3007E00023029341F2D7010B4806F09EF9FD
S31508002B4000BF019B002B02D0019B039A1A60009BD1
S31508002B50002B02D0009B029A1A6000BF05B05DF8F0
S31508002B6004FB00BF0080005064A2000800B585B0D1
S31508002B700190009100230393294BD3F8203103F0E9
S31508002B800703013B052B33D801A252F823F000BFF7
S31508002B90A92B0008B52B0008CD2B0008C12B00086F
S31508002BA0D92B0008E52B0008FDF7E2FE0390052364
S31508002BB0029325E0FDF72EFF0390032302931FE0FF
S31508002BC0FDF74AFF03900723029319E0FDF73EFF3E
S31508002BD003900223029313E0FDF7CAFE039006232F
S31508002BE002930DE0FDF716FF03900423029307E016
S31508002BF00023029341F21A110A4806F03FF900BF72
S31508002C00019B002B02D0019B039A1A60009B002BA4
S31508002C1002D0009B029A1A6000BF05B05DF804FB5B
S31508002C200080005064A2000800B585B001900091AC
S31508002C30002303931B4BD3F8403103F00303032B04
S31508002C4012D0032B16D8012B02D0022B06D011E086
S31508002C5006F00CF903900A23029313E0FDF76CFFC4
S31508002C600390092302930DE006F004F903900C2360
S31508002C70029307E00023029341F248110A4806F03E
S31508002C80FDF800BF019B002B02D0019B039A1A6036
S31508002C90009B002B02D0009B029A1A6000BF05B069
S31508002CA05DF804FB0080005064A2000800B585B0FA
S31508002CB001900091002303931B4BD3F8603103F076
S31508002CC00303032B12D0032B16D8012B02D0022B99
S31508002CD006D011E006F0CAF803900A23029313E01F
S31508002CE0FDF72AFF0390092302930DE006F0C2F8C8
S31508002CF003900C23029307E00023029341F2761116
S31508002D000A4806F0BBF800BF019B002B02D0019BC6
S31508002D10039A1A60009B002B02D0009B029A1A6045
S31508002D2000BF05B05DF804FB0080005064A20008EF
S31508002D3084B0019000914FF440130393009B002B3D
S31508002D400AD1019B0D4A934203D94FF4801303938A
S31508002D500FE0002303930CE0009B002B09DD019B89
S31508002D60074A934203D94FF48013039301E00023E3
S31508002D700393039B184604B0704700BF005A6202CB
S31508002D80002D310100B585B001900091184B03F56F
S31508002D9080531A464FF4803393660020FEF7A2FB51
S31508002DA00246019B02FB03F30193FEF76DFB034604
S31508002DB08DF80F30FEF77EFBFEF784FB034623F4FF
S31508002DC04013029300990198FFF7B2FF0246029B4F
S31508002DD0134302930298FEF77BFB9DF80F30002BF6
S31508002DE001D0FEF75FFB00BF05B05DF804FB00BF2E
S31508002DF00080005000B585B0019000910023029331
S31508002E001D4BD3F8803103F00303032B0ED0032B9D
S31508002E101AD8012B02D0022B0FD015E002AB0021E5
S31508002E201846FFF7A3FE1023039315E0FDF714FEDB
S31508002E3003460293072303930EE0FDF707FE0346B6
S31508002E4002930223039307E00023039341F26721C9
S31508002E500A4806F013F800BF019B002B02D0029A1D
S31508002E60019B1A60009B002B02D0009B039A1A60F4
S31508002E7000BF05B05DF804FB0080005064A200089E
S31508002E8000B583B0022301934FF4C070FEF7B2FC7D
S31508002E900346074A934201D80123019301994FF447
S31508002EA02070FEF795FB00BF03B05DF804FB00BF7A
S31508002EB080F0FA0200B585B00190009100230393D3
S31508002EC01B4BD3F8403203F00303032B12D0032B1A
S31508002ED016D8012B02D0022B06D011E005F0C6FF4A
S31508002EE003900A23029313E0FDF726FE03900923B5
S31508002EF002930DE005F0BEFF03900C23029307E052
S31508002F00002302934FF497510A4805F0B7FF00BF14
S31508002F10019B002B02D0019B039A1A60009B002B91
S31508002F2002D0009B029A1A6000BF05B05DF804FB48
S31508002F300080005064A2000800B585B00190009199
S31508002F4000230393224BD3F8003203F00703013B17
S31508002F50032B25D801A252F823F000BF6D2F0008D5
S31508002F60792F0008852F0008912F000805F07EFFAD
S31508002F7003900A2302931BE0FDF7DEFD0390092365
S31508002F80029315E005F076FF03900C2302930FE0F9
S31508002F90FDF71CFD03469B0A03930F23029307E0E4
S31508002FA00023029341F21D310A4805F067FF00BF6E
S31508002FB0019B002B02D0019B039A1A60009B002BF1
S31508002FC002D0009B029A1A6000BF05B05DF804FBA8
S31508002FD00080005064A2000800B585B001900091F9
S31508002FE000230393224BD3F8083203F00703013B6F
S31508002FF0032B25D801A252F823F000BF0D30000894
S3150800300019300008253000083130000805F02EFF79
S3150800301003900A2302931BE0FDF78EFD0390092314
S31508003020029315E005F026FF03900C2302930FE0A8
S31508003030FDF7CCFC03469B0A03930F23029307E094
S315080030400023029341F251310A4805F017FF00BFE9
S31508003050019B002B02D0019B039A1A60009B002B50
S3150800306002D0009B029A1A6000BF05B05DF804FB07
S315080030700080005064A2000800B585B00190009158
S3150800308000230393114B1B6803F00403002B06D09F
S31508003090FDF79CFC034603930D23029305E002AA61
S315080030A003AB11461846FFF7BFFD019B002B02D064
S315080030B0039A019B1A60009B002B02D0029A009B80
S315080030C01A6000BF05B05DF804FB00BF10E000E021
S315080030D000B585B003468DF807309DF90730002BFB
S315080030E003DB9DF907304B2B04DD40F21F310E48F8
S315080030F005F0C4FE0D4B03939DF907305A09039B4F
S3150800310053F822209DF8073003F01F0322FA03F331
S3150800311003F00103002B0CBF01230023DBB2184682
S3150800312005B05DF804FB00BFB0A2000800E100E0AE
S31508003130024B034A1A6400BF704700BF004009509B
S315080031403254FFFF024B4AF6CD321A6400BF70476D
S315080031500040095082B0019000BF054B5A6B019B95
S315080031601340002BF9D100BF00BF02B0704700BF63
S315080031700040095008B500BF0421044805F0B3FF14
S315080031800346002BF8D100BF00BF08BD844000509D
S3150800319008B5FFF7EFFF044BD3F884309B0903F01B
S315080031A00303DBB2184608BD0040005000B583B0E3
S315080031B00190019B1A78054B1A700121002000F036
S315080031C06FF800BF03B05DF804FB00BFD4140020FD
S315080031D082B00190064B5B6F23F44072019B5B78CB
S315080031E01B02034913434B6700BF02B0704700BF79
S315080031F00040005000B583B003468DF807300E4BEB
S315080032001B690D4A43F00403136103F00BFD05F037
S3150800321085FF30BF05F084FF03F01CFD9DF80730DD
S3150800322083F00103DBB2002B01D005F057FF00BF86
S3150800323003B05DF804FB00BF00ED00E000B583B005
S3150800324003468DF807300C4B1B690B4A43F0040301
S31508003250136103F0E7FC30BF03F0FCFC9DF8073070
S3150800326083F00103DBB2002B01D005F037FF00BF66
S3150800327003B05DF804FB00BF00ED00E082B00190EA
S31508003280064BDB6E23F03003019A12791146034A86
S315080032900B43D36600BF02B0704700BF0040005022
S315080032A000B585B001900B468DF80330019B002BC5
S315080032B003D1FDF763FB039001E0019B03930D4BDC
S315080032C01B78002B0AD0039B0B4A934206D89DF81D
S315080032D003301946012000F011F806E09DF8033086
S315080032E01946022000F00AF800BF00BF05B05DF8D5
S315080032F004FB00BFD4140020005A620210B586B041
S3150800330003460A468DF8073013468DF80630FFF750
S315080033103FFF03461A469DF80730934252D0FDF701
S315080033202DFB0590059B04939DF80730012B0CD1C6
S31508003330049B264A934204D940F23C71244805F07E
S315080033409DFD0121059805F072FE05F096FE039095
S31508003350204B03F500531A464FF0007353669DF849
S315080033600730184605F0E2FE1A4C9DF80730184655
S3150800337005F0C6FE034623670BE0164BD3F88430E8
S3150800338003F02003002B04D040F24A71104805F0E0
S3150800339075FD104B5B6E03F00073002B06D10D4BC9
S315080033A0D3F8843003F02003002BE6D0039805F009
S315080033B070FE9DF80730022B05D10021059805F00F
S315080033C036FE00E000BF06B010BD00BF005A62021C
S315080033D0FCA200080040005000B585B003468DF8F1
S315080033E007302B4B03F580531A464FF000435366BC
S315080033F0284B5B6C03F00103002B14BF0123002349
S315080034008DF80F30FFF79EFE9DF80730002B18D178
S315080034100120FFF79FFE1F4B5B6803F00103029331
S31508003420029B002B27D01B4B03F500531A4601239A
S31508003430536000BF174B1B6B03F00103002BF9D039
S3150800344019E000BF134B1B6B03F00803002BF9D1DF
S31508003450104B03F500531A46202393620D4B03F5D0
S3150800346080531A460123536000BF0A4B9B6A03F038
S315080034702003002BF9D09DF80F30002B01D0FFF761
S3150800348057FE05F05AFE00BF05B05DF804FB00BF05
S31508003490008000500040095000B585B00190254BCA
S315080034A003F580531A464FF000435366224B5B6C74
S315080034B003F00103002B14BF012300238DF80F30FE
S315080034C0FFF740FE019B5B785B001C4A43F0010353
S315080034D0D3630B20FFF73EFE174B5B6823F4F872A5
S315080034E0019B9B781B01144913434B60019BDB78B6
S315080034F01B02019A527911460F4A0B439360019BAE
S315080035001B791B02019A927911460B4A0B431361E8
S31508003510019B1B781846FFF75FFF9DF80F30002BBD
S3150800352001D0FFF705FE05F008FE0123184605B091
S315080035305DF804FB00800050004009500040005030
S3150800354000B585B0019000238DF80F3000238DF863
S315080035500E30019B0F2B04D940F6C251224805F0C4
S315080035608DFC019B0F2B01D90F2301931F4B5B6E1B
S31508003570DB0F8DF80E301D4B03F580531A464FF0BE
S31508003580004353661A4B5B6C03F00103002B14BF10
S31508003590012300238DF80F30FFF7D4FD8020FFF7B5
S315080035A0D9FD134B1B6A23F00F021149019B1343E4
S315080035B00B629DF80F30002B01D0FFF7B9FD9DF87F
S315080035C00E3083F00103DBB2002B06D0074B03F560
S315080035D000531A464FF00043536605F0AEFD00BF90
S315080035E005B05DF804FB00BFFCA20008008000508F
S315080035F00040095000B583B0034600918DF80730A6
S315080036009DF80730002B14D09DF80730012B0ED0FB
S315080036109DF80730022B07D09DF80730032B01D100
S315080036203F2308E0002306E040F2FF3303E03F2390
S3150800363001E040F2FF33009AD34003F00103002B68
S3150800364004D140F2FE310A4805F018FC09489DF8F5
S3150800365007200121009B994013465B0013441B0178
S31508003660034403F50153196000BF03B05DF804FB7A
S3150800367094A3000800C0035000B583B00346009128
S315080036808DF807309DF80730002B14D09DF80730C9
S31508003690012B0ED09DF80730022B07D09DF8073076
S315080036A0032B01D13F2308E0002306E040F2FF3355
S315080036B003E03F2301E040F2FF33009AD34003F0D2
S315080036C00103002B04D140F22D410A4805F0D6FB30
S315080036D009489DF807200121009B994013465B0085
S315080036E013441B01034403F58253196000BF03B05A
S315080036F05DF804FB94A3000800C0035000B585B02C
S3150800370002910192009303468DF80F309DF80F3011
S31508003710002B14D09DF80F30012B0ED09DF80F30DA
S31508003720022B07D09DF80F30032B01D13F2308E069
S31508003730002306E040F2FF3303E03F2301E040F2B6
S31508003740FF33029AD34003F00103002B04D14FF450
S31508003750B071314805F092FB019B002B0FD0009BFE
S31508003760002B06D09DF80F3002991846FFF784FF04
S3150800377005E09DF80F3002991846FFF73BFF029BBC
S31508003780072B17D89DF80F2013465B0013441B011F
S315080037901A1D224B1344029A92000F2101FA02F0D5
S315080037A0029A9200019901FA02F20146184605F0BA
S315080037B0C6FC19E09DF80F2013465B0013441B0155
S315080037C003F10C02154B1344029A083A92000F2192
S315080037D001FA02F0029A083A9200019901FA02F2F5
S315080037E00146184605F0ABFC019B002B0FD1009B48
S315080037F0002B06D09DF80F3002991846FFF73CFFBC
S3150800380005E09DF80F3002991846FFF7F3FE00BF52
S3150800381005B05DF804FB00BFE0A3000830C0035004
S3150800382000B587B0039002910192029B1F2B03D922
S3150800383091210C4805F022FB019B002B04D0039B29
S3150800384003F58053059303E0039B03F500530593A3
S31508003850059B0121029A01FA02F21A6000BF07B01D
S315080038605DF804FB2CA4000800B589B0039002910A
S3150800387001928DF80330019B002B04D140F20F1101
S315080038805B4805F0FBFA019B002B00F0AD809DF824
S31508003890033003F003038DF80330039B9B6823F47E
S315080038A04072039B9A60039B03F108009DF803305E
S315080038B01B021A464FF4407105F067FC029B002B69
S315080038C016D1039BB3F1B64F04D12E20FDF792FF14
S315080038D002900DE0039B474A934204D12F20FDF73F
S315080038E089FF029004E040F22911414805F0C6FA22
S315080038F04FF0FF330793039B9B6803F00203002BEB
S3150800390013D09DF80330022B0CD0022B21DC002BA0
S3150800391002D0012B03D01CE0374B07931CE0374B32
S31508003920079319E0364B079316E09DF80330022BF0
S315080039300CD0022B0FDC002B02D0012B03D00AE09F
S315080039402D4B079308E02F4B079305E02E4B079363
S3150800395002E000BF00E000BF029A079B9A4204D823
S315080039604FF4AF71224805F089FA9DF80330274ACB
S31508003970D35C0593059B019A02FB03F30493049B0E
S31508003980002B05D140F26F11194805F077FA2CE0A3
S31508003990019BDB00029AD21A049B13445A1E049B0D
S315080039A0B2FBF3F3013B0693069B002B04DA40F2C5
S315080039B075110F4805F062FA069BB3F5007F04D32C
S315080039C04FF4BB710A4805F059FA039B9B6803F04C
S315080039D00203002B04D0069B002B01D1012306937A
S315080039E0069A039B9A6100E000BF09B05DF804FBE4
S315080039F078A400080080065080841E00404B4C00C6
S31508003A00809FD50040548900002D3101C4A40008C8
S31508003A1000B583B001900B468DF80330019BB3F1D6
S31508003A20B64F08D0019B0A4A934204D040F28F1140
S31508003A30084805F023FA019B04339DF8032000216A
S31508003A401846FFF7EDFE00BF03B05DF804FB00BFA4
S31508003A500080065078A4000800B583B00190009154
S31508003A60019BB3F1B64F08D0019B174A934204D085
S31508003A704FF4D271154805F001FA019B00221A6429
S31508003A801349019805F075FB019B03F10800009B9B
S31508003A905B7883F00103DBB21A460121FFF7C0FE0B
S31508003AA0009B5968009B9A68009B1B7B0198FFF74F
S31508003AB0DBFE009B1B7819460198FFF7A9FF00BF9C
S31508003AC003B05DF804FB00BF0080065078A4000828
S31508003AD0FFFF1F0000B58BB0019000238DF81F3043
S31508003AE0019BB3F1B64F08D0019BA04A934204D07C
S31508003AF040F2FB119E4805F0C1F9019BB3F1B64FA0
S31508003B0002D19C4B089309E0019B984A934202D143
S31508003B10994B089302E06FF003033BE2089B9B680E
S31508003B2006931AE2019BDB6B0593059B03F4C063BE
S31508003B30002B14D0059B03F40073002B03D0089BBD
S31508003B40FD225A7007E0059B03F48063002B02D020
S31508003B50089BFE225A70089B09221A7005E2089BE8
S31508003B601B78082B00F2EF8101A252F823F000BF60
S31508003B70953B0008ED3B00087D3C0008D93C000851
S31508003B80473D0008B33D0008473E00088F3E000841
S31508003B90253F0008069B5B8803F01003002B09D01D
S31508003BA0069B1B881B0A9BB203F0060343F0F0032F
S31508003BB009930EE0069B1B8803F0FE030993069BF8
S31508003BC05B8803F00203002B03D0099B43F0010333
S31508003BD00993089B01221A70019B099A5A63019B53
S31508003BE00122DA6001238DF81F30B6E1059B03F048
S31508003BF08003002B0DD08021019805F0BAFA089BA6
S31508003C00FF225A70089B08221A70019B0222DA606A
S31508003C1030E0059B03F04003002B2BD04021019890
S31508003C2005F0A7FA069B5B8803F01003002B08D063
S31508003C30089B02221A70069B1B88DAB2019B5A63FC
S31508003C4018E0069B5B8803F00203002B0ED0089B46
S31508003C5007221A70089B1B79069ADB0013441B89F6
S31508003C60012B07D1019B0822DA6003E0089B052295
S31508003C701A7072E101238DF81F306EE1059B03F07F
S31508003C808003002B0DD08021019805F072FA089B5D
S31508003C90FF225A70089B08221A70019B0222DA60DA
S31508003CA016E0059B03F04003002B11D04021019834
S31508003CB005F05FFA069B5B8803F00203002B03D02E
S31508003CC0089B03221A7048E1089B05221A7044E1F2
S31508003CD001238DF81F3040E1069B5B8803F0100333
S31508003CE0002B09D0069B1B881B0A9BB203F0060310
S31508003CF043F0F003099304E0069B1B8803F0FE03D8
S31508003D000993069B5B8803F00403002B0ED0099BDE
S31508003D1043F001030993089B1B79069ADB001344B9
S31508003D201B89012B02D1019B0822DA60089B042219
S31508003D301A70019B0122DA60019B099A5A630123D2
S31508003D408DF81F3009E1059B03F08003002B15D081
S31508003D508021019805F00DFA089BFF225A70089BEE
S31508003D6008221A70019B0222DA601EE000800650C3
S31508003D7078A40008D8140020E4140020059B03F05A
S31508003D804003002B11D04021019805F0F2F9069B5B
S31508003D905B8803F00403002B03D0089B07221A70E4
S31508003DA003E0089B05221A70D7E001238DF81F301F
S31508003DB0D3E0089B5A88089B1B790699DB000B44BD
S31508003DC01B899A4227D3089B00225A80089B1B7995
S31508003DD00133DAB2089B1A71069B5B8803F0040369
S31508003DE0002B03D0089B03221A70B6E0069B5B885B
S31508003DF003F00103002B04D1089B1B79012B40F229
S31508003E00AC80089B08221A70019B0222DA60012303
S31508003E108DF81F30A1E0089B1B79069ADB00134436
S31508003E205A68089B5B88591C88B2089948801344CD
S31508003E301B781A46019B5A63089B06221A700123AF
S31508003E408DF81F3089E0059B03F08003002B0DD009
S31508003E508021019805F08DF9089BFF225A70089B6E
S31508003E6008221A70019B0222DA600CE0059B03F017
S31508003E704003002B07D04021019805F07AF9089BEA
S31508003E8005221A7069E001238DF81F3065E0059B4D
S31508003E9003F02003002B41D0089B1B79069ADB0010
S31508003EA013441B890493019B5B6A8DF80F3020210C
S31508003EB0019805F05EF9089B5B881A46049B9342B5
S31508003EC00FD9089B1B79069ADB0013445A68089B8E
S31508003ED05B88591C88B20899488013449DF80F20BE
S31508003EE01A70089B5B881A46049B934206D8089B5F
S31508003EF008221A70019B0222DA600FE0019B042255
S31508003F00DA60049B012B09D9089B5B881A46049B37
S31508003F10013B9A4202D1019B0822DA6001238DF8FF
S31508003F201F301AE0059B03F48073002B07D04FF46B
S31508003F308071019805F01DF9089B09221A70012362
S31508003F408DF81F3009E0089BFB225A70089B09224E
S31508003F501A7001238DF81F3000BF9DF81F3083F0BB
S31508003F600103DBB2002B7FF4DDAD089B1B78092B20
S31508003F700BD1019B00221A64089B93F90130012B8F
S31508003F8005D1089B00225A7001E0012302E0089B34
S31508003F9093F9013018460BB05DF804FB00B585B0FF
S31508003FA001900091019BB3F1B64F08D0019B344AAA
S31508003FB0934204D040F25E31324804F05FFF009B22
S31508003FC0002B04D140F25F312E4804F057FF019BC5
S31508003FD0B3F1B64F02D12C4B039309E0019B284A53
S31508003FE0934202D1294B039302E06FF0030342E0A8
S31508003FF0019B1B6903F00103002B02D0019B2022C1
S31508004000DA60009B5B8803F00203002B03D0009B59
S315080040101B89002B09D0009B5B8803F00403002B47
S3150800402006D0009B1B8A002B02D16FF0030322E007
S31508004030039B00221A70039B01225A70039B0022DD
S315080040405A80039B00221A71039B009A9A60019B6F
S31508004050C022DA60019805F0B2F80D49019805F01A
S3150800406088F8019B1B6C43F4FC62019B1A64019857
S31508004070FFF730FD0346184605B05DF804FB00BFA0
S315080040800080065078A40008D8140020E414002004
S31508004090FFFF1F0082B003468DF807309DF90730F1
S315080040A0002B0CDB9DF8073003F01F0205499DF92C
S315080040B007305B09012000FA02F241F8232000BF0D
S315080040C002B0704700E100E082B003468DF8073081
S315080040D09DF90730002B13DB9DF8073003F01F020C
S315080040E009499DF907305B09012000FA02F22033DD
S315080040F041F82320BFF34F8F00BFBFF36F8F00BF78
S3150800410000BF02B0704700BF00E100E082B003467E
S315080041108DF807309DF90730002B0DDB9DF8073029
S3150800412003F01F0206499DF907305B09012000FAD2
S3150800413002F2603341F8232000BF02B0704700BF87
S3150800414000E100E082B0034600918DF807309DF942
S315080041500730002B0ADB009BDAB20C499DF90730C1
S315080041601201D2B20B4483F800230BE0009BDAB2AB
S3150800417007499DF8073003F00F03043B1201D2B23A
S315080041800B441A7600BF02B0704700BF00E100E09A
S3150800419000ED00E000B587B0039002910192029B02
S315080041A01F2B03D991210C4804F068FE019B002BB4
S315080041B004D0039B03F58053059303E0039B03F5A3
S315080041C000530593059B0121029A01FA02F21A602F
S315080041D000BF07B05DF804FBC8A4000808B51520A1
S315080041E0FFF772FF094B00225A65084BFF229A62B5
S315080041F0064B00225A6000212020FDF7C1FA002153
S315080042002120FDF7BDFA00BF08BD00BF000004501D
S3150800421000B583B001900B468DF80330019B072B40
S3150800422003DD7721084804F029FE01999DF803303B
S3150800423083F00103DBB21A460448FFF7ABFF00BF61
S3150800424003B05DF804FB00BF14A500084000045045
S3150800425000B585B00190019B002B03D1912135480B
S3150800426004F00CFE019B1B781B0623F0F853002B69
S3150800427003D092212F4804F001FE019B5B781B04B2
S3150800428023F47F03002B03D09D212A4804F0F6FD72
S31508004290019B9B7823F0FF03002B03D09F21254821
S315080042A004F0ECFD019BDB780F2B03D9A3212148F1
S315080042B004F0E4FD01212020FDF762FA0121212006
S315080042C0FDF75EFA1C4B01225A60019B1B781B0600
S315080042D00393194A039B9360019B5B781B04019A1D
S315080042E092781146144A0B439361134BFF229A6244
S315080042F0114B00229A63104B00221A640E4B4FF0A2
S3150800430000425A650C4B03F500531A464FF0FF332B
S3150800431013651520FFF7FAFE019BDB781946152071
S31508004320FFF710FF1520FFF7B5FE00BF05B05DF8D3
S3150800433004FB00BF14A500080000045000B587B0B0
S31508004340039002910192039BDBB21A460123934024
S315080043500593039B072B03DDEC21764804F08EFDBD
S31508004360029B002B03D1ED21724804F087FD029BC6
S315080043701B6823F47C1323F00F03002B03D0F021D2
S315080043806C4804F07BFD029B1B791B0423F47F0316
S31508004390002B03D0F621674804F070FD029B5B7979
S315080043A01B0423F47F03002B03D0F821614804F093
S315080043B065FD029B9B7923F0FF03002B03D0FA21AE
S315080043C05C4804F05BFD029BDB7923F0FF03002BBE
S315080043D003D0FC21574804F051FD029B9B7A1B042D
S315080043E023F44033002B04D040F20911514804F05D
S315080043F045FD029BDB7A1B0523F48013002B04D0B2
S3150800440040F20B114B4804F039FD029B1B7B5B0500
S3150800441023F40013002B04D040F20D11454804F094
S315080044202DFD029B5B7B23F0FF03002B04D040F29B
S315080044300F11404804F022FD3F4B03F500531A467E
S31508004440059B13653D49029B1A68039B9B000B4419
S315080044505A60029B5B7B38491846039A13465B00F1
S3150800446013441B010B4460331860029B9B7A1A04A1
S31508004470029BDB7A1B051A43029B1B7B5B051343D6
S315080044802D491846039A13465B0013441B010B4437
S315080044905C331860019B284823F00301039A1346EE
S315080044A05B0013441B0103447033196004F0FBFDE1
S315080044B00490214B5A6D2049059B13434B65029B7B
S315080044C01B7A002B05D01C4B1A6C1B49059B134302
S315080044D00B64029B5B7A002B05D0174B9A6B164927
S315080044E0059B13438B63029B1B791B04029A9279E3
S315080044F01343114A03F0FF1302F500529361029B1E
S315080045005B791B04029AD27913430B4A03F0FF1313
S3150800451002F5805293610599094804F064FE064A3B
S31508004520059B9364049804F0CEFD00BF07B05DF8C0
S3150800453004FB00BF14A50008000004500040045006
S315080045403400045000B585B00190019BDBB21A46D1
S31508004550012393400393019B072B04DD40F2971137
S315080045600B4804F08BFC04F09EFD0290094B5A6D33
S31508004570039BDB43074913404B65064A039B93623B
S31508004580029804F0A0FD00BF05B05DF804FB00BF6B
S3150800459014A500080000045000B587B00190002358
S315080045A08DF81730019BDBB21A460123934004931A
S315080045B0019B072B04DD40F2B5110F4804F05EFCA1
S315080045C004F071FD03900D4BDA6A049B1340002B2F
S315080045D009D10A4B5A6B049B1340049A9A4202D19A
S315080045E001238DF81730039804F06DFD9DF81730F8
S315080045F0184607B05DF804FB14A50008000004502F
S3150800460082B00190019B0E4A93420FD0019B0D4A3E
S3150800461093420BD0019B0C4A934207D0019B0B4A4D
S31508004620934203D0019B0A4A934201D1012300E039
S31508004630002303F00103DBB2184602B0704700BF3F
S315080046400080045000C0045000000550004005508A
S315080046500080055000B585B0019000910198FFF7DC
S31508004660CFFF0346002B03D1A521454804F006FCDD
S3150800467000230393019804F0C3FD019B03F500533F
S315080046801A460123136300BF019B1B6B03F0020349
S31508004690002BF9D1009B5B889A04009B1B791B02AF
S315080046A01343009A527A1343009A5278002A01D08B
S315080046B0402200E000221343009A927A002A01D091
S315080046C0802200E000221343009AD27A002A01D001
S315080046D0202200E000221343009A127B002A01D010
S315080046E0102200E000221343009A527B002A01D0D0
S315080046F0082200E000221343009A927B002A02D087
S315080047004FF4006200E000221343009A9279002ACF
S3150800471002D04FF4803200E000221A43019B5A600F
S31508004720019B03F580531A4601231363009B1B78EC
S3150800473083F00103DBB2002B02D0019B0222DA6070
S31508004740019B00225A62009BDB799B00009A127A31
S315080047501343009A5279002A01D0102200E0002261
S3150800476013430393019B039A9A60009B1B78002BC3
S3150800477002D0019B0122DA6000BF05B05DF804FB98
S3150800478094A5000882B001900B468DF80330019B72
S31508004790084A934204D1084A9DF80330C2F8C83142
S315080047A0019BDB6D43F08002019BDA6500BF02B016
S315080047B0704700BF00C005500080035000B587B0A1
S315080047C00390029101928DF8033000230593019B13
S315080047D0002B04D14FF4A171484804F04FFB029B0B
S315080047E0002B04D14FF42070FDF704F802909DF8D1
S315080047F00330602B34D0602B3FDC402B20D0402B7D
S315080048003BDC002B02D0202B0DD036E0029B1B0987
S31508004810019A9A4204D94FF4BA71384804F02EFB2B
S31508004820102305932FE0029BDB08019A9A4204D9CC
S3150800483040F27911314804F021FB0823059322E060
S31508004840029B2F4AA2FB03239B08019A9A4204D98A
S315080048504FF4BF71294804F011FB0623059312E0B3
S31508004860029B9B08019A9A4204D940F28311234875
S3150800487004F004FB0423059305E040F289111F4860
S3150800488004F0FCFA00BF059B002B33D0029B5A01AB
S31508004890059B019901FB03F35B0813440493059BED
S315080048A0019A02FB03F3049AB2FBF3F30493049B05
S315080048B0203B0493049BDB000493049B114A934218
S315080048C004D94FF4D0710D4804F0D8FA049A0D4B68
S315080048D013400493039B9B6823F06002039B9A6032
S315080048E0039B9A689DF803301A43039B9A60039BBF
S315080048F0049ADA6100BF07B05DF804FBE4A5000876
S31508004900ABAAAAAAF8FF7F0000B585B001900B46AE
S315080049108DF80330019B164A934204D04FF4337145
S31508004920144804F0ABFA019B03F580531A46012399
S3150800493053609DF80330DB430393039B03F00503A1
S315080049400393039B5A00019B5A619DF80320019B20
S315080049505A619DF80330002B05D1019B03F50053DE
S315080049601A460123536000BF05B05DF804FB00BF7B
S3150800497000C00550E4A5000800B583B00190009179
S31508004980019B474A934204D040F2FD21454804F072
S3150800499075FA019800F08AF8019B03F580531A46C8
S315080049A001235360009B9B7C002B05D0019B9B68D1
S315080049B043F08042019B9A60009BDB7C002B05D06C
S315080049C0009B1B7D19460198FFF7DCFE009B5B7B6D
S315080049D01A46009B1B8A1343009AD2891A43019BE5
S315080049E0DA60009B5968009B9A68009B1B7B0198BC
S315080049F0FFF7E4FE009B5B7D002B05D0019B9B68BF
S31508004A0043F48032019B9A60009B9B7D002B05D066
S31508004A10019B9B6843F40042019B9A60009BDB7DE7
S31508004A201B0703F0E042009B1B7E1B0503F4E00313
S31508004A301A43019B9A65009B5B7E022B03D0009B61
S31508004A405B7E032B07D1184B03F580531A460223C6
S31508004A50C2F8203706E0144B03F500531A46022322
S31508004A60C2F82037009B5B7E012B03D0009B5B7E40
S31508004A70032B06D1019B03F580531A460423D365FD
S31508004A8005E0019B03F500531A460423D365009BF2
S31508004A901B781A46019B5A6100BF03B05DF804FBF8
S31508004AA000C00550E4A5000800C0035000B583B057
S31508004AB00190019B224A934204D040F24241214888
S31508004AC004F0DCF9019B03F580531A460123536071
S31508004AD0019B40F6AA625A61019B00229A60019BDB
S31508004AE00022DA65019B41F20502DA60019B002289
S31508004AF01A61019B0022DA61019B0022DA64019B9C
S31508004B0003F500531A46104B9364019B00229A65DD
S31508004B10019B0B4A934202D1019B00221A65019B15
S31508004B20074A934202D1019B00225A65019B03F56D
S31508004B3000531A460123536000BF03B05DF804FB17
S31508004B4000C00550E4A50008FFFF010000BF064BA2
S31508004B505B6803F00103002B03D0034BDB69002BD2
S31508004B60F5D100BF704700BF00800A5000BF094B4F
S31508004B709B6803F00203002BF9D1064B5B6803F030
S31508004B800203002BF3D1034BDB69002BEFD100BFE7
S31508004B9000BF704700800A5008B5FFF7D7FF024BE1
S31508004BA002221A6100BF08BD00800A5000B583B012
S31508004BB00190FFF7DBFF0A4B5B68012B03D100F07E
S31508004BC021F8FFF7D3FF019B1B78002B01D00123A7
S31508004BD000E00023024AD36000BF03B05DF804FB7F
S31508004BE000800A5008B5FFF7C1FF054B03F580534F
S31508004BF01A4601235360024B01221A6100BF08BD01
S31508004C0000800A5008B5074B5B68012B08D1FFF7EF
S31508004C10C3FF044B03F500531A460123536000E013
S31508004C2000BF08BD00800A5000B585B00346009154
S31508004C308DF80730002303939DF80730002B03D027
S31508004C407121264804F01AF99DF80730002B40D147
S31508004C50009B1B78002B01D0012300E0002303935F
S31508004C60009B5B68002B06D0009B5B681B78DB000B
S31508004C70039A13430393009B5B78002B01D002230E
S31508004C8000E00023039A13430393009B9B68002BC1
S31508004C9006D0009B9B681B789B01039A13430393DA
S31508004CA0009B9B78002B01D0042300E00023039A85
S31508004CB013430393009BDB68002B06D0009BDB683D
S31508004CC01B785B02039A13430393054A039B936479
S31508004CD000BF00BF05B05DF804FB00BF18A60008BA
S31508004CE000800A5000B583B0034600918DF807305E
S31508004CF09DF80730002B04D04FF48271084804F061
S31508004D00BDF89DF80730002B06D1064B03F58053F6
S31508004D101A46009B536400BF00BF03B05DF804FB4E
S31508004D2018A6000800800A5000B583B00346009113
S31508004D308DF807309DF80730002B04D04FF4A0718A
S31508004D40084804F09BF89DF80730002B06D1064B5F
S31508004D5003F500531A46009B536400BF00BF03B017
S31508004D605DF804FB18A6000800800A5000B583B059
S31508004D70034600918DF807309DF80730002B04D0C4
S31508004D804FF4BE71084804F079F89DF80730002BF7
S31508004D9006D1064B03F500531A46009B136400BF61
S31508004DA000BF03B05DF804FB18A6000800800A508F
S31508004DB000B583B003468DF807309DF80730002B01
S31508004DC004D040F2B711074804F058F89DF80730A8
S31508004DD0002B02D1044B1B6C00E00023184603B0DD
S31508004DE05DF804FB18A6000800800A5000B583B0D9
S31508004DF003460A468DF8073013468DF806309DF8A7
S31508004E000730002B04D040F266210D4804F036F82E
S31508004E109DF80730002B0ED19DF80630002B02D0E6
S31508004E20012B03D005E0074BDB6C05E0054B1B6D3A
S31508004E3002E0002300E00023184603B05DF804FBF7
S31508004E4018A6000800800A5000B583B003460092F1
S31508004E508DF807300B468DF806309DF80730002B85
S31508004E6004D04FF441710D4804F008F89DF8073056
S31508004E70002B0FD19DF80630002B02D0012B04D051
S31508004E8007E0074A009BD36403E0054A009B1365C5
S31508004E9000BF00BF00BF03B05DF804FB18A60008FA
S31508004EA000800A5000B583B00A4A6B4692E80300B0
S31508004EB018600433198002330A0C1A706B461846B8
S31508004EC0FEF7EAFA0C20FEF73BFB0023184603B070
S31508004ED05DF804FB74A6000800B583B00A4B5B6F47
S31508004EE0094A43F0010353676B4600221A601A7198
S31508004EF000238DF804306B461846FEF7BFF90023E9
S31508004F00184603B05DF804FB0040005030B597B072
S31508004F102B4B0BAC1D460FCD0FC40FCD0FC495E818
S31508004F20030084E80300002312934FF0FF33159320
S31508004F30244BD3F84C3103F40023002B04D1214B26
S31508004F40D3F85031DBB21593159BB3F1FF3F08D167
S31508004F501D4B1B884FF6FF72934202D01A4B1B88D3
S31508004F601593159BB3F1FF3F01D157231593159B55
S31508004F70B3F1FF3F18D0159BDBB28DF84530FDF72E
S31508004F800DFB0246159B13441593159B002B02DA5D
S31508004F900023159304E0159BFF2B01DDFF231593D2
S31508004FA0159BDBB28DF844300848FBF739FD0BAB8F
S31508004FB01846FDF779F90023184617B030BD00BF2B
S31508004FC07CA600080080E00F0001E00FC01753021E
S31508004FD030B587B00C4B01AC1D460FCD0FC42B68FE
S31508004FE023600023039324238DF8053004230293BA
S31508004FF001AB1846FDF7DAFA6420FDF767FB0023D4
S31508005000184607B030BD00BFA4A6000882B0034604
S3150800501000918DF807309DF90730002B0ADB009BBD
S31508005020DAB20C499DF907301201D2B20B4483F863
S3150800503000230BE0009BDAB207499DF8073003F01E
S315080050400F03043B1201D2B20B441A7600BF02B01A
S31508005050704700BF00E100E000ED00E000B583B056
S3150800506001F0F4FE0090009B002B01D0009B2CE081
S3150800507001F0D2FF03464FF4167202FB03F303F561
S31508005080742303F23F23134AA2FB03239B0C124A01
S31508005090136000238DF8073012E09DF807300E4A9A
S315080050A012680E4941F823200D4B1A680A4B1B68F3
S315080050B013440B4A13609DF8073001338DF8073007
S315080050C09DF80730092BE8D90023184603B05DF888
S315080050D004FB00BF83DE1B43F0140020F8140020F5
S315080050E02015002008B5054B01221A7004F041FC72
S315080050F00346034A136000BF08BD00BF8A15002097
S315080051002415002008B5294B1B7883F00103DBB270
S31508005110002B49D104F02DFC0246254B1B68D31AF7
S31508005120244A1360234B1B68002B02D0214B1B68B3
S3150800513000E001231F4A13601F4B1B681F4A1278A1
S3150800514011461F4A52F8212011461A4A12688A1A2D
S315080051509B1A194A1360194B1B781946154B1B687D
S31508005160174A42F82130144B1B680933154AA2FB2B
S315080051700323DB08144A1360104B1B780133DAB299
S315080051800E4B1A700D4B1A780E4BA3FB0213D90857
S315080051900B469B000B445B00D31ADAB2074B1A7016
S315080051A0024B00221A7000E000BF08BD8A150020D5
S315080051B024150020F414002020150020891500204D
S315080051C0F8140020CDCCCCCCF0140020014B1B6881
S315080051D018467047F014002082B003468DF8073051
S315080051E09DF90730002B0CDB9DF8073003F01F02F2
S315080051F005499DF907305B09012000FA02F241F8DA
S31508005200232000BF02B0704700E100E082B00346E9
S315080052108DF807309DF90730002B0DDB9DF8073018
S3150800522003F01F0206499DF907305B09012000FAC1
S3150800523002F2603341F8232000BF02B0704700BF76
S3150800524000E100E082B0034600918DF807309DF931
S315080052500730002B0ADB009BDAB20C499DF90730B0
S315080052601201D2B20B4483F800230BE0009BDAB29A
S3150800527007499DF8073003F00F03043B1201D2B229
S315080052800B441A7600BF02B0704700BF00E100E089
S3150800529000ED00E008B502212C20FFF7D3FF104BE4
S315080052A003F580531A464FF4801353660D4B03F5E6
S315080052B000531A460C4B53670A4B03F500531A461C
S315080052C0094B13672C20FFF7A1FF2C20FFF784FF5B
S315080052D0044B03F580531A46034B536700BF08BDBA
S315080052E0008000500040005A010000A084B0034628
S315080052F08DF8073000238DF80F30144B9B6D03F0A3
S315080053000103002B08D0124B1B7883F00103DBB294
S31508005310002B01D0012300E000238DF80F309DF803
S315080053200F3003F001038DF80F309DF80F3083F02E
S315080053300103DBB2002B03D09DF80730002BDCD12C
S315080053409DF80F30184604B0704700BF0040005A59
S315080053508B15002000B583B0164B1B6F0193019B7C
S3150800536003F00103002B0AD0124A019B03F0010344
S3150800537002F500521367FFF7C5FE01F0D7FA019B45
S3150800538003F00053002B06D00A4A019B03F0005392
S3150800539002F500521367019B002B06DA054A019BAA
S315080053A003F0004302F50052136700BF03B05DF82F
S315080053B004FB00BF0040005A00B585B0019003F019
S315080053C05CFE0390054A019B1360039803F061FE97
S315080053D00023184605B05DF804FB00BF2815002019
S315080053E000B583B00023019303F047FE0090054BF8
S315080053F01B680193009803F04CFE019B184603B006
S315080054005DF804FB2815002000B587B003900291CB
S315080054100192019B1A460299002003F03CFF059071
S31508005420059B002B03D0BF21034803F027FD019BF2
S31508005430184607B05DF804FBB8A6000808B5054B82
S315080054401B68986800230222002102F029FD00BF8C
S3150800545008BD00BF2010002082B003468DF8073033
S315080054609DF90730002B0CDB9DF8073003F01F026F
S3150800547005499DF907305B09012000FA02F241F857
S31508005480232000BF02B0704700E100E082B0034667
S315080054908DF807309DF90730002B13DB9DF8073090
S315080054A003F01F0209499DF907305B09012000FA3C
S315080054B002F2203341F82320BFF34F8F00BFBFF31A
S315080054C06F8F00BF00BF02B0704700BF00E100E069
S315080054D082B003468DF807309DF90730002B0DDBA7
S315080054E09DF8073003F01F0206499DF907305B094E
S315080054F0012000FA02F2603341F8232000BF02B00F
