S02700004C504544545F54656C656D6174696373547261636B65725F4669726D776172652E73333782
S31508000000001000200516000833C0000833C0000899
S3150800001033C0000833C0000833C0000833C00008E6
S3150800002033C0000833C0000833C0000833C00008D6
S3150800003033C0000833C0000833C0000833C00008C6
S3150800004033C0000833C0000833C0000833C00008B6
S315080000509D90000833C0000833C0000833C000086C
S3150800006033C00008991200088912000833C0000836
S3150800007033C0000833C0000833C0000833C0000886
S3150800008033C0000833C0000833C0000833C0000876
S3150800009033C00008ED1F000833C0000833C000084D
S315080000A033C0000859C1000831C1000833C0000830
S315080000B033C0000833C0000833C0000833C0000846
S315080000C033C0000833C0000833C0000833C0000836
S315080000D033C0000833C0000833C0000833C0000826
S315080000E033C0000833C0000833C0000833C0000816
S315080000F057C5000833C0000833C0000833C00008DD
S3150800010033C0000833C0000833C0000833C00008F5
S3150800011033C0000833C0000833C0000833C00008E5
S3150800012033C0000833C0000833C0000833C00008D5
S3150800013033C0000833C0000833C0000833C00008C5
S3150800014033C0000833C0000833C00008C7CD000814
S3150800015033C0000833C0000833C0000833C00008A5
S3150800016033C0000833C0000833C0000833C0000895
S31508000170013800D0FCE77047F0B58FB00590059BB5
S315080001801E331B781A46059B1F331B781B021A431E
S31508000190059B20331B781B041A43059B21331B78C8
S315080001A01B0613430C93059B22331B781A46059BA3
S315080001B023331B781B021A43059B24331B781B0425
S315080001C01A43059B25331B781B0613430B930C9B7D
S315080001D007EE903AF8EEE77A17EE900A09F012FC65
S315080001E043A3D3E900230BF03DFB02460B4610461A
S315080001F0194609F05FFC03460A930B9B07EE903AF3
S31508000200F8EEE77A17EE900A09F0FCFB38A3D3E973
S3150800021000230BF027FB02460B461046194609F049
S3150800022049FC03460993059B42331B781A46059BEE
S3150800023043331B781B021A43059B44331B781B0464
S315080002401A43059B45331B781B0613430893089BE3
S3150800025007EE903AF8EE677A17EE900A09F0D2FBA5
S3150800026025A3D3E900230BF0FDFA02460B461046F8
S31508000270194609F01FFC03460793194B1B78002BF8
S315080002800ED0174B00221A7000230D9305E015486F
S3150800029008F038FE0D9B01330D930D9BC72BF6DD39
S315080002A0114B1B680493099809F0ACFB06460F46E8
S315080002B00A9809F0A7FB04460D46079809F0A2FB21
S315080002C002460B46CDE90223CDE9004532463B46B8
S315080002D0064904980CF0BEF900BF0FB0F0BD00BF88
S315080002E0F8110020A08601004013002064E10008F0
S315080002F048AFBC9AF2D77A3EA9D6D40F705C443F71
S315080003002DE9F04F456A044610EE10AA2DED048B30
S3150800031093B057EC106BDDF88080BB4606910992C6
S315080003200C9375B910200AF0D9FB0246606220B911
S31508000330A74BEA21A7480BF0E9F9C0E90155056082
S31508000340C560636A196851B15A680123204693400B
S315080003504A608B600AF00AFC636A00221A603B1E38
S31508000360ADBF0023012223F0004BC8F800309A4B9A
S31508000370B8BFC8F8002033EA0B031BD142F20F734B
S315080003800C9A1360CBF31303334300F08F85219B3C
S3150800039063B9924B22E0924B01930833219A13607A
S315080003A0019813B0BDEC048BBDE8F08F8B4B01931D
S315080003B00333F3E700220023504659460BF0BAFCF4
S315080003C080464BEC19AB58B101230C9A1360219B5C
S315080003D0002B00F0688583481860431E0193DFE709
S315080003E0CBF30A5510AA11A920464BEC10AB0AF01C
S315080003F03FFE08EE100A002D00F0828019EE903AB2
S315080004005646A5F2FF35CDF83880C3F3130343F0FB
S315080004107F5747F440170022734B3046394609F098
S3150800042091F965A3D3E900230BF01CFA64A3D3E979
S31508000430002309F089F906460F46284609F0D0FA3E
S3150800044061A3D3E900230BF00DFA02460B463046AA
S31508000450394609F079F906460F460BF0B3FC002237
S3150800046000900023304639460BF06EFC50B10098D8
S3150800047009F0B6FA32463B460BF05CFC10B9009B15
S31508000480013B0093009B162B59D8009A574B03EB58
S31508000490C20351EC190BD3E900230BF055FC0028D5
S315080004A04FD0009B013B009300230B93109B5D1BD1
S315080004B06B1E059349BFC5F101030023049300236E
S315080004C054BF04930593009B002B3CDB059B009AC5
S315080004D013440A92059300230793069B092B00F2FF
S315080004E08980052BC5BF043B002501250693069B7D
S315080004F0023B032B00F28980DFE803F02E3B395AD2
S31508000500DDE910531D4405F23243202BC6BFC3F163
S31508000510400305F21240C3F1200305F1FF35C5BFBC
S315080005200BFA03F326FA00F006FA03F0184309F06B
S3150800053047FA01230646A1F1F8770E936BE70123E4
S31508000540B3E70B90B2E7049B009A9B1A04935342B5
S31508000550079300230A93C0E700230893099B002BFF
S3150800056056DC01231A46CDE9023309920CE0012331
S31508000570F3E70023099A0893009B13440293013377
S31508000580012B0393B8BF01230022606A426004224C
S3150800059002F1140641689E423ED920460AF0A6FAA0
S315080005A0019000283CD1124B02464FF4D571C1E6A2
S315080005B00123DFE7AFF3008061436F63A787D23F6C
S315080005C0B3C8608B288AC63FFB799F501344D33F34
S315080005D059E3000870E300080000F07F55E30008BF
S315080005E04CE3000829E300080000F83F08E5000886
S315080005F0EEE3000801250023089506934FF0FF3324
S315080006000022CDE902331223AFE701230893F5E769
S31508000610099BCDE90233B7E7013152004160B7E7DC
S31508000620636A019A1A60039B0E2B00F29D80002DC7
S3150800063000F09A80009B002B32DD03F00F03B64AC8
S3150800064002EBC303D3E90089009BD8054FEA2317B9
S3150800065016D5B24B07F00F070325D3E9082351EC4B
S31508000660190B0BF029FA82468B46AC4E57B942460F
S315080006704B46504659460BF01FFA82468B4628E0F1
S315080006800225F2E7F90708D5404649460135D6E975
S3150800069000230BF0E7F8804689467F100836E5E721
S315080006A000F09B80009B02259C4F5E429A4B06F009
S315080006B00F02361103EBC20351EC190BD3E90023E1
S315080006C00BF0D0F8002382468B46002E7AD1002BF9
S315080006D0D3D10B9B002B00F082800022904B504612
S315080006E059460BF031FB002879D0039B002B76D0B6
S315080006F0029B002B36DD009B5046594600225F1EA2
S31508000700884B0BF0AFF8013582468B46029E284689
S31508000710D04609F065F952465B46D9460BF0A2F871
S315080007200022814B09F010F88246A1F1507B002E79
S3150800073058D100227D4B4046494609F003F85246F7
S315080007405B46804689460BF01DFB002840F09382E5
S3150800075052460BF10043404649460BF0F5FA00288D
S3150800076040F087825BEC19AB119B002BC0F24881E5
S31508000770009A0E2A00F34481674B03EBC203D3E9C0
S315080007800089099B002B80F2D580039B002B00F380
S31508000790D18040F06D820022644B404649460BF0FA
S315080007A061F852465B460BF0E3FA039E374600288B
S315080007B040F043823123019D05F8013B009B01333C
S315080007C000933EE2F20705D50135D7E900230BF081
S315080007D049F801237610083777E7022579E7009F5D
S315080007E0039E94E701994C4B314403EBC6030D91E4
S315080007F0089953E90223002943D000204C490BF0FD
S315080008005BF952465B4608F09DFF019D82468B4682
S31508000810494640460BF0D6FA064609F0E1F8024684
S3150800082030360B464046494608F08CFF52465B4632
S3150800083005F8016B804689460BF086FA002863D1D5
S3150800084042464B460020364908F07CFF52465B4636
S315080008500BF07AFA002840F0B5800D9B9D4281D0B6
S315080008600022304B504659460AF0FCFF00228246C9
S315080008708B46404649462B4B0AF0F4FF804689468C
S31508000880C6E7504659460AF0EDFF0D9B82468B4651
S31508000890019D0F93494640460BF094FA064609F027
S315080008A09FF802460B4640464946303608F04AFF4E
S315080008B00D9B05F8016B80469D4289464FF0000264
S315080008C024D11B4B5046594608F03EFF02460B46BC
S315080008D0404649460BF056FA002873D152465B4605
S315080008E00020134908F02EFF02460B4640464946AB
S315080008F00BF02AFA00283FF435AF0F9D6B1E0F93B5
S3150800090015F8013C302BF8D0009749E0054B0AF062
S31508000910A9FF80468946BDE708E50008E0E4000827
S315080009200000F03F0000244000001C400000144076
S315080009300000E03F56465F46019D42464B4630461C
S3150800094039460BF0B9F80BF03DFA824609F048F83B
S3150800095042464B460AF086FF024630460AF1300602
S315080009600B46394608F0EEFE05F8016B019E024675
S31508000970039F0B46AE1BB74235D108F0E5FE42464B
S315080009804B4606460F460BF0FDF9D0B942464B4694
S31508000990304639460BF0CEF910B11AF0010F10D1D6
S315080009A0204618EE101A0AF0E1F8002300982B707A
S315080009B001300C9B1860219B002B3FF4F1AC1D60A5
S315080009C0EEE4009F2B461D4613F8012D392A06D161
S315080009D0019A9A42F7D13022019901370A701A789A
S315080009E001321A7090E70022A44B0AF03BFF00225E
S315080009F0002306460F460BF09DF900289DD0CFE749
S31508000A00089A002A00F0D580069A012A00F3B980D0
S31508000A100E9A002A00F0B18003F23343079E049D24
S31508000A20049A012120461A440492059A1A4405920A
S31508000A300AF006F90746002D0CDD059B002B09DD9B
S31508000A40AB42049AA8BF2B46D21AED1A0492059A0D
S31508000A50D31A0593079B1BB3089B002B00F0AD80A8
S31508000A60002E13DD3946324620460AF0A7F918EE5D
S31508000A70102A0146074620460AF0F8F8804618EE7E
S31508000A80101A204608EE108A0AF070F8079B9A1B7F
S31508000A9006D018EE101A20460AF090F908EE100A49
S31508000AA0012120460AF0CCF80A9B0646002B40F3A3
S31508000AB086801A46014620460AF080F9069B0646B5
S31508000AC0012B7FDD4FF00008336906EB83031869B5
S31508000AD00CF00BFDC0F12000059B184410F01F0018
S31508000AE000F09180C0F12003042B40F38980C0F107
S31508000AF01C00049B054403440493059B0344059387
S31508000B00049B002B07DD18EE101A1A4620460AF039
S31508000B10AFF908EE100A059B002B05DD31461A468B
S31508000B2020460AF0A5F906460B9B002B6DD03146E8
S31508000B3018EE100A0CF028FD002866DA009B18EE5D
S31508000B40101A0A222046013B009300230AF030F8C7
S31508000B50089B08EE100A002B00F0AF8100233946E7
S31508000B600A2220460AF024F8029B0746002B00F3C7
S31508000B708D80069B022B50DC88E0109BC3F1360360
S31508000B804CE7039B5E1E079BB342B7BF079B9E1BA2
S31508000B900796F21ABFBF0A9B00269B180A93039B67
S31508000BA0002BB7BFDDE90323DDE903359D1A0023D2
S31508000BB036E7079E049D089F3DE7079A69E7069B67
S31508000BC0012B18DCBAF1000F15D1CBF3130393B937
S31508000BD02BF000431B0D1B0583B1049B4FF0010846
S31508000BE001330493059B013305930A9B002B7FF47D
S31508000BF06BAF012070E74FF00008F6E79846F4E778
S31508000C003FF47EAF18461C3073E7039B002B37DC96
S31508000C10069B022B34DD039B0293029B6BB931467C
S31508000C200522204609F0C4FF0146064618EE100ABA
S31508000C300CF0AAFC00283FF7BDAD099B019DDB43DC
S31508000C4000934FF000083146204609F08FFF002F29
S31508000C503FF4A6AEB8F1000F05D0B84503D041461B
S31508000C60204609F083FF3946204609F07FFF97E6BC
S31508000C7000263746E1E7009737469BE50000244003
S31508000C80089B002B00F0CA80039B0293002D05DD0C
S31508000C9039462A4620460AF0EBF80746B8F1000F0F
S31508000CA05BD07968204609F021FF054628B9874BAD
S31508000CB0024640F2EA21FFF73DBB3A6907F10C010B
S31508000CC00C30023292000CF0E7F901222946204640
S31508000CD00AF0CEF8019BB846074603F10109DDE99B
S31508000CE00123134405930AF001030493314618EED1
S31508000CF0100A0CF0FEFA4146029000F1300A18EE8E
S31508000D00100A09F1FF3B0CF03FFC3A4603903146C6
S31508000D1020460AF01DF9C268054602BB014618EED0
S31508000D20100A0CF031FC024629462046079209F0C3
S31508000D301DFF4D46DDE9063243EA0201049B0B43DB
S31508000D400FD1BAF1390F2AD0039B002B02DD029B83
S31508000D5003F1310A8BF800A075E73846BAE7012295
S31508000D60E2E7039B002B04DB06990B4304990B432C
S31508000D7022D1002AEEDD18EE101A012220460AF0CA
S31508000D8077F8314608EE100A0CF0FEFB002803DC63
S31508000D90E0D11AF0010FDDD0BAF1390FD7D13923D6
S31508000DA08BF800302B461D46013B15F8012C392AD5
S31508000DB070D001321A7046E7002A07DDBAF1390FFA
S31508000DC0EDD00AF101038BF800303CE7059B09F8E2
S31508000DD001AC994546D018EE101A00230A2220467F
S31508000DE009F0E6FEB84508EE100A4FF000034FF08A
S31508000DF00A024146204606D109F0DAFE8046074631
S31508000E0009F1010972E709F0D3FE39468046002345
S31508000E100A22204609F0CCFE0746F1E7039B029317
S31508000E20019D314618EE100A0CF063FA019B00F199
S31508000E30300A05F801ABEA1A029B934209DD18EE5F
S31508000E40101A00230A22204609F0B2FE08EE100AFC
S31508000E50E7E7029B4FF00008002BCCBF1D46012593
S31508000E60019B1D4418EE101A012220460AF000F8CC
S31508000E70314608EE100A0CF087FB002892DC02D1F6
S31508000E801AF0010F8ED12B461D4613F8012D302A74
S31508000E90FAD0D8E6019A9A4285D1009B013300938D
S31508000EA031231370CFE60A4BFFF798BA219B002B24
S31508000EB07FF471AA074BFFF791BA029B002BAFDCB0
S31508000EC0069B022B3FF7A9AEAAE700BFEEE3000890
S31508000ED028E300084CE3000810B5054C237833B91D
S31508000EE0044B13B1044800E000BF0123237010BD72
S31508000EF0041200200000000034E6000808B5034B81
S31508000F001BB10349034800E000BF08BD000000000C
S31508000F100812002034E60008A3F5803A704700BF9F
S31508000F20174B002B08BF134B9D46FFF7F5FF002113
S31508000F308B460F461348144A121A0CF0BAF80E4B91
S31508000F40002B00D098470D4B002B00D09847002067
S31508000F50002104000D000D48002802D00C4800E0CE
S31508000F6000BF08F09BFF200029000AF053FF08F095
S31508000F7081FF00BF0000080000000000000000001C
S31508000F800010002004120020941700200000000022
S31508000F900000000008B50BF079FF0BF080FF08F0A1
S31508000FA095FB08F031F8034B00221A7008F032F965
S31508000FB000BF08BD7617002008B5802200210F481B
S31508000FC00CF077F800BF80210C4808F0D7F80346E4
S31508000FD0022BF8D0094B1B78B52BEED1074B5B7863
S31508000FE0622BEAD1054B9B78012BE6D1034BDB78C4
S31508000FF0072BE2D10148FFF7BFF8DEE720120020F1
S3150800100008B502F041F90BF0E8F8304B1B6F23F0F6
S3150800101007032E4A43F0030313670BF0EBF82C4B38
S315080010209B6A03F08073002B06D1294B03F5005306
S315080010301A464FF480339362244BD3F8203123F0B9
S315080010400703224A43F00203C2F820311F4BD3F8A4
S31508001050283123F007031D4A43F00203C2F828315A
S315080010601A4BD3F8403123F00303184A43F002031E
S31508001070C2F84031154BD3F8603123F00303134A05
S3150800108043F00203C2F86031104BD3F8403223F024
S3150800109003030E4A43F00203C2F840320B4BD3F85F
S315080010A0003223F00703094A43F00203C2F800326C
S315080010B0064BD3F8083223F00703044A43F0020329
S315080010C0C2F808320023184608BD00BF0080005049
S315080010D00040005A00B583B0034600918DF80730EA
S315080010E09DF80730002B14D09DF80730012B0ED041
S315080010F09DF80730022B07D09DF80730032B01D146
S315080011003F2308E0002306E040F2FF3303E03F23D5
S3150800111001E040F2FF33009AD34003F00103002BAD
S3150800112004D14FF483610B480AF08FFF9DF807201E
S3150800113013465B0013441B0103F11002064B1344CC
S31508001140009918460AF0BCFE0346184603B05DF837
S3150800115004FB00BF7CD7000830C0035030B599B0F7
S31508001160354B10AC1D460FCD0FC495E8070084E833
S3150800117007004FF4165312930023ADF84E304FF480
S315080011808053ADF8503000238DF859300BAB002250
S315080011901A605A609A60DA601A61284B0B93292301
S315080011A00C9302238DF8343005238DF8353002234D
S315080011B08DF8363004238DF8373001238DF8383012
S315080011C005238DF839301E4A09AB92E8030083E8F7
S315080011D0030003AB00221A605A609A60DA601A614B
S315080011E05A6103AB09AA92E8030083E803000923BE
S315080011F08DF814300A238DF81530124B06932023E8
S31508001200079301238DF8213000238DF822300BAB8C
S3150800121010AA03A90C4800900C4806F039F9179053
S31508001220179B002B03D0852109480AF00EFF179B50
S31508001230184619B030BD00BF00D8000800C00550D8
S315080012401CD8000820130020CC120020A812002069
S31508001250D0D7000800B583B00849094806F0D2FC83
S31508001260FFF77CFF0190019B002B03D097210548CF
S315080012700AF0EBFE00BF03B05DF804FB0010002087
S31508001280A0120020D0D7000808B5024806F040FA98
S3150800129000BF08BDA812002008B5024806F038FAB3
S315080012A000BF08BDA812002008B503480AF015FEBD
S315080012B00346184608BD00BFA812002000B585B031
S315080012C003460A468DF8073013468DF806309DF812
S315080012D00730022B03D09DF80730032B13D19DF856
S315080012E00630012B03D09DF80630002B0BD10521C3
S315080012F00220FFF7EFFE0390039B0422052102203C
S3150800130003F0B0FD1AE09DF80630022B03D09DF8D5
S315080013100630032B12D19DF80730012B03D09DF818
S315080013200730002B0AD105210220FFF7D3FE0390D0
S31508001330039B00220521022003F094FD9DF8063048
S31508001340012B0CD8084B1B681B68002B07D0074BD2
S315080013505B6A054A1268126801211046984700BF61
S3150800136005B05DF804FB00BF08100020CC12002071
S3150800137008B5094B01221A70084B00221A70084B4F
S3150800138004221A70074B1F221A7005F0DDFB03466C
S31508001390054A136000BF08BDF21100207717002028
S315080013A0F3110020F41100204013002000B583B08B
S315080013B0034600918DF807309DF80730002B14D0AE
S315080013C09DF80730012B0ED09DF80730022B07D069
S315080013D09DF80730032B01D13F2308E0002306E0E0
S315080013E040F2FF3303E03F2301E040F2FF33009A67
S315080013F0D34003F00103002B04D140F2FE310A4822
S315080014000AF023FE09489DF807200121009B994010
S3150800141013465B0013441B01034403F5015319608B
S3150800142000BF03B05DF804FB24D8000800C00350D1
S3150800143000B583B0034600918DF807309DF8073054
S31508001440002B14D09DF80730012B0ED09DF80730DD
S31508001450022B07D09DF80730032B01D13F2308E064
S31508001460002306E040F2FF3303E03F2301E040F2A9
S31508001470FF33009AD34003F00103002B04D140F256
S315080014802D410A480AF0E1FD09489DF80720012187
S31508001490009B994013465B0013441B01034403F564
S315080014A08253196000BF03B05DF804FB24D8000816
S315080014B000C0035030B58FB04B4B09AC1D460FCD5D
S315080014C00FC42B682360494B01AC1D460FCD0FC4D2
S315080014D095E80F0084E80F0001213A2001F054F93D
S315080014E00121572001F050F901238DF80930002316
S315080014F08DF808303E4B0B9301AB0D9309AB19469B
S315080015003C4803F07BF8012304220121022003F062
S31508001510A9FC002301220221022003F0A3FC0123D7
S3150800152004220321022003F09DFC01230422042146
S31508001530012003F097FC304B304AC3F8C8242E4BE1
S315080015404FF00212C3F8C4242B4B2D4AC3F8CC24FF
S31508001550294B1C22C3F8B4244FF4487007F0D2FC78
S315080015600AF059FD142007F0CDFC0AF05BFD232094
S3150800157007F0C8FC0AF04FFDB9211E480AF0EEFE36
S315080015800AF050FD002300220121022003F06AFC24
S31508001590002300220221022003F064FC012300221A
S315080015A00321022003F05EFC01230022042101200E
S315080015B003F058FC0F4803F095F80F4B0022C3F8C8
S315080015C0C8240D4B0022C3F8C4240B4B0022C3F8D1
S315080015D0CC24094B0022C3F8B4240021572001F07B
S315080015E0D3F800BF0FB030BD70D8000884D8000803
S315080015F0E070720000000A5000C0035002000300A9
S315080016000200010000B585B000F07EF81F4B039379
S3150800161019E0002302930EE0039B1A68029B9B00C5
S315080016201A44039B5968029B9B000B4412681A6074
S31508001630029B01330293039B9B68029A9A42EBD35F
S31508001640039B0C330393039B114A9342E1D3114B3B
S31508001650019314E00023009309E0019B1A68009B9C
S315080016609B00134400221A60009B01330093019BE0
S315080016705B68009A9A42F0D3019B08330193019B59
S31508001680054A9342E6D3FFF74BFC00BF3CE6000849
S3150800169048E6000848E6000848E6000882B003461F
S315080016A08DF807309DF90730002B0CDB9DF80730C5
S315080016B003F01F0205499DF907305B09012000FA6E
S315080016C002F241F8232000BF02B0704700E100E0B3
S315080016D082B003468DF807309DF90730002B0DDBE5
S315080016E09DF8073003F01F0206499DF907305B098C
S315080016F0012000FA02F2603341F8232000BF02B04D
S31508001700704700BF00E100E008B51D4B1D4A9A600E
S315080017101B4BD3F888301A4A43F47003C2F8883052
S31508001720194B03F580531A464FF480439366174BBB
S3150800173003F500531A464FF0FF331366134B03F5B0
S3150800174000531A46124B5366124B02221A60BFF315
S315080017504F8F00BFBFF36F8F00BF0020FFF7B8FFA2
S315080017600A4B03F500531A464FF44033D360002062
S31508001770FFF794FF054B4FF440321A6100BF08BDCE
S3150800178000ED00E0000000080080005000800044E2
S31508001790F7FF3700D0ED00E0014B1B68184670478D
S315080017A01410002000B583B0002301930E4B1B6F65
S315080017B003F00703032B09D0032B0ED8012B09D0FE
S315080017C0022B0AD1FFF7E8FF019007E0074B1B68D9
S315080017D0019303E0064B019300E0FEE7019B1846E0
S315080017E003B05DF804FB00BF008000500C10002019
S315080017F0002D310100B583B0FFF7D4FF01900A4BE5
S315080018001B6F1B0B03F00F030093009B0133019A18
S31508001810B2FBF3F30193054A019B1360019B18463B
S3150800182003B05DF804FB00BF0080005018100020CC
S31508001830014B1846704700BF00B4C404014B1B682F
S31508001840184670470C10002000B583B00190074A6F
S31508001850019B1360064B1B6F03F00703032B01D193
S31508001860FFF7C8FF00BF03B05DF804FB0C100020AB
S3150800187000800050014B1846704700BF002D31010B
S3150800188082B0002301934FF0B4439B681B0C03F00E
S315080018901F030C2B4CD801A252F823F0D1180008CC
S315080018A031190008311900083119000831190008E2
S315080018B0311900080D19000813190008191900082C
S315080018C0311900081F190008251900082B190008E6
S315080018D04FF0B4439B6803F04073B3F1007F0ED01A
S315080018E0B3F1007F0ED8002B03D0B3F1807F03D06D
S315080018F008E0124B019308E0114B019305E0114BE8
S31508001900019302E00023019300BF12E00E4B0193FE
S315080019100FE00E4B01930CE00D4B019309E00D4BC4
S31508001920019306E00C4B019303E00C4B019300E096
S3150800193000BF019B184602B0704700BF00093D0072
S3150800194080841E0040420F00405DC6000024F4005B
S31508001950C0EA210180BA8C010048E801005A6202F7
S31508001960014B1B68184670471010002000B583B05D
S3150800197001900091009B002B02D0019B002B03D104
S31508001980372107480AF061FB019B1A68009B1A6019
S31508001990019B009A1A6000BF03B05DF804FB00BF04
S315080019A0A4D8000884B001900B4B1A68019B134415
S315080019B00A4A934202D94FF0FF3309E0064B1B68E7
S315080019C00393054B1A68019B1344034A1360039B50
S315080019D0184604B0704700BF1C1000200000042001
S315080019E000B587B0039002910192029B1F2B03D981
S315080019F091210C480AF029FB019B002B04D0039B7C
S31508001A0003F58053059303E0039B03F50053059301
S31508001A10059B0121029A01FA02F21A6000BF07B07B
S31508001A205DF804FBF4D8000800B585B003468DF8C8
S31508001A3007309DF80730002B01D0012300E0002372
S31508001A400393039A00210348FFF7CAFF00BF05B0B6
S31508001A505DF804FB44C4035000B585B00023039326
S31508001A6001213A2000F090FE0123042203210020E0
S31508001A7003F0F8F903980AF0DCFC0120FFF7D4FF1D
S31508001A80474B03F580531A464FF400235366454BDC
S31508001A90DB6803F08073002B14BF012300238DF845
S31508001AA00B309DF80B30002B05D03E4BDB683D4ACA
S31508001AB023F08073D3603A4BD3F8803023F00303C6
S31508001AC0374A43F00203C2F880309DF80B30002BEA
S31508001AD005D0344BDB68334A43F08073D3604FF448
S31508001AE0607000F08BFE01902E4B1B682D4A43F068
S31508001AF0010313602B4BDB682A4A43F08073D360DB
S31508001B000123ADF802300F23ADF80030BDF80230DE
S31508001B105B021A46BDF800305B001A432249234B84
S31508001B2013430B60019B03F5D52303F2FC43DB0843
S31508001B301F4AA2FB03239B0A1E4A013B13611D4B46
S31508001B400222C3F8F0201B4B4FF48072C3F804231B
S31508001B504FF06043184AC3F8B02F4FF06043174A56
S31508001B60C3F8802E4FF06043D3F8003E4FF0604232
S31508001B7043F48073C2F8003E4FF06043FF2283F8B7
S31508001B8020204FF06043D3F8003E4FF0604223F424
S31508001B908073C2F8003E0023184605B05DF804FBC2
S31508001BA000800050F0ED00E0001000E0E101004088
S31508001BB017916502000004E055CEACC50900010086
S31508001BC000B585B001900091204B1B7883F0010386
S31508001BD0DBB2002B01D01E4B34E0019B002B01D158
S31508001BE01C4B2FE00AF059FB02900023039322E0D6
S31508001BF0194A039B1B0113440C331B7883F001031A
S31508001C00DBB2002B14D0039A019B1A60124A039B7D
S31508001C101B0113440C3301221A700F4A039B1B0144
S31508001C20134400221A6002980AF047FB002309E0D1
S31508001C30039B01330393039B072BD9DD02980AF014
S31508001C403CFB064B184605B05DF804FB78170020E8
S31508001C50028000F0018000F044130020048000F0A8
S31508001C6000B585B000238DF80B300AF016FB0190FD
S31508001C70002303930EE0154A039B1B0113440C3300
S31508001C801B78002B03D001238DF80B3005E0039B4E
S31508001C9001330393039B072BEDDD9DF80B3083F08F
S31508001CA00103DBB2002B09D003F04CFE084B0022DF
S31508001CB01A7001980AF001FB002303E001980AF064
S31508001CC0FCFA044B184605B05DF804FB44130020E3
S31508001CD078170020058000F000B585B00190164BF6
S31508001CE01B7883F00103DBB2002B01D0134B1FE0F6
S31508001CF0019B072B01D9124B1AE00AF0CEFA039082
S31508001D00104A019B1B0113440C331B78002B0BD084
S31508001D100C4A019B1B0113440C3300221A700398CA
S31508001D200AF0CBFA002303E003980AF0C6FA064B3A
S31508001D30184605B05DF804FB78170020028000F00D
S31508001D40018000F044130020068000F000B585B03D
S31508001D50194B1B68019300238DF804300AF09DFA8D
S31508001D600290164B1B78002B04D002980AF0A5FAAD
S31508001D70134B1DE0114B01221A7002980AF09DFAC6
S31508001D800023039309E00F4A039B1B0113440C33FA
S31508001D9000221A70039B01330393039B072BF2DD82
S31508001DA008238DF8073001AB184603F005FE00231B
S31508001DB0184605B05DF804FB40D9000878170020DE
S31508001DC0038000F04413002000B583B00190124B45
S31508001DD01B7883F00103DBB2002B01D00F4B17E011
S31508001DE0019B072B01D90E4B12E00E4A019B1B01E2
S31508001DF013440C331B7883F00103DBB2002B01D0AC
S31508001E00094B05E0019B0021184603F0B5FD0023A8
S31508001E10184603B05DF804FB78170020028000F02E
S31508001E20018000F044130020078000F000B583B05D
S31508001E300190124B1B7883F00103DBB2002B01D013
S31508001E400F4B17E0019B072B01D90E4B12E00E4AE8
S31508001E50019B1B0113440C331B7883F00103DBB28F
S31508001E60002B01D0094B05E0019B0121184603F020
S31508001E7083FD0023184603B05DF804FB781700209D
S31508001E80028000F0018000F044130020078000F073
S31508001E9000B583B00190124B1B7883F00103DBB2C7
S31508001EA0002B01D00F4B16E0019B072B01D90E4BD7
S31508001EB011E00E4A019B1B0113440C331B7883F077
S31508001EC00103DBB2002B01D0094B04E0019B184645
S31508001ED003F0ECFE0023184603B05DF804FB00BFD0
S31508001EE078170020028000F0018000F044130020DB
S31508001EF0078000F082B001900091194B1B7883F09F
S31508001F000103DBB2002B01D0164B25E0019B072B02
S31508001F1002D8009B002B01D1134B1DE0134A019BED
S31508001F201B0113440C331B7883F00103DBB2002B2F
S31508001F3001D00F4B10E00F4B1B6D0121019A01FADE
S31508001F4002F21340002B03D0009B01221A7002E014
S31508001F50009B00221A700023184602B0704700BF83
S31508001F6078170020028000F0018000F0441300205A
S31508001F70078000F00000045000B583B0019000917E
S31508001F80154B1B7883F00103DBB2002B01D0134BF2
S31508001F901DE0019B072B02D8009B002B01D1104B9B
S31508001FA015E0104A019B1B0113440C331B7883F080
S31508001FB00103DBB2002B01D00B4B08E0019B18464E
S31508001FC003F09EFE03461A46009B1A700023184625
S31508001FD003B05DF804FB00BF78170020028000F00C
S31508001FE0018000F044130020078000F000B587B098
S31508001FF0364B1B6D0393354B5B6D039A1340039366
S31508002000039B002B00DAFEE70023059301230493C4
S3150800201053E0039A049B1340002B48D02B4B03F53F
S3150800202000531A46049B1365059B1B01284A134453
S315080020300293029B1B68002B39D0029B9B685A1C93
S31508002040029B9A60029B1B68029A9168029A5268E0
S31508002050059898470346002B14BF01230023DBB2DB
S3150800206083F00103DBB28DF807309DF8073003F0E3
S3150800207001038DF80730029B5B7B012B17D19DF876
S315080020800730002B13D0134A059B5B01134403F159
S31508002090080213796FF3410313710E4A059B5B011E
S315080020A0134403F1180213796FF341031371059B67
S315080020B001330593049B5B000493059B072BA8D962
S315080020C000BF00BF07B05DF804FB00BF0000045066
S315080020D044130020C413002010B58AB0029201935D
S315080020E003468DF80F300B468DF80E307B4B1B7868
S315080020F083F00103DBB2002B01D0794BEBE0029BA6
S31508002100072B10D80C9B002B0DD00D9B002B0AD04B
S31508002110109BB3F5006F06DC9DF80F30012B04D138
S315080021200E9B002B01D16F4BD5E0029B1B016E4A1B
S3150800213013440993099B1B7B83F00103DBB2002B35
S3150800214001D06A4BC7E004AB00221A605A609A6055
S31508002150DA60029B5B01664A134408939DF80E30C9
S31508002160002B1DD1089B1A46002313605360936009
S31508002170D360089A937843F010039370089AD3783B
S3150800218043F03003D3709DF83C3083F00103DBB293
S31508002190002B22D0089AD37843F00303D3701CE0AF
S315080021A0089B1A460023136053609360D360089A0D
S315080021B0937843F010039370089AD37843F0030397
S315080021C0D3709DF83C3083F00103DBB2002B04D0BA
S315080021D0089AD37843F03003D370019B0493109B7D
S315080021E09BB2013B9BB2C3F30A0399B2089A1388C0
S315080021F061F30E1313800C9A089B9A600D9A089B3C
S315080022005A609DF8443003F00303D9B2089AD3788C
S3150800221061F38303D3709DF80F30012B3BD1089AE5
S31508002220137B43F001031373089A137B43F00203ED
S315080022301373089AD368042161F39F03D3602C4A69
S31508002240029B5B01134403F11002089B14460FCB53
S3150800225084E80F00264A029B5B01134403F1180227
S3150800226053686FF0030161F39F0353600E9A204988
S31508002270029B5B010B4414331A609DF80E30012B48
S3150800228009D10D9A1A49029B5B010B4418331A604F
S315080022900E9A089B5A60129B002B08D19DF80F30A6
S315080022A0002B04D1089A93786FF304139370099B53
S315080022B0129A1A60099B139A5A60099B00229A601F
S315080022C0099B9DF80F205A73029B04A9089A184681
S315080022D003F0E8FB002318460AB010BD7817002063
S315080022E0028000F0018000F044130020078000F00F
S315080022F0C413002082B003468DF807309DF90730D5
S31508002300002B0CDB9DF8073003F01F0205499DF9E9
S3150800231007305B09012000FA02F241F8232000BFCA
S3150800232002B0704700E100E082B003468DF807303E
S315080023309DF90730002B0DDB9DF8073003F01F02CF
S3150800234006499DF907305B09012000FA02F260335D
S3150800235041F8232000BF02B0704700BF00E100E04B
S3150800236082B00190044B03F500531A46019BC2F84C
S31508002370203400BF02B0704700C0035082B0064B3D
S31508002380D3F824340193044BD3F82024019B13403B
S31508002390184602B0704700BF00C0035000B587B0AA
S315080023A001902BE0019809F092FE05900122059B09
S315080023B002FA03F3DB43019A13400193059B1B01C1
S315080023C0124A13440493049B5B68002B16D0049BA3
S315080023D01B7B002B0AD0049B5B680293059BDAB231
S315080023E0049B9968029B1046984707E0049B5B6824
S315080023F00393059BDAB2039B10469847019B002B73
S31508002400D0D100BF00BF07B05DF804FBC41400209C
S3150800241000B587B0039002910192029B1F2B03D946
S3150800242091210C4809F011FE019B002B04D0039B57
S3150800243003F58053059303E0039B03F500530593C7
S31508002440059B0121029A01FA02F21A6000BF07B041
S315080024505DF804FB44D9000808B500BF0421044808
S3150800246009F094FE0346002BF8D100BF00BF08BD53
S315080024708440005008B5FFF7EFFF044BD3F88430CB
S315080024809B0903F00303DBB2184608BD0040005061
S31508002490054BDB6903F48033002B14BF01230023AB
S315080024A0DBB21846704700BF00000350024B0022FB
S315080024B0DA6300BF704700BF00000350024B41F6C5
S315080024C07132DA6300BF704700000350014B5B6846
S315080024D0184670470000035082B00190024A019BDB
S315080024E0536000BF02B070470000035000B585B0C6
S315080024F0019000230393019BB3F5607F35D0019BC0
S31508002500B3F5607F59D8019BB3F5207F4ED0019B68
S31508002510B3F5207F51D8019BB3F5007F3ED0019BD0
S31508002520B3F5007F49D8019B002B03D0019BB3F577
S31508002530C07F42D1264B1B6F1B0B03F00F0303937F
S31508002540039B002B3BD0039B012B38D0039B032B0B
S3150800255035D0039B072B32D0039B0F2B2FD04FF47C
S315080025601D711C4809F071FD29E0194BD3F880301C
S315080025701B0903F003030393039B002B21D0039B42
S31508002580012B1ED0039B022B1BD0039B032B18D0B9
S315080025904FF421710F4809F058FD12E00C4BD3F89F
S315080025A090301B0E03F01F0303930BE0084B1B6FC1
S315080025B09B0A03F00103039304E000BF02E000BF97
S315080025C000E000BF039B0133184605B05DF804FB25
S315080025D00080005090D9000810B584B00190009191
S315080025E0019BB3F5607F54D0019BB3F5607F00F281
S315080025F0BA80019BB3F5207F00F09F80019BB3F55D
S31508002600207F00F2B080019BB3F5007F7DD0019B4F
S31508002610B3F5007F00F2A780019B002B04D0019B35
S31508002620B3F5C07F40F09F80009B012B10D0009B24
S31508002630022B0DD0009B042B0AD0009B082B07D039
S31508002640009B102B04D040F2B5214C4809F0FDFC44
S3150800265009F003FE09F0F9FD01F0DEF9484B1B6F9E
S3150800266023F47042009B013B1B03454913430B6748
S3150800267009F086FD0446FFF7FDFE0346C3F1020393
S315080026801946204609F0CDFD01F0FEFB01F0D0F910
S3150800269070E03C4BDB6803F08073002B14BF01230A
S315080026A000238DF80F309DF80F30002B05D0354BE1
S315080026B0DB68344A23F08073D360009B012B0DD06E
S315080026C0009B022B0AD0009B032B07D0009B042BF0
S315080026D004D040F2DF21294809F0B7FC284BD3F88B
S315080026E0803023F03002009B013B1B012449134331
S315080026F0C1F880309DF80F30002B3AD0214BDB68AB
S31508002700204A43F08073D36033E0009B002B02D04D
S31508002710009B202B04D940F2F221184809F095FCB9
S31508002720174BD3F8903023F0F852009B013B1B0659
S3150800273013491343C1F890301CE0009B012B07D0C6
S31508002740009B022B04D04FF43E710C4809F07DFC27
S315080027500B4B1B6F23F48062009B013B9B020849CD
S3150800276013430B6706E040F2FE21044809F06DFCAE
S3150800277000E000BF00BF04B010BD00BF90D900083C
S3150800278000800050F0ED00E000B585B001900B46E2
S315080027908DF8033000230393019B5B09002B05D1B9
S315080027A040F21B31124809F050FC12E0019B5B090C
S315080027B0012B02D10F4B03930BE0019B5B09022B04
S315080027C002D10D4B039304E040F22531084809F085
S315080027D03CFC019B03F01F0302939DF803301A4645
S315080027E002990398FFF714FE00BF05B05DF804FBD5
S315080027F090D90008648000506880005010B584B0F5
S3150800280001900023039300230293019BB3F5486FBD
S3150800281000F02983019BB3F5486F00F23683019BCC
S31508002820B3F5406F00F0EF82019BB3F5406F00F2FD
S315080028302C83019BB3F5286F00F01B83019BB3F52E
S31508002840286F00F22283019BB3F5206F00F0058301
S31508002850019BB3F5206F00F21883019BB3F5106F47
S3150800286000F0EF82019BB3F5106F00F20E83019B17
S31508002870B3F5F06F00F00383019BB3F5F06F00F238
S315080028800483019BB3F5E06F00F0E182019BB3F589
S31508002890E06F00F2FA82019BB3F5D06F00F0CB82AD
S315080028A0019BB3F5D06F00F2F082019BB3F5C06FC0
S315080028B000F0BB82019BB3F5C06F00F2E682019B74
S315080028C0B3F5B06F00F0A582019BB3F5B06F00F2C7
S315080028D0DC82019BB3F5A06F00F08F82019BB3F5F4
S315080028E0A06F00F2D282019BB3F5806F00F07F8261
S315080028F0019BB3F5806F00F2C882019BB3F5607F38
S3150800290000F06682019BB3F5607F00F2BE82019BF0
S31508002910B3F5407F00F04F82019BB3F5407F00F28C
S31508002920B482019BB3F5207F00F03982019BB3F591
S31508002930207F00F2AA82019BB3F5007F00F0238274
S31508002940019BB3F5007F00F2A082019BB3F5807F5F
S3150800295000F20A82019BB3F5807F00F2968201A2FB
S3150800296052F823F07D2D00088B2E00088B2E0008C8
S315080029708B2E00088B2E00088B2E00088B2E000845
S315080029808B2E00088B2E00088B2E00088B2E000835
S315080029908B2E00088B2E00088B2E00088B2E000825
S315080029A08B2E00088B2E00088B2E00088B2E000815
S315080029B08B2E00088B2E00088B2E00088B2E000805
S315080029C08B2E00088B2E00088B2E00088B2E0008F5
S315080029D08B2E00088B2E00088B2E00088B2E0008E5
S315080029E08B2E00087D2D00089F2D00087D2D0008E0
S315080029F09F2D0008EF2D0008EF2D0008EF2D000889
S31508002A00EF2D0008EF2D00089F2D0008132E000853
S31508002A10B72D00082B2E0008372E0008B72D000802
S31508002A209F2D00089F2D00089F2D00088B2E00085B
S31508002A308B2E00088B2E00088B2E00088B2E000884
S31508002A408B2E00088B2E00088B2E00089F2D000861
S31508002A509F2D00089F2D00087F2E00084F2E000886
S31508002A609F2D00088B2E00088B2E00088B2E000841
S31508002A708B2E00088B2E00088B2E00088B2E000844
S31508002A808B2E00088B2E00088B2E00088B2E000834
S31508002A908B2E00088B2E0008EF2D00087D2D0008D0
S31508002AA07D2D00087D2D0008432E0008B72D00084F
S31508002AB0B72D00085B2E0008732E0008FB2D0008B2
S31508002AC0072E00088B2E00088B2E00088B2E000878
S31508002AD08B2E00088B2E0008672E00087D2D000817
S31508002AE08B2E00088B2E00088B2E00088B2E0008D4
S31508002AF08B2E00088B2E00088B2E00088B2E0008C4
S31508002B008B2E00088B2E00088B2E00088B2E0008B3
S31508002B108B2E00088B2E00088B2E00088B2E0008A3
S31508002B208B2E00088B2E00088B2E00088B2E000893
S31508002B308B2E00088B2E00088B2E00088B2E000883
S31508002B408B2E00088B2E00088B2E00088B2E000873
S31508002B508B2E00088B2E00088B2E00088B2E000863
S31508002B608B2E0008732D00088B2E00088B2E00086C
S31508002B708B2E00088B2E00088B2E00088B2E000843
S31508002B808B2E00088B2E00088B2E00088B2E000833
S31508002B908B2E00088B2E00088B2E00088B2E000823
S31508002BA08B2E00088B2E00088B2E00088B2E000813
S31508002BB08B2E00088B2E00088B2E00088B2E000803
S31508002BC08B2E00088B2E00088B2E00088B2E0008F3
S31508002BD08B2E00088B2E00088B2E00088B2E0008E3
S31508002BE08B2E00088B2E00088B2E00088B2E0008D3
S31508002BF08B2E00088B2E00088B2E00088B2E0008C3
S31508002C008B2E00088B2E00088B2E00088B2E0008B2
S31508002C108B2E00088B2E00088B2E00088B2E0008A2
S31508002C208B2E00088B2E00088B2E00088B2E000892
S31508002C308B2E00088B2E00088B2E00088B2E000882
S31508002C408B2E00088B2E00088B2E00088B2E000872
S31508002C508B2E00088B2E00088B2E00088B2E000862
S31508002C608B2E00088B2E00088B2E00088B2E000852
S31508002C708B2E00088B2E00088B2E00088B2E000842
S31508002C808B2E00088B2E00088B2E00088B2E000832
S31508002C908B2E00088B2E00088B2E00088B2E000822
S31508002CA08B2E00088B2E00088B2E00088B2E000812
S31508002CB08B2E00088B2E00088B2E00088B2E000802
S31508002CC08B2E00088B2E00088B2E00088B2E0008F2
S31508002CD08B2E00088B2E00088B2E00088B2E0008E2
S31508002CE08B2E00088B2E00088B2E00088B2E0008D2
S31508002CF08B2E00088B2E00088B2E00088B2E0008C2
S31508002D008B2E00088B2E00088B2E00088B2E0008B1
S31508002D108B2E00088B2E00088B2E00088B2E0008A1
S31508002D208B2E00088B2E00088B2E00088B2E000891
S31508002D308B2E00088B2E00088B2E00088B2E000881
S31508002D408B2E00088B2E00088B2E00088B2E000871
S31508002D508B2E00088B2E00088B2E00088B2E000861
S31508002D608B2E00081F2E0008019BB3F5C07F05D0E7
S31508002D708BE0FEF717FD034603938CE0FEF73AFD5A
S31508002D800346039387E0FEF70DFD04464FF40070F3
S31508002D90FFF7ACFB0346B4FBF3F303937BE0FEF7C4
S31508002DA029FD04464FF42070FFF7A0FB0346B4FB49
S31508002DB0F3F303936FE0FEF71DFD04464FF420700E
S31508002DC0FFF794FB0346B4FBF3F35B08039362E057
S31508002DD002AB0021184600F041FE029C4FF46070D9
S31508002DE0FFF784FB0346B4FBF3F3039353E003AB0B
S31508002DF00021184600F0BEFE4DE003AB0021184640
S31508002E0000F076FC47E003AB0021184600F0C4FC4E
S31508002E1041E003AB0021184600F0F0FF3BE003ABAE
S31508002E200021184601F02CF935E003AB00211846BD
S31508002E3000F0FEFE2FE003AB0021184601F080F8F3
S31508002E4029E003AB0021184601F0CAF823E003ABDA
S31508002E500021184601F032F81DE003AB00211846A0
S31508002E6000F0F8FC17E003AB0021184600F046FD19
S31508002E7011E003AB0021184600F094FD0BE003AB0C
S31508002E800021184600F016FF05E04FF48F6104484C
S31508002E9009F0DBF800BF039B184604B010BD00BF5D
S31508002EA090D9000800B585B0019000230393019BD3
S31508002EB0B3F5486F00F0CD81019BB3F5486F00F27A
S31508002EC0D481019BB3F5406F00F0B181019BB3F546
S31508002ED0406F00F2CA81019BB3F5286F00F0BF81ED
S31508002EE0019BB3F5286F00F2C081019BB3F5206FF3
S31508002EF000F0A981019BB3F5206F00F2B681019B12
S31508002F00B3F5106F00F07B81019BB3F5106F00F2EB
S31508002F10AC81019BB3F5086F00F07781019BB3F58F
S31508002F20086F00F2A281019BB3F5F06F00F05B8198
S31508002F30019BB3F5F06F00F29881019BB3F5E06F42
S31508002F4000F07B81019BB3F5E06F00F28E81019B57
S31508002F50B3F5D06F00F04D81019BB3F5D06F00F249
S31508002F608481019BB3F5C06F00F03781019BB3F5EF
S31508002F70C06F00F27A81019BB3F5B06F00F01B8138
S31508002F80019BB3F5B06F00F27081019BB3F5A06F9A
S31508002F9000F04781019BB3F5A06F00F26681019BA3
S31508002FA0B3F5806F00F00D81019BB3F5806F00F2D9
S31508002FB05C81019BB3F5607F00F02D81019BB3F521
S31508002FC0607F00F25281019B802B00F2C780019B33
S31508002FD0242BC0F04A81019B243B5C2B00F24581DF
S31508002FE001A252F823F000BFC3310008C33100081C
S31508002FF0C3310008C3310008C33100086B3200082A
S31508003000B73100086B320008DB310008F3310008DD
S315080030106B3200086B3200086B3200086B3200080E
S315080030206B3200086B3200086B3200086B320008FE
S315080030306B3200086B3200086B3200086B320008EE
S315080030406B3200086B3200086B320008E731000863
S315080030503B3200086B3200086B3200086B320008FE
S315080030606B3200086B3200086B3200086B320008BE
S315080030706B3200086B3200086B3200086B320008AE
S315080030806B3200086B3200086B320008C331000847
S315080030906B3200086B3200086B320008FF310008FB
S315080030A06B3200086B320008473200085F320008AE
S315080030B0233200082F3200086B3200086B320008F2
S315080030C06B3200086B3200086B3200085332000876
S315080030D06B3200086B3200086B3200086B3200084E
S315080030E06B3200086B3200086B3200086B3200083E
S315080030F06B3200086B3200086B3200086B3200082E
S315080031006B3200086B3200086B3200086B3200081D
S315080031106B3200086B3200086B3200086B3200080D
S315080031206B3200086B3200086B3200086B320008FD
S315080031306B3200086B3200086B3200086B320008ED
S315080031406B3200086B3200086B3200086B320008DD
S315080031506B3200086B32000867310008019BB3F533
S31508003160807F34D081E0464B1B6F03F00703013B99
S31508003170032B17D801A252F823F000BF9F3100088D
S315080031808D3100089331000899310008052303930F
S3150800319010E0032303930DE0082303930AE00223B8
S315080031A0039307E00023039340F2AA41354808F049
S315080031B04CFF00BF5FE003AB1946002000F01EFE7F
S315080031C059E003AB1946002000F0D4FC53E003ABEA
S315080031D01946002000F054FF4DE003AB19460020C5
S315080031E000F026FD47E003AB1946002000F062FD1B
S315080031F041E003AB1946002000F0A2FE3BE003AB1A
S315080032001946002000F0ECFE35E003AB1946002015
S3150800321000F066FC2FE003AB1946002000F01EFC08
S3150800322029E003AB1946002000F062FA23E003AB5D
S315080032301946002000F0B0FA1DE003AB194600203D
S3150800324000F03CFE17E003AB1946002000F002FB35
S3150800325011E003AB1946002000F050FB0BE003AB6E
S315080032601946002000F09EFB05E040F2595105483A
S3150800327008F0EBFE00BF039B184605B05DF804FB9B
S315080032800080005090D90008074B03F580531A4672
S315080032904FF480135366054B03F580531A464FF4D3
S315080032A08033936200BF7047008000500040005A88
S315080032B000B585B00190019B1B680F2B04D940F619
S315080032C0F2218F4808F0C1FE019B5B680F2B04D9D9
S315080032D040F6F5218A4808F0B8FE019B9B680F2B3B
S315080032E004D940F6F821864808F0AFFE019B1B7BFF
S315080032F00F2B04D940F6FB21814808F0A6FE019B56
S315080033005B7B0F2B04D940F6FE217D4808F09DFE15
S31508003310019B9B7B3F2B04D940F60131784808F086
S3150800332094FE019BDB7B3F2B04D940F6043174489D
S3150800333008F08BFE019B1B69032B04D940F6073165
S315080033406F4808F082FE019B5B69032B04D940F69F
S315080033500A316B4808F079FE019BDB69032B04D917
S3150800336040F60D31664808F070FE8020FFF79AFD9A
S315080033700346032B00F00A81624B03F580531A4675
S315080033804FF480135366604B45F60E02C3F880204F
S315080033905D4B03F580531A464FF0A06393625A4B70
S315080033A003F500531A464FF48033936200BF564B19
S315080033B09B6D03F48033002BF9D1019B1B681A0619
S315080033C0019B5B681B051343019A127B1204134386
S315080033D0019A527B12031343019A927B920113437B
S315080033E0019AD27B1146484A0B431361464B9B69A7
S315080033F003F00042019B1B699B061A43019B5B690C
S315080034001B061343019A127E12041343019A527E35
S3150800341012021343019A927E11463B4A0B4393616B
S31508003420394B1B6A23F00F03019AD269002A01D18E
S31508003430002200E008221343019AD27E92001A4322
S31508003440019BDB69304913430B62019BDB69002B47
S3150800345060D12D4B9A6A2D4B1340019A92F8202081
S3150800346052011343019A92F8212012011343019A3B
S3150800347092F82420D2001343234A43F480339362FC
S3150800348000BF214B9A6D224B1340214A9342F8D133
S315080034901D4B03F580531A464FF0807393621A4BFF
S315080034A01B6923F47002019B9B681B05164913438D
S315080034B00B61154B03F580531A464FF00043936191
S315080034C0019B93F8223083F00103DBB2002B06D070
S315080034D00D4B03F500531A464FF080739362019B18
S315080034E093F8233083F00103DBB2002B44D0064B5C
S315080034F003F500531A464FF4803393623CE000BF4D
S3150800350090D90008008000500040005AC7FFFEFE10
S3150800351003000100019BDB69022B12D11D4B00221F
S315080035201A611C4B00229A6102230393039B1A0318
S31508003530039B1B0213431A464FF47F41164808F0B3
S3150800354032FE144B9A6A154B1340019A92F82020C2
S3150800355052011343019A92F8222012061343019A44
S3150800356092F82420D2001343019A92F823201204D9
S315080035701146084A0B439362019B93F82530002BAA
S3150800358005D0044B064AC3F8802000E000BF05B00A
S315080035905DF804FB0040005A3440005AC7FFFEFE9F
S315080035A0F1A7FFFF024B93F900301846704700BF9A
S315080035B0F511002000B585B00190019B5B68072BCB
S315080035C004D940F61451404808F03FFD019B9B681A
S315080035D0032B04D940F616513B4808F036FD019BEB
S315080035E01B78032B04D940F61851374808F02DFDEF
S315080035F0019B5B785BB2002B04DA40F61A5132481D
S3150800360008F023FD4F230393019B5B788DF80B305D
S315080036109DF80B20039B934228BF13468DF80A306A
S315080036202A4B03F580531A464FF400035366284B7A
S315080036304FF4D1525A62264B03F580531A46022399
S315080036405360234B03F500531A460123536000BF0A
S315080036501F4B1B6903F48033002BF9D1019B1B78A0
S315080036601A029DF80A301A4913434B61019B5B689D
S315080036701A02019B9B681B011343019A127B520095
S315080036801343019A527B1146114A0B439360019BDF
S315080036909B7B5A01019BDB7B1B011A43019B1B7C0D
S315080036A05B001343019A527C1A43094B5A60019BEB
S315080036B09B7C002B03D0064B6FF4D1525A6200BF95
S315080036C005B05DF804FB00BF90D9000800800050E3
S315080036D00000025082B00346ADF80630034ABDF832
S315080036E00630138000BF02B0704700BFF0110020FB
S315080036F000B585B00190009100230293244BD3F8BE
S31508003700203203F00703013B032B28D801A252F805
S3150800371023F000BF2537000835370008433700086F
S315080037205137000802AB0021184600F035F812237D
S3150800373003931CE0FEF7A4F80346029307230393BA
S3150800374015E008F07AFC034602930A2303930EE079
S31508003750FEF706F9034602930923039307E00023BD
S31508003760039340F63C710B4808F06FFC00BF019BC1
S31508003770002B02D0029A019B1A60009B002B02D0F4
S31508003780009B039A1A6000BF05B05DF804FB00BFF2
S315080037900080005090D9000800B585B001900091CE
S315080037A000230393294BD3F8283103F00703013B81
S315080037B0052B33D801A252F823F000BFD5370008ED
S315080037C0F937000811380008ED370008E137000816
S315080037D005380008FDF7E0FF03900523029325E06E
S315080037E0FDF7DAFF0390062302931FE0FEF748F879
S315080037F003900723029319E0FEF720F803900323AA
S31508003800029313E0FEF71AF80390042302930DE0DF
S31508003810FEF730F803900223029307E00023029391
S3150800382040F67D710A4808F010FC00BF019B002B8A
S3150800383002D0019B039A1A60009B002B02D0009BC2
S31508003840029A1A6000BF05B05DF804FB00800050BC
S3150800385090D9000800B585B0019000910023029325
S31508003860244BD3F8603203F00703013B032B29D816
S3150800387001A252F823F000BF8938000899380008D9
S31508003880B7380008A938000802AB0021184600F02E
S3150800389071F9102303931DE002AB0021184600F0CE
S315080038A0C7F91123039315E0FDF7EAFF03460293D0
S315080038B0072303930EE0FDF7DDFF03460293022379
S315080038C0039307E00023039340F6E1710A4808F0E2
S315080038D0BCFB00BF019B002B02D0029A019B1A6019
S315080038E0009B002B02D0009B039A1A6000BF05B00C
S315080038F05DF804FB0080005090D9000800B585B03B
S315080039000190009100230293244BD3F8943203F0DC
S315080039100703013B032B29D801A252F823F000BF65
S3150800392031390008413900085F3900085139000863
S3150800393002AB0021184600F01DF9102303931DE081
S3150800394002AB0021184600F073F91123039315E022
S31508003950FDF796FF03460293072303930EE0FDF750
S3150800396089FF034602930223039307E00023039388
S3150800397041F214010A4808F068FB00BF019B002BBE
S3150800398002D0029A019B1A60009B002B02D0009B72
S31508003990039A1A6000BF05B05DF804FB008000506A
S315080039A090D9000800B585B00190009100230293D4
S315080039B0174BD3F8703203F00303012B02D0022B06
S315080039C008D00CE002AB0021184600F031F91123AB
S315080039D003930CE0002302931523039307E00023C7
S315080039E0039341F23F010B4808F02FFB00BF019BF0
S315080039F0002B02D0029A019B1A60009B002B02D072
S31508003A00009B039A1A6000BF05B05DF804FB00BF6F
S31508003A100080005090D90008044B03F580531A46DD
S31508003A204FF48033136700BF704700BF0080005013
S31508003A3008B58020FEF7E2FE0346064A934206D8FA
S31508003A40054B03F500531A464FF48033136700BF3E
S31508003A5008BD00BF005A62020080005000B585B05C
S31508003A6001900091002303931B4BD3F8803003F099
S31508003A700303032B12D0032B16D8012B02D0022BDB
S31508003A8006D011E0FDF78EFE03900E23029313E095
S31508003A90FDF7F6FE0390072302930DE0FDF77CFE83
S31508003AA003900623029307E00023029341F2F801EC
S31508003AB00A4808F0CAFA00BF019B002B02D0019BF6
S31508003AC0039A1A60009B002B02D0009B029A1A6088
S31508003AD000BF05B05DF804FB0080005090D90008CF
S31508003AE000B585B001900091002303931F4BD3F8CE
S31508003AF0003103F00303032B1FD801A252F823F069
S31508003B00353B0008113B00081D3B0008293B00080F
S31508003B10FDF794FE03900323029316E0FDF720FFBA
S31508003B2003900923029310E008F084FA039008230F
S31508003B3002930AE00123029307E00023029341F26D
S31508003B402E110B4808F081FA00BF019B002B02D00A
S31508003B50019B039A1A60009B002B02D0009B029AD5
S31508003B601A6000BF05B05DF804FB00BF0080005076
S31508003B7090D9000800B585B0019000910023039301
S31508003B80294BD3F8203103F00703013B052B33D823
S31508003B9001A252F823F000BFB13B0008BD3B000864
S31508003BA0D53B0008C93B0008E13B0008ED3B00088F
S31508003BB0FDF7F2FD03900523029325E0FDF73EFE8F
S31508003BC00390032302931FE0FDF75AFE0390072391
S31508003BD0029319E0FDF74EFE03900223029313E0C9
S31508003BE0FDF7DAFD0390062302930DE0FDF726FEA6
S31508003BF003900423029307E00023029341F2711114
S31508003C000A4808F022FA00BF019B002B02D0019B4C
S31508003C10039A1A60009B002B02D0009B029A1A6036
S31508003C2000BF05B05DF804FB0080005090D900087D
S31508003C3000B585B001900091002303931B4BD3F880
S31508003C40403103F00303032B12D0032B16D8012BA4
S31508003C5002D0022B06D011E008F0EFF903900A23F0
S31508003C60029313E0FDF77CFE0390092302930DE00F
S31508003C7008F0E7F903900C23029307E00023029368
S31508003C8041F29F110A4808F0E0F900BF019B002B9A
S31508003C9002D0019B039A1A60009B002B02D0009B5E
S31508003CA0029A1A6000BF05B05DF804FB0080005058
S31508003CB090D9000800B585B00190009100230393C0
S31508003CC01B4BD3F8603103F00303032B12D0032BED
S31508003CD016D8012B02D0022B06D011E008F0ADF958
S31508003CE003900A23029313E0FDF73AFE0390092393
S31508003CF002930DE008F0A5F903900C23029307E060
S31508003D000023029341F2CD110A4808F09EF900BF3C
S31508003D10019B002B02D0019B039A1A60009B002B83
S31508003D2002D0009B029A1A6000BF05B05DF804FB3A
S31508003D300080005090D9000884B0019000914FF49B
S31508003D4040130393009B002B0AD1019B0D4A934213
S31508003D5003D94FF4801303930FE0002303930CE079
S31508003D60009B002B09DD019B074A934203D94FF4B8
S31508003D708013039301E000230393039B184604B0C2
S31508003D80704700BF005A6202002D310100B585B0A8
S31508003D9001900091184B03F580531A464FF480336F
S31508003DA093660020FEF7A2FB0246019B02FB03F383
S31508003DB00193FEF76DFB03468DF80F30FEF77EFB89
S31508003DC0FEF784FB034623F44013029300990198F7
S31508003DD0FFF7B2FF0246029B134302930298FEF7CF
S31508003DE07BFB9DF80F30002B01D0FEF75FFB00BF71
S31508003DF005B05DF804FB00BF0080005000B585B033
S31508003E0001900091002302931D4BD3F8803103F0F3
S31508003E100303032B0ED0032B1AD8012B02D0022B37
S31508003E200FD015E002AB00211846FFF7A3FE1023BA
S31508003E30039315E0FDF724FD034602930723039336
S31508003E400EE0FDF717FD034602930223039307E0EE
S31508003E500023039341F2BE210A4808F0F6F800BF92
S31508003E60019B002B02D0029A019B1A60009B002B33
S31508003E7002D0009B039A1A6000BF05B05DF804FBE8
S31508003E800080005090D9000800B583B00223019342
S31508003E904FF4C070FEF7B2FC0346074A934201D8B6
S31508003EA00123019301994FF42070FEF795FB00BF9B
S31508003EB003B05DF804FB00BF80F0FA0200B585B0D8
S31508003EC001900091002303931B4BD3F8403203F073
S31508003ED00303032B12D0032B16D8012B02D0022B77
S31508003EE006D011E008F0A9F803900A23029313E01C
S31508003EF0FDF736FD0390092302930DE008F0A1F8BB
S31508003F0003900C23029307E00023029341F2373112
S31508003F100A4808F09AF800BF019B002B02D0019BC3
S31508003F20039A1A60009B002B02D0009B029A1A6023
S31508003F3000BF05B05DF804FB0080005090D900086A
S31508003F4000B585B00190009100230393224BD3F866
S31508003F50003203F00703013B032B25D801A252F8D0
S31508003F6023F000BF753F0008813F00088D3F000819
S31508003F70993F000808F061F803900A2302931BE0B2
S31508003F80FDF7EEFC03900923029315E008F059F8B3
S31508003F9003900C2302930FE0FDF72CFC03469B0AC3
S31508003FA003930F23029307E00023029341F274312F
S31508003FB00A4808F04AF800BF019B002B02D0019B73
S31508003FC0039A1A60009B002B02D0009B029A1A6083
S31508003FD000BF05B05DF804FB0080005090D90008CA
S31508003FE000B585B00190009100230393224BD3F8C6
S31508003FF0083203F00703013B032B25D801A252F828
S3150800400023F000BF15400008214000082D40000895
S315080040103940000808F011F803900A2302931BE0C0
S31508004020FDF79EFC03900923029315E008F009F8B2
S3150800403003900C2302930FE0FDF7DCFB03469B0A73
S3150800404003930F23029307E00023029341F2A8315A
S315080040500A4807F0FAFF00BF019B002B02D0019B1C
S31508004060039A1A60009B002B02D0009B029A1A60E2
S3150800407000BF05B05DF804FB0080005090D9000829
S3150800408000B585B00190009100230393114B1B687E
S3150800409003F00403002B06D0FDF7ACFB034603939D
S315080040A00D23029305E002AA03AB11461846FFF753
S315080040B0BFFD019B002B02D0039A019B1A60009B4F
S315080040C0002B02D0029A009B1A6000BF05B05DF86B
S315080040D004FB00BF10E000E000B585B003468DF88C
S315080040E007309DF90730002B03DB9DF907304B2B72
S315080040F004DD40F21F310E4807F0A7FF0D4B03936E
S315080041009DF907305A09039B53F822209DF807307A
S3150800411003F01F0322FA03F303F00103002B0CBF7D
S3150800412001230023DBB2184605B05DF804FB00BF87
S31508004130DCD9000800E100E0024B034A1A6400BF1C
S31508004140704700BF004009503254FFFF024B4AF641
S31508004150CD321A6400BF70470040095082B0019002
S3150800416000BF054B5A6B019B1340002BF9D100BFCA
S3150800417000BF02B0704700BF0040095008B500BF35
S315080041800421044808F0A9F80346002BF8D100BF1B
S3150800419000BF08BD8440005008B5FFF7EFFF044B89
S315080041A0D3F884309B0903F00303DBB2184608BD35
S315080041B00040005000B583B00190019B1A78054B6A
S315080041C01A700121002000F06FF800BF03B05DF8F7
S315080041D004FB00BFC416002082B00190064B5B6F3B
S315080041E023F44072019B5B781B02034913434B6718
S315080041F000BF02B0704700BF0040005000B583B052
S3150800420003468DF807300E4B1B690D4A43F004032D
S31508004210136104F0BBF808F07BF830BF08F07AF8B1
S3150800422004F0CCF89DF8073083F00103DBB2002BCD
S3150800423001D008F04DF800BF03B05DF804FB00BFDD
S3150800424000ED00E000B583B003468DF807300C4B4F
S315080042501B690B4A43F00403136104F097F830BF57
S3150800426004F0ACF89DF8073083F00103DBB2002BAD
S3150800427001D008F02DF800BF03B05DF804FB00BFBD
S3150800428000ED00E082B00190064BDB6E23F03003B0
S31508004290019A12791146034A0B43D36600BF02B04E
S315080042A0704700BF0040005000B585B001900B462E
S315080042B08DF80330019B002B03D1FDF773FA0390A9
S315080042C001E0019B03930D4B1B78002B0AD0039B3F
S315080042D00B4A934206D89DF803301946012000F090
S315080042E011F806E09DF803301946022000F00AF896
S315080042F000BF00BF05B05DF804FB00BFC416002070
S31508004300005A620210B586B003460A468DF8073091
S3150800431013468DF80630FFF73FFF03461A469DF809
S315080043200730934252D0FDF73DFA0590059B04935A
S315080043309DF80730012B0CD1049B264A934204D9D9
S3150800434040F23C71244807F080FE0121059807F0E9
S3150800435068FF07F08CFF0390204B03F500531A46BD
S315080043604FF0007353669DF80730184607F0D8FFDC
S315080043701A4C9DF80730184607F0BCFF034623671A
S315080043800BE0164BD3F8843003F02003002B04D03F
S3150800439040F24A71104807F058FE104B5B6E03F066
S315080043A00073002B06D10D4BD3F8843003F020039D
S315080043B0002BE6D0039807F066FF9DF80730022B1E
S315080043C005D10021059807F02CFF00E000BF06B0D4
S315080043D010BD00BF005A620228DA000800400050EB
S315080043E000B585B003468DF807302B4B03F580538F
S315080043F01A464FF000435366284B5B6C03F00103E3
S31508004400002B14BF012300238DF80F30FFF79EFE03
S315080044109DF80730002B18D10120FFF79FFE1F4B90
S315080044205B6803F001030293029B002B27D01B4B0A
S3150800443003F500531A460123536000BF174B1B6B45
S3150800444003F00103002BF9D019E000BF134B1B6BD7
S3150800445003F00803002BF9D1104B03F500531A4655
S31508004460202393620D4B03F580531A4601235360AC
S3150800447000BF0A4B9B6A03F02003002BF9D09DF876
S315080044800F30002B01D0FFF757FE07F050FF00BF93
S3150800449005B05DF804FB00BF0080005000400950DD
S315080044A000B585B00190254B03F580531A464FF0A9
S315080044B000435366224B5B6C03F00103002B14BFC9
S315080044C0012300238DF80F30FFF740FE019B5B7830
S315080044D05B001C4A43F00103D3630B20FFF73EFE43
S315080044E0174B5B6823F4F872019B9B781B011449F0
S315080044F013434B60019BDB781B02019A52791146E4
S315080045000F4A0B439360019B1B791B02019A927910
S3150800451011460B4A0B431361019B1B781846FFF79C
S315080045205FFF9DF80F30002B01D0FFF705FE07F05F
S31508004530FEFE0123184605B05DF804FB0080005016
S31508004540004009500040005000B585B00190002396
S315080045508DF80F3000238DF80E30019B0F2B04D9F0
S3150800456040F6C251224807F070FD019B0F2B01D976
S315080045700F2301931F4B5B6EDB0F8DF80E301D4B1F
S3150800458003F580531A464FF0004353661A4B5B6C8B
S3150800459003F00103002B14BF012300238DF80F300D
S315080045A0FFF7D4FD8020FFF7D9FD134B1B6A23F0D4
S315080045B00F021149019B13430B629DF80F30002B24
S315080045C001D0FFF7B9FD9DF80E3083F00103DBB289
S315080045D0002B06D0074B03F500531A464FF000434D
S315080045E0536607F0A4FE00BF05B05DF804FB00BFE4
S315080045F028DA0008008000500040095000B583B052
S3150800460001900091019B314A934207D0019B304AA1
S31508004610934203D0DF212F4807F017FD009B002B9C
S3150800462003D1E1212B4807F010FD009B5B7B002B93
S3150800463019D0009B9B68284A934203D9E321254851
S3150800464007F003FD009B1B69002B36D0009B1B69F6
S31508004650DB7B83F00103DBB2002B2ED1E6211D485C
S3150800466007F0F3FC29E0009B9B681C4A934203D998
S31508004670E921184807F0E9FC009B1B69002B1CD0B0
S31508004680009B1B691B7F002B17D0009B9B68144A55
S31508004690934204D9009B1B695B7F042B0DD9009BB1
S315080046A09B680F4A934204D8009B1B695B7F042BC7
S315080046B003D8F021074807F0C8FC0099019800F0D4
S315080046C02DFA00BF03B05DF804FB00BF0000015BD4
S315080046D000000A5074DA0008002D3101809698000F
S315080046E03F4B4C0000B585B00190019807F053FE8A
S315080046F0042303930BE0019B03F580531A46042316
S315080047001361019B03F500531A4604231361039BA7
S315080047105A1E0392002BEED1019B20221A61019B9F
S315080047200022DA60019B00229A60019B41F2020294
S315080047305A61019B00229A61019B00229A65019B9E
S315080047404FF4A0225A62019B0022DA61019B0022E3
S315080047501A62019B00229A62019B0022DA62019B7F
S3150800476000225A63019B00221A65019B03F5005338
S315080047701A46044BD364019B00221A6300BF05B096
S315080047805DF804FBFF3F0D0300B585B001900B46AD
S315080047908DF8033000230393019B274A934208D0E0
S315080047A0019B264A934204D040F26511244807F03B
S315080047B04CFC9DF80330002B03D1019807F0EBFD64
S315080047C036E0019B03F580531A46012353609DF892
S315080047D0033003F00F03039340F6FF71019807F0C7
S315080047E0AFFD019B039A9A637821019807F0A8FD0B
S315080047F0002303939DF8033003F00103DBB2002B7B
S3150800480003D0039B43F0010303939DF8033003F0A1
S315080048100403DBB2002B03D0039B43F0020303938C
S3150800482000BF019B9B6C03F00303039A9A42F8D1DD
S3150800483000BF05B05DF804FB0000015B00000A50EC
S3150800484074DA000800B589B003900291019200233A
S315080048508DF81F30019B002B04D140F22321984884
S3150800486007F0F3FB039B974A934208D0039B964AAB
S31508004870934204D040F22621914807F0E6FB029BBA
S31508004880002B07D1039800F025F903461846FDF7D3
S31508004890B5FF0290039B9B6803F00103002B66D0CB
S315080048A0019A029B9A4204D94FF40C71844807F086
S315080048B0CCFB00238DF81E30039B5B6803F00103D5
S315080048C0012B0CBF012300238DF81730029A019B98
S315080048D0B2FBF3F3013B0693069BFF2B04D94FF477
S315080048E00E71774807F0B1FB9DF81730002B29D0D9
S315080048F02821039807F024FD039B9B6C03F0030310
S31508004900002B03D005238DF81E3018E0039B9B6C03
S3150800491003F00103002B03D009238DF81E300EE0A7
S31508004920039B9B6C03F00203002B03D006238DF830
S315080049301E3004E040F24521614807F086FB0398E3
S3150800494007F029FD039B1B6923F07F42069B1B0684
S315080049501A43039B1A619DF81730002B00F0AB80B1
S315080049609DF81E3019460398FFF70EFFA3E0039B38
S315080049705B68012B04D04FF41671514807F065FBAC
S31508004980039B9B6D03F00103002B02D0019B5B0088
S315080049900193039B9B6803F0E003802B49D0802B8F
S315080049A057D8602B37D0602B53D8402B22D0402BBA
S315080049B04FD8002B02D0202B0ED04AE0029B1B09B1
S315080049C0019A9A4204D94FF420713D4807F03DFBFD
S315080049D010238DF81F3042E0029BDB08019A9A42A9
S315080049E004D940F28521364807F02FFB08238DF8B5
S315080049F01F3034E0029B354AA2FB03239B08019A29
S31508004A009A4204D940F28A212D4807F01EFB062354
S31508004A108DF81F3023E0029B9B08019A9A4204D91D
S31508004A2040F28F21264807F010FB04238DF81F302B
S31508004A3015E0019A13465B001344029A9A4204D27F
S31508004A404FF425711E4807F000FB01238DF81F302F
S31508004A5005E040F29A211A4807F0F7FA00BF9DF8D8
S31508004A601F30002B27D0029B5A019DF81F30019951
S31508004A7001FB03F3B2FBF3F30693069B203B069375
S31508004A80069BDB000693069B114A934204D940F223
S31508004A90A5210B4807F0D9FA069A0D4B1340069341
S31508004AA00121039807F04CFC039B069A1A6301211F
S31508004AB0039807F045FC00BF09B05DF804FB00BF8A
S31508004AC074DA00080000015B00000A50ABAAAAAA23
S31508004AD0F8FF7F0000B585B00190019B0C4A934210
S31508004AE002D1562303930DE0019B0A4A934202D151
S31508004AF05723039306E040F27531074807F0A5FAF5
S31508004B00002300E0039B184605B05DF804FB00BFD0
S31508004B100000015B00000A5074DA000800B585B091
S31508004B2001900091009B1B690393019B5B68002B16
S31508004B3004D040F6FF71019807F002FC0198FFF7D0
S31508004B40D1FD019B1B6923F08703009A527B13430F
S31508004B50009A927B134343F08002019B1A61039BE0
S31508004B60002B37D0019B1B6923F0F803009A1269C2
S31508004B70127FD2011343009A126912795201134324
S31508004B80009A1269527A12011343009A126912782E
S31508004B901343009A1269D27B92011A43019B1A6148
S31508004BA0019BDB6823F0F04323F47023009A126913
S31508004BB052691A43009B1B699B691343009A126941
S31508004BC0127B92021343009A1269527BD2031A434C
S31508004BD0019BDA60019B9B6823F00303009AD27B52
S31508004BE0134343F00102019B9A60039B002B36D0C6
S31508004BF0019B9A68009B1B695B8803F4C0431A43B0
S31508004C00019B9A60019B9A68009B1B695B799B02D2
S31508004C101A43019B9A60019B5B6A23F4772323F46A
S31508004C20EE63009A12699279120102F070021A4331
S31508004C30009B1B69DB791B0203F4E0631A43009BA4
S31508004C401B691B7A1B0303F4E0431A43009B1B6989
S31508004C505B7F1B0403F470231A43019B5A62019B72
S31508004C605B6923F00F03009A127B1A43019B5A6172
S31508004C70039B002B44D0009B1B695B891A46019B4A
S31508004C809A61009B1B695B7B002B1AD0019B304AFB
S31508004C90934208D1009B1B699B7B2E4A03F00F03A6
S31508004CA002F580525367019B2B4A934209D1009B18
S31508004CB01B699B7B274A03F00F0302F58052C2F853
S31508004CC08030009B1B69DB7B002B19D0019B204A97
S31508004CD0934208D1009B1B691B7C1E4A03F00F03F5
S31508004CE002F580521367019B1B4A934208D1009B29
S31508004CF01B691B7C174A03F00F0302F58052D36722
S31508004D00009B5968009B9B681A460198FFF79AFD15
S31508004D1005210198FFF738FD2821019807F010FBB7
S31508004D20009B1B781A46019B9A632821019807F075
S31508004D3007FB00BF019807F0FCFA0346DB4303F4C0
S31508004D404053002BF6D100BF00BF05B05DF804FB49
S31508004D500000015B0080035000000A5000B583B0D4
S31508004D60034600918DF807309DF80730002B14D0C4
S31508004D709DF80730012B0ED09DF80730022B07D07F
S31508004D809DF80730032B01D13F2308E0002306E0F6
S31508004D9040F2FF3303E03F2301E040F2FF33009A7D
S31508004DA0D34003F00103002B04D140F2FE310A4838
S31508004DB007F04BF909489DF807200121009B994007
S31508004DC013465B0013441B01034403F501531960A2
S31508004DD000BF03B05DF804FB10DB000800C00350F9
S31508004DE000B583B0034600918DF807309DF807306B
S31508004DF0002B14D09DF80730012B0ED09DF80730F4
S31508004E00022B07D09DF80730032B01D13F2308E07A
S31508004E10002306E040F2FF3303E03F2301E040F2BF
S31508004E20FF33009AD34003F00103002B04D140F26C
S31508004E302D410A4807F009F909489DF8072001217C
S31508004E40009B994013465B0013441B01034403F57A
S31508004E508253196000BF03B05DF804FB10DB00083D
S31508004E6000C0035000B585B0029101920093034635
S31508004E708DF80F309DF80F30002B14D09DF80F30A9
S31508004E80012B0ED09DF80F30022B07D09DF80F305E
S31508004E90032B01D13F2308E0002306E040F2FF334D
S31508004EA003E03F2301E040F2FF33029AD34003F0C8
S31508004EB00103002B04D14FF4B071314807F0C5F84F
S31508004EC0019B002B0FD0009B002B06D09DF80F30BE
S31508004ED002991846FFF784FF05E09DF80F300299FE
S31508004EE01846FFF73BFF029B072B17D89DF80F20A4
S31508004EF013465B0013441B011A1D224B1344029AE6
S31508004F0092000F2101FA02F0029A9200019901FA21
S31508004F1002F20146184607F072FA19E09DF80F20CA
S31508004F2013465B0013441B0103F10C02154B134493
S31508004F30029A083A92000F2101FA02F0029A083AF8
S31508004F409200019901FA02F20146184607F057FA4B
S31508004F50019B002B0FD1009B002B06D09DF80F302C
S31508004F6002991846FFF73CFF05E09DF80F300299B5
S31508004F701846FFF7F3FE00BF05B05DF804FB00BF57
S31508004F805CDB000830C0035000B587B0039002917F
S31508004F900192029B1F2B03D991210C4807F055F863
S31508004FA0019B002B04D0039B03F58053059303E074
S31508004FB0039B03F500530593059B0121029A01FA09
S31508004FC002F21A6000BF07B05DF804FBA8DB000810
S31508004FD000B589B00390029101928DF80330019BC8
S31508004FE0002B04D140F20F115B4807F02EF8019B05
S31508004FF0002B00F0AD809DF8033003F003038DF815
S315080050000330039B9B6823F44072039B9A60039BBF
S3150800501003F108009DF803301B021A464FF440714D
S3150800502007F018FA029B002B16D1039BB3F1B64F73
S3150800503004D12E20FDF7E2FB02900DE0039B474AC0
S31508005040934204D12F20FDF7D9FB029004E040F2E9
S315080050502911414806F0F9FF4FF0FF330793039BE8
S315080050609B6803F00203002B13D09DF80330022B34
S315080050700CD0022B21DC002B02D0012B03D01CE024
S31508005080374B07931CE0374B079319E0364B0793CA
S3150800509016E09DF80330022B0CD0022B0FDC002BF8
S315080050A002D0012B03D00AE02D4B079308E02F4BC3
S315080050B0079305E02E4B079302E000BF00E000BF10
S315080050C0029A079B9A4204D84FF4AF71224806F019
S315080050D0BCFF9DF80330274AD35C0593059B019ACC
S315080050E002FB03F30493049B002B05D140F26F11D6
S315080050F0194806F0AAFF2CE0019BDB00029AD21A97
S31508005100049B13445A1E049BB2FBF3F3013B06931C
S31508005110069B002B04DA40F275110F4806F095FF3E
S31508005120069BB3F5007F04D34FF4BB710A4806F01B
S315080051308CFF039B9B6803F00203002B04D0069B9D
S31508005140002B01D101230693069A039B9A6100E07E
S3150800515000BF09B05DF804FBF4DB000800800650C8
S3150800516080841E00404B4C00809FD5004054890027
S31508005170002D310140DC000800B583B001900B46D4
S315080051808DF80330019BB3F1B64F08D0019B0A4A4C
S31508005190934204D040F28F11084806F056FF019B4F
S315080051A004339DF8032000211846FFF7EDFE00BFE3
S315080051B003B05DF804FB00BF00800650F4DB00086E
S315080051C000B583B001900091019BB3F1B64F08D0AA
S315080051D0019B174A934204D04FF4D271154806F042
S315080051E034FF019B00221A641349019807F026F937
S315080051F0019B03F10800009B5B7883F00103DBB297
S315080052001A460121FFF7C0FE009B5968009B9A6861
S31508005210009B1B7B0198FFF7DBFE009B1B7819465A
S315080052200198FFF7A9FF00BF03B05DF804FB00BFB4
S3150800523000800650F4DB0008FFFF1F0000B58BB0A6
S31508005240019000238DF81F30019BB3F1B64F08D0AB
S31508005250019BA04A934204D040F2FB119E4806F0F7
S31508005260F4FE019BB3F1B64F02D19C4B089309E0BB
S31508005270019B984A934202D1994B089302E06FF03A
S3150800528003033BE2089B9B6806931AE2019BDB6BD0
S315080052900593059B03F4C063002B14D0059B03F408
S315080052A00073002B03D0089BFD225A7007E0059B6C
S315080052B003F48063002B02D0089BFE225A70089BD9
S315080052C009221A7005E2089B1B78082B00F2EF8169
S315080052D001A252F823F000BFFD52000855530008FA
S315080052E0E553000841540008AF5400081B55000850
S315080052F0AF550008F75500088D560008069B5B88D1
S3150800530003F01003002B09D0069B1B881B0A9BB2CF
S3150800531003F0060343F0F00309930EE0069B1B888F
S3150800532003F0FE030993069B5B8803F00203002B38
S3150800533003D0099B43F001030993089B01221A70C5
S31508005340019B099A5A63019B0122DA6001238DF8B1
S315080053501F30B6E1059B03F08003002B0DD080219A
S31508005360019807F06BF8089BFF225A70089B0822E1
S315080053701A70019B0222DA6030E0059B03F04003B5
S31508005380002B2BD04021019807F058F8069B5B8824
S3150800539003F01003002B08D0089B02221A70069B04
S315080053A01B88DAB2019B5A6318E0069B5B8803F0F8
S315080053B00203002B0ED0089B07221A70089B1B7944
S315080053C0069ADB0013441B89012B07D1019B08228F
S315080053D0DA6003E0089B05221A7072E101238DF852
S315080053E01F306EE1059B03F08003002B0DD0802152
S315080053F0019807F023F8089BFF225A70089B082299
S315080054001A70019B0222DA6016E0059B03F040033E
S31508005410002B11D04021019807F010F8069B5B88F5
S3150800542003F00203002B03D0089B03221A7048E1FD
S31508005430089B05221A7044E101238DF81F3040E1CC
S31508005440069B5B8803F01003002B09D0069B1B887C
S315080054501B0A9BB203F0060343F0F003099304E02A
S31508005460069B1B8803F0FE030993069B5B8803F0E3
S315080054700403002B0ED0099B43F001030993089BF4
S315080054801B79069ADB0013441B89012B02D1019B69
S315080054900822DA60089B04221A70019B0122DA604E
S315080054A0019B099A5A6301238DF81F3009E1059B70
S315080054B003F08003002B15D08021019806F0BEFF6B
S315080054C0089BFF225A70089B08221A70019B022229
S315080054D0DA601EE000800650F4DB0008C8160020DB
S315080054E0D4160020059B03F04003002B11D0402161
